:020000040800F2
:10000000403600204502000857390008293300080F
:10001000553900089B1500088D44000800000000B9
:10002000000000000000000000000000AD0100081A
:100030009D15000800000000F1010008AD3F000818
:100040005F0200085F0200085F0200085F0200080C
:100050005F0200085F0200085F0200085F020008FC
:100060005F0200085F0200085F0200085F020008EC
:100070005F0200085F0200085F0200085F020008DC
:100080005F0200085F0200085F0200085F020008CC
:10009000814400085F0200085F0200085F02000858
:1000A0005F0200085F0200085F0200085F020008AC
:1000B0003940000845400008514000085F02000830
:1000C0005F0200085F0200085F0200085F0200088C
:1000D0005F0200086D4400085F0200085F0200082C
:1000E0005F0200085F0200085F02000800F002F8EB
:1000F00000F04DF80AA090E8000C82448344AAF175
:100100000107DA4501D100F042F8AFF2090EBAE872
:100110000F0013F0010F18BFFB1A43F0010318473B
:10012000B86C0000D86C0000103A24BF78C878C1C1
:10013000FAD8520724BF30C830C144BF04680C60ED
:10014000704700000023002400250026103A28BF35
:1001500078C1FBD8520728BF30C148BF0B60704739
:10016000662905F09484642900F0C880782900F09D
:100170000181002070471FB500F012FD040000202F
:10018000002105F0CFF9E0601FBD10B510BD00F0F3
:1001900007FE1146FFF7EFFF04F016FB00F025FE07
:1001A00003B4FFF7F2FF03BC00F028FE224B1968EE
:1001B0000868B0E8F00F80F30988BFF36F8F4FF045
:1001C000000080F311884EF00D0E70470000000013
:1001D00006480068006880F3088862B661B6BFF31D
:1001E0004F8FBFF36F8F00DF00BF00BF08ED00E04F
:1001F000EFF30980BFF36F8F0F4B1A6820E9F00F00
:10020000106008B54FF0500080F31188BFF34F8F96
:10021000BFF36F8F05F006F84FF0000080F31188F0
:10022000BDE8084019680868B0E8F00F80F3098855
:10023000BFF36F8F704700BF74000020EFF305809D
:10024000704700000948804709480047FEE7FEE77D
:10025000FEE7FEE7FEE7FEE7FEE7FEE7FEE7FEE776
:1002600004480549054A064B70470000374000081E
:10027000ED000008403000204036002040320020D1
:10028000403200200FB41CB5074B06AA7B446946D8
:100290000090059800F049FC0020694600F058FCE9
:1002A0001CBC5DF814FB0000C108000070B50446DA
:1002B00085690068C10601D5302600E02026C00708
:1002C00007D070BDD4E9012130469047206A401C18
:1002D00020626D1EF6D570BD70B504468569007844
:1002E000C00707D170BDD4E9012120209047206AC2
:1002F000401C20626D1EF6D570BD00002DE9F04156
:100300000646002410687529314616A510D0AFF3B3
:100310000080002802DA404213A507E031688A070E
:1003200001D512A502E0490704D511A5012401E079
:10033000AFF3008000210A2206F1240709E0B0FB98
:10034000F2FCB0FBF2F302FB1C003030785418468C
:10035000491C0028F3D123462A463046BDE8F04127
:1003600000F075B9000000002D0000002B00000017
:100370002000000070B504460D4621461068AFF31A
:1003800000802188090502D50F4A7A4402E00E4A0E
:100390007A440E32002104F1240305E000F00F0638
:1003A0000009965D5E54491C0028F7D1207800238F
:1003B000000704D5702D02D009B102231132204666
:1003C000BDE8704000F043B92C6900002DE9F05FF2
:1003D000894604464FF0000ADFF824B1FB44C0F818
:1003E00020A02046E168884700287DD0252806D037
:1003F000D4E901219047206A401C2062F1E70025E2
:100400005F462046E16888472028064607DB312EF4
:1004100005D2B81910F8200C08B10543F1E7A80778
:1004200001D525F00405C4F81CA00027C4F818A0C5
:100430002A2E09D0304604F04EF838B304EB870872
:10044000303EC8F8186019E059F8041B204604EB48
:1004500087029161E1688847012F064618D1E0695B
:10046000002820DA25F020051DE0D8F8180000EB60
:10047000800006EB40003038C8F818002046E168DC
:100480008847064604F027F80028EED1012F0AD04D
:100490002E2E08D12046E16888477F1C0646022F91
:1004A00045F02005C4DBA069002803DA404245F08E
:1004B0000105A061E80701D025F01005A6B1A6F15D
:1004C0004100192802D8203645F400654A463146D5
:1004D000204625604D46FFF743FE60B1012807D056
:1004E000ED1D25F0070000E007E000F1080978E7BE
:1004F00005F1040975E730467AE7206ABDE8F09F08
:100500000269000010B5203AC0F00B80B1E8185025
:10051000203AA0E81850B1E81850A0E81850BFF4ED
:10052000F5AF5FEA027C24BFB1E81850A0E818508C
:1005300044BF18C918C0BDE810405FEA827C24BFE0
:1005400051F8043B40F8043B08BF7047D20728BF6E
:1005500031F8023B48BF11F8012B28BF20F8023BBD
:1005600048BF00F8012B704702F0FF0343EA032263
:1005700042EA024200F0F3BA4FF0000200B513461F
:1005800094469646203922BFA0E80C50A0E80C50B3
:10059000B1F12001BFF4F7AF090728BFA0E80C5064
:1005A00048BF0CC05DF804EB890028BF40F8042B5D
:1005B00008BF704748BF20F8022B11F0804F18BFCA
:1005C00000F8012B704700004FF0013C50F8042B5D
:1005D00051F8043B9A4221D1A2EB0C03934313EA56
:1005E000CC1317D150F8042B51F8043B9A4215D183
:1005F000A2EB0C03934313EACC130BD150F8042B5A
:1006000051F8043B9A4209D1A2EB0C03934313EA3D
:10061000CC13DBD04FF00000704700BFD01A01BAF6
:10062000B1FA81F101F0180122FA01F0CB40C1F1D9
:100630002001DBB2C0B2C01A2CFA01F3D11A9143E7
:1006400011EAC311E6D170477047704770472DE932
:10065000F0470D4699469246044600F12408016889
:10066000880604D5E06921F01001216000E0012036
:10067000A84201DD471B00E00027A1697A1902EBBF
:100680000900081AA0612078C00602D42046FFF7AE
:100690000DFE002608E0D4E901211AF80600904773
:1006A000206A401C761C20624E45F4DB2078C00690
:1006B0000AD52046FFF7FAFD06E0D4E901213020F3
:1006C0009047206A401C2062381EA7F10107F4DC25
:1006D00007E0D4E9012118F805009047206A401C82
:1006E0002062281EA5F10105F3DC2046FFF7F4FD8A
:1006F0002078000602D50220BDE8F0870120FBE744
:1007000070472DE9FF4F0C461E464FF0FF378BB068
:10071000D2E90001DDF860800A908A46C1F30A55EB
:1007200005B93D46002108464FF00000BAF1000F20
:1007300000F4400005DA00EB80004FF4400101EACC
:1007400050004FEA9059B9F1010F00DDB9460A98FF
:1007500050EA4A000ED044F61050A5F2FF3545434A
:100760002F14B8F1000F1ED07542291E1EDDC9F1ED
:1007700000021CE0B8F1010F4FF0000001D0302161
:1007800003E0F24305E02154401CB042FBDB30465D
:100790000022002121540B99C1F80880C1E90020F2
:1007A0000FB0BDE8F08FBD1B6D1CDEE74A4600DAD6
:1007B000694206A800F07EFA06AB93E8070003AB97
:1007C00083E8070050460A9900F01FFB8DE80700F8
:1007D000A0F500501F3800900398002D0ADD42F26A
:1007E0001F014A460844002303A90390684600F00D
:1007F00088FD09E0A0F500504A461F38002303A9F0
:100800000390684600F092FD8DE807000004000C9C
:1008100003D04FF0FF30410800E01046B8F1000F60
:1008200003D00022009215461EE0751E05D400F08C
:10083000BBF9303262556D1EF9D5B346012208432B
:1008400002D000227F1C04E02078302801D1002251
:100850007F1E002A099784D01DE0112D07DA00F0D1
:10086000A3F9303262556D1C50EA0102F5D10843FC
:1008700002D00098C8B10EE00021681E05E0235C9C
:10088000625C63542254401E491C8142F7DBAB4634
:10089000A81B401E0990002004F80B000B98099A31
:1008A000C0F80880C0E9002B7AE711264FF0000855
:1008B00057E72DE9F04F88460446D21D22F0070184
:1008C00091B0D1E90001CDE90A0103F0E0FD024653
:1008D0000B98C00F01D02D2007E02068810701D5BB
:1008E0002B2002E0202101EAC000032A099001D058
:1008F000072A05DB03464146204600F09BF90BE141
:100900002078800601D5E06900E00620B8F1650F87
:10091000814606D0B8F1660F18D0B8F1670F70D1D4
:1009200031E00020B9F1110F009001DB112301E04B
:1009300009F101030AAA01A90CA8FFF7E2FEDDE90B
:100940000C70002609F10105834647E001204B4663
:1009500000904FF000470AAA01A90CA8FFF7D1FEAA
:10096000DDE90DB00C995D46002610B909F10100D2
:100970000D18B9EB050003D4C0F1FF3609F10105EC
:10098000A5EB09002BE0B9F1010F01DA4FF00109E5
:100990000020B9F1110F0090484601DD112300E05D
:1009A00003460AAA01A90CA8FFF7ABFEDDE90C700B
:1009B0004D4600268346207800070AD4AB4500DA6E
:1009C0005D4601A8012D04DD411911F8011C3029F3
:1009D00007D04F4502DA17F1040F04DA01208246EE
:1009E0000FE06D1EEEE7002F02DCED1B3E4403E03E
:1009F000781CA84200DD7D1CB81B00F1010A4FF0F5
:100A000000472078000703D4AA4501DB4FF0FF3AE6
:100A10000021B7F1004F0DF143088DF8431024D0A9
:100A200002202B23002F01DA7F422D230A21021EF0
:100A3000A0F1010000DC5FB197FBF1FC97FBF1F244
:100A400001FB1C7C17460CF1300C08F801CDEEE7D9
:100A5000A8F1010003702188090501D5452100E0B6
:100A60006521A0F1010800F8011C09980FA9A1EB6C
:100A70000807FF1D00B10120411901EBEA70A169CF
:100A80003844081A401EA0612078C00602D42046CF
:100A9000FFF70CFC099828B1D4E901219047206A9E
:100AA000401C20622078C00622D52046FFF7FEFBBE
:100AB0001EE0002E04DBB34502DD01A8805D00E0EE
:100AC0003020D4E901219047206A401C2062761C26
:100AD000AAF101005FEA000A0AD100F061F8C068DB
:100AE0000168405CD4E901219047206A401C2062E3
:100AF000281EA5F10105DCDC07E0D4E9012118F886
:100B0000010B9047206A401C2062381EA7F10107A4
:100B1000F3DC2046FFF7E0FB032011B041E60000C4
:100B200001694A1C02610878704700B58FB0CDE9B1
:100B300001310021059105497944CDE903101146A1
:100B40006846FFF743FC0FB000BD0000E5FFFFFF64
:100B50000A6802F8010B0A6070474FF0000204298E
:100B6000C0F0128010F0030C3FF408ADCCF1040C7F
:100B7000BCF1020F18BF00F8012BA8BF20F8022B10
:100B8000A1EB0C01FFF7FABC5FEAC17C24BF00F8BF
:100B9000012B00F8012B48BF00F8012B7047000023
:100BA000004870470030002030B5B0F10A024FEA2B
:100BB000900E71F100034EEA817EB0EB0E0061EB06
:100BC00091014FEA101E4EEA017E10EB0E0041EB40
:100BD00011114FEA102E4EEA016E10EB0E0041EBA0
:100BE00011214FEA104E4EEA014E10EB0E0041EB80
:100BF0001141401841F100014FEAD00040EA417034
:100C00004FEAD10110EB80054FEA810444EA907469
:100C100044EB01046D1944EB0404521BA3414FF053
:100C2000000348BF0A3200D530BD401C41F100012D
:100C300030BD00002DE9F0411F460446032601683F
:100C4000072A01F4006004DB08B116A505E016A52B
:100C500003E008B115A500E015A521F01000206003
:100C6000A069C01EA0610FB1401EA0612046FFF721
:100C70001DFB4FB1D4E9012138469047206A401C42
:100C80002062C01C206206E0206AFAE7D4E9012154
:100C900015F8010B9047761EF8D22046FFF71CFB93
:100CA000BDE8F0814E414E006E616E00494E460037
:100CB000696E66002DE9F047814616468AB03548D0
:100CC00078440DC88DE80D0032487844801C03AC90
:100CD0000DC884E80D0041F69B300844372190FB95
:100CE000F1F290FBF1F5A5F1800501FB12041B3C2C
:100CF00002D56442012000E00020DFF898A0804681
:100D00000027FA44AAF1BE0A0EE0E0070AD03246F4
:100D1000684607EB470101230AEB810100F006FB5F
:100D20008DE8070064107F1C002CEED1194F7F4422
:100D3000AE3F19E0E80715D007EB04100DF1180AD3
:100D400090E80E008AE80E00C068F04201D19819C0
:100D500008903246012306A903A800F0E7FA03AB86
:100D600083E807006D10641C002DE3D14FF00103F0
:100D700032466946B8F1000F03A802D000F0C1FA6C
:100D800001E000F0D3FAC9E90001C9F808200AB06F
:100D9000BDE8F087AC60000000487047E02F0020FD
:100DA0007546FFF7F9FFAE4605006946534620F049
:100DB0000700854618B020B5FFF752FABDE820407D
:100DC0004FF000064FF000074FF000084FF0000B07
:100DD00021F00701AC46ACE8C009ACE8C009ACE8BA
:100DE000C009ACE8C0098D46704710B50446AFF3A2
:100DF00000802046BDE81040FFF7D2B90149182015
:100E0000ABBEFEE72600020070475FEA400C08BF59
:100E100091F0000F4FEA8C234FEAC12243EA51516F
:100E20004FEA1C5018BF00F5F0404FEA300018BFE1
:100E300041F000415FEA6C5C00F02980BCF1FF3FAB
:100E400008BF40F080407047130C06BF12044FF0FB
:100E5000100C4FF0000C130E04BF12020CF1080C22
:100E6000130F04BF12010CF1040C930F04BF920086
:100E70000CF1020CD30F04BF52000CF1010C11460F
:100E80004FF00002A0F11F00A0EB0C00704711F022
:100E9000004F08BF704731F000413FF4D5AF0B0C55
:100EA00006BF09044FF0100C4FF0000C0B0E04BFEE
:100EB00009020CF1080C0B0F04BF09010CF1040C22
:100EC0008B0F04BF89000CF1020CCB0F04BF49004B
:100ED0000CF1010CCCF12003A0EB0C0022FA03F37F
:100EE00002FA0CF241EA030100F10100704720F020
:100EF0007F4C80EA030023F07F47ACEB070303F548
:100F00007C5300F0004003F1FF032DE980494FEAD4
:100F1000154B09B44FEA144325EA0B4E24EA034863
:100F20000FF2042606EB132749083E785FEA3202E7
:100F300003FB0667C7F5000707FB06F64FEA5437C1
:100F40004FEAD64606F1020607FB066CCCF1005CC0
:100F50004FEA1C472CEA074C07FB06F40CFB06F58E
:100F600004EB15464FEA961634BF00204FF00040C0
:100F70004FEAD13706FB07FC4FEA1C4C0CFB0BF782
:100F8000D21B03FB0CF761EB07010CFB0EF7B0EB78
:100F9000074072EB17420CFB08F734BFA2EB074285
:100FA000B2EB074261EB17414FEA0C444FEA91075D
:100FB00006FB07FC4FEA1C4C0CFB0BF7B0EBC740E1
:100FC00072EB573203FB0CF734BFA2EBC742B2EB14
:100FD000C74261EB57310CFB0EF7B0EBC70072EB69
:100FE00057720CFB08F734BFA2EBC702B2EBC70283
:100FF00061EB5771039F4FEA816141EA921104EB63
:10100000CC044FEAD1374FEA826206FB07FC42EA82
:1010100090124FEA80604FEA1C4C0CFB0BF7D21B7E
:1010200003FB0CF761EB07010CFB0EF7B0EB07407D
:1010300072EB17420CFB08F734BFA2EB0742B2EB8E
:10104000074261EB17414FEA8C554FEA910704EBD9
:101050009C2406FB07FC4FEA1C4C0CFB0BF7B0EB87
:10106000C74072EB573203FB0CF734BFA2EBC74209
:10107000B2EBC74261EB57310CFB0EF7B0EBC70088
:1010800072EB57720CFB08F734BFA2EBC702B2EB4E
:10109000C70261EB577115EB4C254FEA816141EABC
:1010A00092114FEA82624FEAD13742EA901206FB70
:1010B00007FC44F100044FEA80604FEA1C4C0CFB33
:1010C0000BF7D21B03FB0CF761EB07010CFB0EF7D0
:1010D000B0EB074072EB17420CFB08F734BFA2EBF2
:1010E0000742B2EB074261EB174115EB1C154FEAC3
:1010F000813141EA92414FEA823242EA90424FEA1C
:1011000080304FEA0C7644F1000448EA03434EEA8B
:101110000B484FF0000EB2EB080C71EB030724BF35
:10112000624639464EEB0E0E4FF0000B001852414E
:1011300049414BEB0B0BB2EB080C71EB03077BF156
:10114000000B24BF624639464EEB0E0E4FF0000BEB
:101150000018524149414BEB0B0BB2EB080C71EB01
:1011600003077BF1000B24BF624639464EEB0E0E9F
:1011700051EA020718BF46F0010616EB0E7655F14C
:10118000000254F1000103D5BDE88901BDE80088E3
:10119000BDE88901BDE80048B619524141EB0101A3
:1011A000A3F10103704780807F7E7D7C7B7A797814
:1011B000777676757473727171706F6E6E6D6C6C1C
:1011C0006B6A6A69686867666665646463636261BE
:1011D0006160605F5F5E5E5D5D5C5C5B5B5A5A593F
:1011E00059585857575656555555545453535252AB
:1011F0005251515050504F4F4F4E4E4D4D4D4C4C03
:101200004C4B4B4B4A4A4A4949494848484747474B
:101210004746464645454544444444434343434288
:10122000424242414141002B9C4630D477002BD0B2
:101230001CB54FEA370703B44FF010004FF0100110
:10124000BAF1000F06D0BCF1000FDCBF40F008007F
:1012500040F008014FF000000FBCBDE810400BF15A
:10126000010BBBF1010F08BF5FEA170722BF12F1A4
:10127000010211F101014FF0004143F1000300F0C0
:10128000004043EA00007047F9D35708D0E746EA28
:10129000064613F1400F4FEA16461FDD13F1200FEB
:1012A000DFBF16430A46002120335B42BED0C3F1A4
:1012B000200746EA064602FA07F74FEA164646EACC
:1012C0000706C3F1200722FA03F201FA07F721FA11
:1012D00003F14FF0000342EA0702A7E746EA0206DD
:1012E00046EA06464FEA164646EA0106BCBF46EA0B
:1012F0000646360C4FF000034FF000024FF000019D
:1013000094E72DE9804C9A46934670B491E83800F2
:1013100007C831EA400C48BF34EA430C03D5FFF755
:10132000E6FDFFF780FFF0BCBDE8008C2DE9804CA6
:101330009A46934670B491E8380007C810F0804F81
:1013400008BF13F0804F03D100F005F8FFF76BFFE3
:10135000F0BCBDE8008C20F07F4780EA030023F05A
:101360007F4C07EB0C03A3F57C5300F00040A3F186
:10137000FE0392F0000F00F0B38095F0000F00F034
:1013800077802DE901494FEA11404FEA144621EADE
:10139000004800FB06FC24EA064708FB06F607FBAC
:1013A00008F800FB07F718EB06484CEB164C4FEA21
:1013B000124B18EB07484FEA15464CEB174022EA50
:1013C0000B4E0BFB06FC25EA06470EFB06F607FB59
:1013D0000EFE0BFB07F71EEB064E4CEB164C4FF0C8
:1013E00000061EEB074E4CEB174B18EB0B0840F1B9
:1013F000000018EB0E0B58EB000840F100008F1AAC
:101400004FF000013CBFC943661B14BFB5EB040C91
:1014100000213CBFC943F61B4FEA17444EEA8E0E2B
:1014200027EA04454FEA1C4704FB07622CEA074CF5
:1014300005FB07F70CFB05F604FB0CFC16EB074657
:1014400042EB174216EB0C4642EB1C421BEB060626
:1014500058EB0202414146EA9E0601D5BDE80189EA
:10146000B619524141EB0101A3F10103BDE8018925
:101470004FEA14454FEA114724EA054621EA074C92
:1014800005FB07F406FB07F70CFB06F105FB0CFC5C
:1014900011EB074144EB17444FEA124711EB0C41A3
:1014A00044EB1C4422EA074C05FB07F206FB07F756
:1014B0000CFB06F605FB0CFC16EB074642EB17424D
:1014C00016EB0C4642EB1C456A1854F1000148BF6C
:1014D0007047B619524141EB0101A3F10103704776
:1014E00095F0000F37D04FEA11424FEA144721EA36
:1014F000024624EA074C02FB07F106FB07F70CFB48
:1015000006F402FB0CFC14EB074441EB17414FEAD5
:10151000154714EB0C4441EB1C4125EA074C02FB38
:1015200007F506FB07F70CFB06F602FB0CFC16EBB7
:10153000074645EB174516EB0C4645EB1C421219C6
:1015400051F1000148BF7047B619524141EB01010A
:10155000A3F1010370474FEA14454FEA114724EA0B
:10156000054621EA074C05FB07F106FB07F70CFBD4
:1015700006F24FF0000605FB0CFC12EB074241EBB4
:10158000174112EB0C4251EB1C4148BF70479218B7
:1015900041EB0101A3F101037047FEE7704772B60A
:1015A000FEE7AFF30080406A704770B590F82040C6
:1015B000012C05D0022C03D0416A41F4802128E09F
:1015C000046809B32469A40720D04FF4D8740568CF
:1015D00004EB01142D5915F00405956005682D598B
:1015E0001AD0ED08556005682C5904F00204D46047
:1015F0004FF4DA74056804EB01142E5906F00F0657
:10160000082E0CD308250DE0E468DCE7416A41F4BC
:1016100000114162012070BD6D0D1560E3E72D5989
:1016200005F00F05156105682D59C5F3072595616E
:1016300005682C59240C54614FF4DC72046802EBE9
:101640000112A4581C700468A458240A5C70046831
:10165000A458240C9C700468A258120EDA704FF43F
:10166000DE72046802EB0112A4581C710468A458CD
:10167000240A5C710468A458240C9C710468A25864
:10168000120EDA71006829B1016941F0200101618F
:10169000002070BDC16841F02001C160F8E72DE96C
:1016A000F05F0546006800244669D0F8049087681A
:1016B000D0F80CB0D0F810A0D0F81880F10748D0BE
:1016C000F90714D001218160B80703D5284600F03E
:1016D000D7F90CE0780702D54FF4006407E038072B
:1016E00002D54FF4805402E0284600F0C8F9F8050E
:1016F00016D529684FF480708860B80503D5284650
:1017000000F0C0F90CE0780502D544F4005407E07D
:10171000380502D544F4804402E0284600F0B1F9CF
:10172000F80316D529684FF480308860B80303D5D4
:10173000284600F0A9F90CE0780302D544F40044EF
:1017400007E0380302D544F4803402E0284600F074
:101750009AF9300707D55FEACB6004D529681020D5
:1017600044F40074C86070074FF0080707D55FEABB
:101770000B7004D52868C760284600F065F9B007EB
:1017800006D52868C068800702D0284600F05EF9B8
:10179000700607D55FEACA6004D52968102044F4B2
:1017A00080640861B00607D55FEA0A7004D528682E
:1017B0000761284600F060F9F00606D52868006940
:1017C000800702D0284600F058F9B00308D55FEA38
:1017D000C96005D5296810204860284600F04EF9F8
:1017E000F00307D55FEA097004D5286847602846EA
:1017F00000F04BF9300446D55FEA497040D5F0055A
:1018000004D55FEAC87001D044F00104B00504D5E6
:101810005FEA887001D544F00204700504D55FEAE0
:10182000487001D544F00404300529D518F0700F34
:1018300026D008F07000402815D006DC102809D00A
:1018400020280AD0302816D10AE050280ED060286F
:1018500011D10EE044F008040DE044F010040AE059
:1018600044F0200407E044F0400404E044F0800425
:1018700001E044F480742868816921F0700181617D
:10188000296804204860002C05D0686A20436862FB
:101890002846FFF786FEBDE8F09F70B5040003D030
:1018A00094F8200010B104E0012070BD204600F043
:1018B00081F82068016841F00101016000F05EFAE2
:1018C0000546052604E000F059FA401B0A2811D805
:1018D00020684068C007F6D02068016821F0020146
:1018E000016000F04BFA05460BE000F047FA401BA0
:1018F0000A2806D9606A40F40030606284F82060EB
:10190000D2E7206840688007EFD4207E0128206855
:1019100001683DD021F080010160607E01282068CF
:10192000016838D021F040010160A07E01282068C4
:10193000016833D021F020010160E07E0128206899
:1019400001682ED041F010010160207F012820683D
:10195000016829D021F008010160607F012820681A
:10196000016824D021F004010160D4E90201084398
:10197000D4E90412114308436168491E08432168F1
:10198000C86100206062012084F82000002070BD42
:1019900041F08001C0E741F04001C5E741F020017E
:1019A000CAE721F01001CFE741F00801D4E741F088
:1019B0000401D9E710B586B0002100910191029190
:1019C000039100681C49884233D11C48C16941F029
:1019D0000071C161C16901F000710491816941F038
:1019E000080181618069164C00F0080004904FF4F2
:1019F000807000906946204600F0CAF8601500909B
:101A000002200190032003906946204600F0C0F8B0
:101A10000C48416821F4C04141F0E06141F480414B
:101A2000416000220521142000F0BEFC142000F0CB
:101A3000ADFC06B010BD0000006400400010024084
:101A4000000C0140000001407047000010B5084B39
:101A5000084A0021FFF7A9FD002807D105480068C2
:101A6000062803D102490120891F087010BD00001B
:101A70002C000020240500207047704770477047F5
:101A800070477047704770477047704710B590F8BF
:101A900021100022022905D00421816380F8202032
:101AA000012010BD01680B6823F00E030B60016874
:101AB0000B6823F001030B6090F84030C46B0121E8
:101AC00001FA03F3636080F8211080F820201046AB
:101AD00010BD000010B590F821100024022903D099
:101AE0000421816301243DE001680A6822F00E02AE
:101AF0000A6001680A6822F001020A601A4A016855
:101B0000914201D1012121E0174A1432914201D1C1
:101B100010211BE0144A2832914201D1891515E0A9
:101B2000114A3C32914201D189140FE00E4A5032E1
:101B3000914202D14FF4803108E00B4A6432914265
:101B400002D14FF4801101E04FF08071064A083A4B
:101B50005160012180F82110002180F82010416B94
:101B600001B18847204610BD0800024070B5044608
:101B700000F004F90546601C02D0044800780444D3
:101B800000F0FCF8401BA042FAD370BD64000020B6
:101B90002DE9F84FDFF8B8910024A9F1040B234692
:101BA0000F2709F1040AABF1040EC9E00125A54095
:101BB0002A40AA427DD1674ED1F804C0ACEB06089A
:101BC000B44532D014DCBCF1030F3AD009DCBCF1CF
:101BD000000F2AD0BCF1010F1CD0BCF1020F31D193
:101BE0001DE0BCF1110F17D0BCF1120F2AD119E082
:101BF000B8F5881F19D006DCB8F5803F15D0B8F5C8
:101C0000801F1FD111E0B8F5001F0ED0B8F5041FDA
:101C100018D10AE0CB6815E0CB681B1D12E0CB6839
:101C200008330FE0CB680C330CE08B682BB1012B31
:101C30004FF0080303D0456104E0042302E005618E
:101C400000E00023FF2A01D8064601E000F1040667
:101C50004FEA840501D9A5F12005D6F8008007FADE
:101C600005FC28EA0C0803FA05F548EA0508C6F859
:101C700000804D68ED0062D5374DAE6946F0010633
:101C8000AE61AD6924F0030605F001050095334D02
:101C900006EB050CDCF80850A607360F07FA06F825
:101CA00025EA0805DFF8B880404503D14FF0000869
:101CB00017E044E0DFF8AC80404502D14FF0010866
:101CC0000FE0DFF8A480404502D14FF0020808E0A1
:101CD000DFF89880404502D14FF0030801E04FF053
:101CE000040808FA06F848EA0508CCF808804D68A8
:101CF000D9F80060ED024D4601D5164300E0964349
:101D00002E604D68DAF80060AD02554601D51643E5
:101D100000E096432E604D68DBF80060AD035D4641
:101D200001D5164300E096432E604D68DEF8006052
:101D3000ED03754601D5164300E096432E60641C02
:101D40000D682A46E5407FF431AFBDE8F88F00000A
:101D50000804014000001110001002400000014082
:101D600000080140000C0140001001400014014037
:101D70000AB1016170470904FBE70000014880686F
:101D8000704700006400002070B5040004D094F88F
:101D90004100002510B106E0012070BD84F84050DC
:101DA000204601F07FFA242084F841002068C168B1
:101DB00021F40051C160204602F0FCFA206801695C
:101DC00021F4904101612068416921F022014161C3
:101DD0002068416941F0080141612068C16841F40F
:101DE0000051C1606564202084F8410084F84200FD
:101DF0006563002070BD000070B5040025D094F824
:101E00003D00002520B984F83C50204600F004FA3B
:101E1000242084F83D002068016821F00101016060
:101E20002068016841F4004101602068016821F4E4
:101E30000041016000F0A0FB4D4A6168914201D869
:101E40004C4900E04C49884201D2012070BD4B4909
:101E50002368B0FBF1F15E6826F03F060E435E603A
:101E60006368934206D94FF4967359434FF47A73DB
:101E7000B1FBF3F12368491C1E6A26F03F0631438B
:101E800019626168914210D84900401EB0FBF1F21E
:101E9000521CC2F30B02042A01D2042022E0B0FB40
:101EA000F1F0401CC0F30B001CE0A268F2B301EBA0
:101EB000C10303EB0116431EB3FBF6F35B1C43F4B3
:101EC00080431B0549D092B301EBC10202EB011123
:101ED000401EB0FBF1F0401CC0F30B0040F480400A
:101EE00040F400402168CA694CF6FF739A431043DE
:101EF000C861D4E9071001432068026822F0C002DB
:101F000011430160D4E9030101432068826848F26B
:101F1000FF339A4311438160D4E9050108432168E6
:101F2000CA6822F0FF021043C86001E00EE016E02C
:101F30002068016841F0010101602564202084F8D7
:101F40003D00256384F83E50002070BD01EB410642
:101F5000431EB3FBF6F35B1CB3E70120C2E701EBC2
:101F60004101401EB0FBF1F0401CC0F30B00B7E78D
:101F7000A086010080841E0000093D0040420F0041
:101F80002DE9FF4F81B089460446FFF7F7FE05466D
:101F900094F83D004FF0000820287DD1192301223C
:101FA00050492046009501F051FA002874D194F868
:101FB0003C00012870D0012084F83C0020680168B2
:101FC000C90703D1016841F001010160206801687F
:101FD00021F400610160242084F83D00002626647D
:101FE0004148E0624FF0011B20272068016841F45E
:101FF000807101600095002259462046049B01F043
:1020000025FA50B120680068C00502D54FF4007071
:102010002064032005B0BDE8F08F216809F0FE00C0
:102020000861FFF7ABFE2168054648694969C0F3BE
:102030004000C1F380214FF0A00A0FE0FFF79EFEA1
:10204000411B0498814200D808B984F83DA021685A
:1020500048694969C0F34000C1F3802194F83D20EC
:10206000A02A02D008B90029E8D084F83D70206881
:102070004169C943890716D4016841F400710160C0
:10208000206841698069192301221649204600957C
:1020900001F0DCF9B8B900E021E084F83D7084F883
:1020A0003C600020B6E7016841F4007101602168DE
:1020B0006FF480604861192301220A492046009587
:1020C00001F0C4F908B10120A4E7039808F1010860
:1020D00080458AD384F83D7084F83C60F3E70220A1
:1020E00098E70000020010000000FFFF2DE9F84F04
:1020F0001F4690468A460446DDF82890FFF73EFECC
:10210000054694F83D0020287FD11923012240493B
:102110002046009501F09AF9002876D194F83C0009
:10212000012872D0012084F83C0020680168C907AA
:1021300003D1016841F0010101602068016821F4C8
:1021400000610160212084F83D00102084F83E00E9
:1021500000262664C4F824806785608D20852D487C
:10216000E0622B464A465146204601F0F5F890B908
:10217000206841698069009036E02A464946204639
:1021800001F00AFA50B1206C042804D120680168DB
:1021900041F4007101600120BDE8F88F606A216898
:1021A00000780861606A401C6062618D491E61852B
:1021B000218D491E89B2218522685369DB435B0763
:1021C0000BD451B100781061606A401C6062608D70
:1021D000401E6085208D401E20852A4649462046A7
:1021E00001F008F90028CED1208D0028C5D154F87F
:1021F0003D0B016841F400710160202004F81E09C4
:10220000E67766770020C7E7FFE70220C4E7000013
:10221000020010000000FFFF10B586B00021009101
:102220000191029103910068104988421BD1104C22
:10223000A06940F00800A061A069694600F00800AC
:1022400004904FF44060009012200190032003900E
:102250000848FFF79DFCE06940F48000E061E06918
:1022600000F48000049006B010BD0000005800404B
:1022700000100240000C01400248816802781144BD
:102280008160704764000020074810B5016841F084
:1022900010010160032000F0A7F80F2000F006F8FD
:1022A00000F050F8002010BD0020024030B5054677
:1022B0001F4887B0C16941F00401C161C06906A926
:1022C00000F00400009001A800F036F90498B0B1C5
:1022D00000F052F940001749174AB0FBF1F11748D6
:1022E000491E0260416040F2E7320021C0E903214B
:1022F0008160816100F04CFB040003D015E000F028
:102300003BF9E8E70D4800F08FFB04000DD11E20DB
:1023100000F03CF8102D07D2002229461E2000F0C4
:1023200043F80748056000E0012407B0204630BDAF
:102330000010024040420F0000080040BC06002090
:10234000680000200F4808B5816941F001018161F2
:10235000816901F001010091C16941F08051C161C1
:10236000C069002200F0805000900F21901E00F004
:102370001BF80548416821F0E06141F000714160BF
:1023800008BD00000010024000000140002809DBE9
:1023900000F01F02012191404009800000F1E0207F
:1023A000C0F8001170470000F0B40E4B1B680C46DB
:1023B000C3F30223C3F10705042D00D90425191D19
:1023C000072901D2002300E0DB1E012606FA05F1F1
:1023D000491E214099409E40761E16403143F0BC74
:1023E00002F069B80CED00E0064900F00702086849
:1023F0004FF6FF03184040EA0220034A10430860EA
:10240000704700000CED00E00000FA052DE9F047F0
:102410000F46050061D0434E306800F00700B84217
:1024200009D2306820F0070038433060306800F08F
:102430000700B84251D128683B4C810712D54007AC
:1024400003D5606840F4E06060602878000703D539
:10245000606840F4605060606068A96820F0F00037
:10246000084360602878C00728D06868012810D029
:102470002168022810D0890700292EDA616821F02E
:10248000030101436160FFF779FC804641F288391E
:102490000DE021688903EFE78901EDE7FFF76EFCA6
:1024A000A0EB0801494502D90320BDE8F087606828
:1024B000696800F00C00B0EB810FEFD1306800F0DC
:1024C0000700B8420BD9306820F00700384330606D
:1024D000306800F00700B84201D00120E5E7287815
:1024E000400705D56068E96820F4E0600843606053
:1024F0002878000706D56068296920F4605040EA12
:10250000C100606000F058F86168084AC1F3031127
:10251000515CC8400649086006480068FFF7C6FEDF
:102520000020C2E70020024000100240A26C000818
:1025300070000020680000200F2202600C4A5368DF
:1025400003F003034360536803F0F00383605368B0
:1025500003F4E063C36052684FF4E06303EAD2021D
:1025600002610448006800F007000860704700003E
:1025700000100240002002400448054900684968F4
:10258000044AC1F30221515CC8407047700000202A
:1025900000100240B26C0008044805490068496810
:1025A000044AC1F3C221515CC8407047700000204A
:1025B00000100240B26C00080E4A51680E4801F04B
:1025C0000C03042B11D0082B0FD10C48C1F383430B
:1025D000C903C05C0AD55168084AC1F34041921E44
:1025E000515C054A5043B0FBF1F070470449484341
:1025F000704700000010024000127A00926C000840
:1026000000093D002DE9F84F040070D02078C04D3E
:10261000C00749D06868C0F38100012807D0686806
:10262000C0F38100022809D16868C00306D5286874
:10263000800339D560680028E7D035E06068B0F5E0
:10264000803F0BD010B1B0F5A02F11D0286820F436
:1026500080302860286820F4802002E0286840F458
:1026600080302860606890B1FFF788FB06460AE07A
:10267000286840F480202860F0E700BFFFF77EFB69
:10268000801B642873D828688003F7D50CE0FFF717
:1026900075FB064605E000BFFFF770FB801B642852
:1026A000F0D828688003F7D420789A4E80074FF03E
:1026B00001094FF0000839D5686810F00C0F07D0F9
:1026C0006868C0F38100022809D16868C00306D495
:1026D0002868800714D52069012808D110E02069F6
:1026E000B0B1C6F80090FFF749FB074605E00AE1E4
:1026F000FFF744FBC01B0228C4D828688007F7D521
:102700002868616920F0F80040EAC10028600DE007
:10271000C6F80080FFF732FB074604E0FFF72EFB08
:10272000C01B022823D828688007F7D42078000728
:102730002CD57948A169D9B1C0F80090FFF71EFBEC
:10274000074604E0FFF71AFBC01B02280FD8686A8F
:102750008007F7D571484FF4FA510068B0FBF1F0EB
:10276000009000BF0098411E0091FAD20EE080E078
:10277000C0F80080FFF702FB074604E0FFF7FEFA0F
:10278000C01B022875D8686A8007F7D420784007F4
:1027900060D5E8690027C00008D4E86940F080509F
:1027A000E861E869012700F0805000905C4801680A
:1027B000C90513D40168834641F480710160FFF7B5
:1027C000DDFA824606E000BFFFF7D8FAA0EB0A0068
:1027D00064284ED8DBF80000C005F5D5E068012874
:1027E0000AD008B1052813D0286A20F00100286219
:1027F000286A20F0040002E0286A40F00100286204
:10280000E06841F2883B98B1FFF7B8FA82460BE0E6
:10281000286A40F004002862EEE700BFFFF7AEFA36
:10282000A0EB0A0159455AD8286A8007F6D50CE072
:10283000FFF7A4FA824605E0FFF7A0FAA0EB0A0131
:1028400059454CD8286A8007F6D41FB1E86920F0B2
:102850008050E861E06988B36968C1F381010229A9
:1028600044D00228C6F8608004D0FFF787FA0446F7
:1028700038E034E0FFF782FA074604E0FFF77EFA1B
:10288000C01B02282BD828688001F7D4206AB0F535
:10289000803F05D16868A16820F400300843686073
:1028A000D4E908010843696821F474110843686099
:1028B000C6F86090FFF762FA044606E025E000BF24
:1028C000FFF75CFA001B022809D828688001F7D5B9
:1028D0001BE000BFFFF752FA001B022802D90320B9
:1028E000BDE8F88F28688001F4D40EE00128F7D005
:1028F0006868226A00F48031914204D1616A00F470
:102900007010884201D00120EAE70020E8E70000CB
:102910000010024000004242800442427000002049
:10292000007000407047704770B590F83C20012A55
:1029300026D0012480F83C40022280F83D20036824
:102940005A689D6822F070060A6832435A600D4B3F
:1029500002689A4208D0B2F1804F05D00A4B9A42E1
:1029600002D00A4B9A4204D1496825F080031943EA
:10297000916080F83D40002180F83C10084670BD11
:10298000022070BD002C01400004004000080040FF
:1029900010B5040003D094F83D0010B107E0012009
:1029A00010BD002084F83C00204600F01FF80220F3
:1029B00084F83D00211D206801F050FB012084F8BF
:1029C000460084F83E0084F83F0084F8400084F814
:1029D000410084F8420084F8430084F8440084F8FD
:1029E000450084F83D00002010BD000008B50068D7
:1029F0000B49884212D10B48C16941F00201C16103
:102A0000C069002200F00200009005211D20FFF7A0
:102A1000CBFCBDE808401D20FFF7B8BC08BD000096
:102A2000000400400010024090F83D10012901D040
:102A300001207047022180F83D100168CA6842F009
:102A40000102CA6000680B49884208D0B0F1804F8B
:102A500005D00949884202D00849884204D18168DA
:102A600001F00701062903D0016841F0010101606E
:102A700000207047002C0140000400400008004086
:102A800070B5044690F83C000025012817D00126B7
:102A900084F83C60022084F83D002068826822F0BF
:102AA000770222F47F4282600868502838D00DDC1B
:102AB00020284FD005DC90B3102811D14AE0022025
:102AC00070BD302846D040280AD13BE060282FD086
:102AD00070280DD0B0F5805F03D0B0F5005F12D044
:102AE000012584F83D60002084F83C00284670BD34
:102AF000CB68D1E90121206801F0F3FA20688168F0
:102B000041F0770109E0CB68D1E90121206801F0AB
:102B1000E8FA2068816841F480418160E1E719E0CA
:102B2000CA684968206801F091FB5021206806E0DE
:102B3000CA684968206801F09AFB6021206801F0AA
:102B4000DAFACEE7CA684968206801F07FFB4021C5
:102B50002068F4E7226801461046F0E7704770B538
:102B60000446006801694FF00005C943890715D480
:102B7000C168C943890711D4E91E0161012020778A
:102B8000206880698007204602D0FFF7E7FF04E055
:102B900000F0E0F8204600F08DF925772068016903
:102BA000C943490717D4C168C943490713D46FF013
:102BB00004010161022020772068806910F4407FC1
:102BC000204602D0FFF7CAFF04E000F0C3F8204619
:102BD00000F070F9257720680169C943090716D408
:102BE000C168C943090712D46FF0080101610420CC
:102BF00020772068C0698007204602D0FFF7AEFF2B
:102C000004E000F0A7F8204600F054F9257720688A
:102C10000169C943C90617D4C168C943C90613D499
:102C20006FF010010161082020772068C06910F45E
:102C3000407F204602D0FFF791FF04E000F08AF8C1
:102C4000204600F037F9257720680169C943C90794
:102C500008D1C168C943C90704D1891E0161204652
:102C600000F0DCF920680169C943090609D4C1688C
:102C7000C943090605D46FF0800101612046FFF7C2
:102C800051FE20680169C943490609D4C168C94396
:102C9000490605D46FF040010161204600F0C8F9F3
:102CA00020680169C94389060BD4C168C9438906F4
:102CB00007D46FF0200101612046BDE87040FFF7A6
:102CC00032BE70BD00B585B0002100910191029126
:102CD000039102681A480221B2F1804F1ED0194BAD
:102CE0009A4219D1826942F008028261806900F03B
:102CF000080004901020CDE90001032003906946EC
:102D00001148FEF745FF1148416821F4406141F048
:102D1000E06141F40061416005B000BD826942F0AC
:102D2000040282618069039100F0040004900F2086
:102D3000CDE9000169460648FEF72AFFECE70000EE
:102D40000010024000040040000C0140000001405F
:102D500000080140704770B5044690F83C0000261A
:102D60000D4601280FD0012084F83C006AB1042AE6
:102D70001DD0082A2FD00C2A3FD00126002084F82D
:102D80003C00304670BD022070BD206801F0BCF9E7
:102D90002068816941F0080181612068816921F022
:102DA00004018161206881692A69114311E020686A
:102DB00001F0D2F92068816941F4006181612068E5
:102DC000816921F480618161206881692A6941EA11
:102DD00002218161D2E7206801F0EAF92068C16927
:102DE00041F00801C1612068C16921F00401C1619D
:102DF0002068C1692A69114311E0206801F004FAD2
:102E00002068C16941F40061C1612068C16921F491
:102E10008061C1612068C1692A6941EA0221C161FA
:102E2000ACE710B5040003D094F83D0010B107E002
:102E3000012010BD002084F83C00204600F01EF860
:102E4000022084F83D00211D206801F007F90120CF
:102E500084F8460084F83E0084F83F0084F840007F
:102E600084F8410084F8420084F8430084F8440068
:102E700084F8450084F83D00002010BD08B50068C6
:102E8000B0F1804F12D10A48C16941F00101C1611E
:102E9000C069002200F00100009005211C20FFF70E
:102EA00083FABDE808401C20FFF770BA08BD000097
:102EB000001002407047000010B50446022249B1DC
:102EC00004290ED0082913D094F84100012816D007
:102ED000012010BD94F83E000128F9D184F83E206D
:102EE0000FE094F83F000128F2D184F83F2008E079
:102EF00094F840000128EBD184F8402001E084F8E8
:102F000041200122206801F0DFF80F492068884243
:102F100003D1426C42F4004242642068884208D0E7
:102F2000B0F1804F05D00949884202D00849884253
:102F300004D1816801F00701062903D0016841F03E
:102F400001010160002010BD002C01400004004080
:102F50000008004030B500250446022249B104298A
:102F600012D008293ED094F84100012845D0012014
:102F700030BD94F83E000128F9D184F83E20206845
:102F8000C26842F0020209E094F83F000128EED145
:102F900084F83F202068C26842F00402C260012227
:102FA000206801F091F81A492068884203D1426CE8
:102FB00042F4004242642068884208D0B0F1804F59
:102FC00005D01449884202D01349884204D181684F
:102FD00001F00701062903D0016841F001010160F9
:102FE000284630BD94F840000128C0D184F8402024
:102FF0002068C26842F00802D0E784F841200C291A
:1030000001D00125ECE72068C26842F01002C5E754
:10301000002C014000040040000800400068034903
:10302000884201D1FFF728B970470000000800402E
:103030007047704770470000F8B50168044608689B
:10304000CA684B6910F00F0F4FF0000559D003F01C
:10305000010602F49077374365D0C10705D0D1054A
:1030600003D5616C41F001016164410705D5D907C1
:1030700003D0616C41F002016164810705D5D90775
:1030800003D0616C41F004016164010707D502F0CF
:103090002001314303D0616C41F008016164616C2F
:1030A00000293AD0800604D5900602D5204601F0CA
:1030B0001FF920684069616CC0F38010090700D4D3
:1030C00060B3204601F0EDF820684069400621D544
:1030D0002068143050E8001F21F0400140E8001241
:1030E000002AF5D1E06BA8B16D494163E06BFEF7B2
:1030F000F1FC002811D0E06B416B01B0BDE8F0405D
:10310000084783060FD593060DD52046BDE8F84045
:1031100001F0EEB82046FFF78DFFF8BD2046FFF71F
:1031200089FF6564F8BD266B2023012E7CD1C6067D
:103130007AD5D60678D508684868009048694FF077
:103140000206400640D5E16B086840680004000CA8
:10315000E8D0A28D8242E5D9E085886920282DD06B
:1031600020680C3050E8001F21F4807140E8001204
:10317000002AF5D12068143050E8001F21F0010129
:1031800040E80012002AF5D12068143050E8001FF2
:1031900021F0400140E80012002AF5D184F84230C5
:1031A000256320680C3050E8001F21F0100140E832
:1031B0000012002AF5D1E06BFEF768FC6663A08D73
:1031C000E18D401A81B22AE0A08DE18D401A81B2D2
:1031D000E08D0028A6D00029A4D022680C3252E845
:1031E000000F20F4907042E80007002FF5D120680E
:1031F000143050E8002F22F0010240E80027002F91
:10320000F5D184F84230256320680C3050E8002F57
:1032100022F0100240E80023002BF5D1666320461F
:10322000FFF707FFF8BDFFE705062BD5150629D5E3
:1032300094F841002128F5D1A068B0F5805F01D154
:103240002069B0B1206A411C216221680078486081
:10325000E08C401E0004000CE084E3D12068C168CB
:1032600021F08001C1602068C16841F04001C16067
:10327000D8E7206A0088C0F308004860206A801CF4
:103280002062E5E74006CDD55006CBD5CA6820467A
:1032900022F04002CA6084F8413000F044F8C1E7EF
:1032A0009342000800B585B0002100910191029180
:1032B000039100681749884229D11748816941F470
:1032C00080418161816901F480410491816941F00B
:1032D000080181618069694600F00800049040207F
:1032E000009012200190032003900C48FEF750FC40
:1032F0000B48416841F0E06141F004014160002267
:1033000005212520FFF750F82520FFF73FF805B0ED
:1033100000BD00000038014000100240000C0140D8
:103320000000014070477047FEE701684A69D243D8
:1033300052050FD46FF480624A61002140F8301FBB
:10334000202242738173026942F004020261017318
:103350000120704700207047F8B50446C06A1E4639
:103360000D461746082807D0012805D010F5803FE4
:1033700002D0206B122804D12068016841F48071CA
:103380000160134600224FF001112046009600F024
:103390005DF840B120680068C00502D54FF40070A8
:1033A00020640320F8BD2069B0F5804F0ED00620C0
:1033B000216800EAD51040F0F000086133463A4633
:1033C0000B49204600F08AF878B902E005F0FE00CB
:1033D00000E0E8B221680861054933463A46891F92
:1033E000204600F07BF80028DCD00120F8BD00006A
:1033F0000800010070B516460D4604461EE0204642
:10340000FFF793FF08B1012070BD681C16D0FEF7CE
:10341000B5FC801BA84200D885B920684069C0432C
:1034200040070BD5002044F8300F20216173A073B2
:10343000216941F0200121612073E4E7206840699F
:10344000C0434007DBD4002070BD00002DE9F047E9
:10345000984617460D460446C1F30746DDF820900E
:103460002AE000BFB8F1FF3F26D0FEF787FCA0EBB3
:103470000901414502D8B8F1000F1DD12068012E85
:1034800016D0806925EA00000004000C12D000204C
:10349000B84211D1002044F8300F20216173A0738D
:1034A000216941F02001216120730120BDE8F087EE
:1034B0004069E7E70120EBE72068012E0AD0806928
:1034C00025EA00000004000C06D00020B842C9D054
:1034D0000020EBE74069F3E70120F7E72DE9F0472B
:1034E000984616460D4604464FF000094FF0200A54
:1034F000C1F3074723E020684069C043400515D465
:103500002068016841F40071016021686FF48060F7
:103510004861C4F8309084F83DA084F83E90216C56
:1035200041F00401216484F83C9021E0701C06D035
:10353000FEF724FCA0EB0800B04203D816B1012F1F
:103540001FD021E02068012F15D0806925EA0000F6
:103550000004000C18D000BF44F8309F84F80DA080
:1035600084F80E90216941F02001216184F80C90CB
:103570000120BDE8F087406925EA00000004000C46
:10358000EAD12068406901E02068806925EA0000EE
:103590000004000CAFD1ECE770B516460D460446AA
:1035A0001EE02046FFF7C1FE08B1012070BD681C77
:1035B00016D0FEF7E3FB801BA84200D885B920682F
:1035C0004069C04300060BD5002044F8300F20218D
:1035D0006173A073216941F0200121612073E4E748
:1035E00020684069C0430006DBD4002070BD0000A5
:1035F0000F4810B50D4901600221416000214FF4D0
:1036000060228160C0E903124FF4801242610176AA
:1036100041768176C17601774177FEF73EF9002841
:1036200003D0BDE81040FDF7BABF10BD00640040F4
:103630006805002010B5A8B014222C496846FCF794
:1036400061FF0021684601F027F9294C274914221F
:103650006060143105A8FCF755FF002105A801F0B2
:103660001BF92249A060142228310AA8FCF74AFF5E
:1036700000210AA801F010F91C49E06014223C3135
:103680000FA8FCF73FFF00210FA801F005F917492B
:1036900020611422503114A8FCF734FF002114A833
:1036A00001F0FAF8114960611422643119A8FCF79D
:1036B00029FF002119A801F0EFF80C49A06114229C
:1036C00078311EA8FCF71EFF00211EA801F0E4F8C7
:1036D0000649E06114228C3123A8FCF713FF002176
:1036E00023A801F0D9F8206228B010BDF06B0008C3
:1036F0004000002070B586B0002525480095019552
:1037000002950395816941F010018161816901F0A1
:1037100010010491816941F020018161816901F00A
:1037200020010491816941F004018161816901F006
:1037300004010491816941F00801816180690122DD
:1037400000F00800134E5403049021463046FEF763
:103750000FFB009401240220CDE902406946019448
:103760003046FEF715FA4FF47040CDE90005694682
:1037700002940948FEF70CFA4FF44070CDE90005B9
:10378000694602940548FEF703FA06B070BD0000D2
:103790000010024000100140000C014000080140F0
:1037A0000D4810B50B4901600C49416000214FF4F0
:1037B00080428160C0E9031241618161C16101629F
:1037C000FEF71AFB002803D0BDE81040FDF7E7BE66
:1037D00010BD00000058004090050020801A06002F
:1037E00010B58AB0002407941C2168460894FCF7A1
:1037F000C3FE22484FF0804101601521C0E9011449
:103800004FF6AD71C0E903148461FFF70AFB08B1FC
:10381000FDF7C5FE079407A918480894FFF784F838
:1038200008B1FDF7BCFE6020CDE90004029400223F
:10383000694612480494FFF78EFA08B1FDF7AFFE0F
:10384000042269460D48FFF786FA08B1FDF7A7FE86
:10385000082269460948FFF77EFA08B1FDF79FFE86
:103860000C2269460548FFF776FA08B1FDF797FE86
:103870000248FFF727FA0AB010BD0000E405002057
:1038800010B58EB000240794089409940A940B9400
:103890001C2168460C94FCF76FFE1F481D4901600F
:1038A0000D21C0E90114FF21C0E903148461FFF771
:1038B0006FF808B1FDF773FE4FF48050079007A929
:1038C0001548FFF7DDF808B1FDF769FE1248FFF76C
:1038D000A8FA08B1FDF763FE10200B9080200C9031
:1038E0000BA90D48FFF720F808B1FDF758FE60203E
:1038F00000907F20CDE90104002269460648049427
:10390000FFF729FA08B1FDF74AFE0348FFF7DAF995
:103910000EB010BD000400402C0600200C4810B56D
:103920000A4901604FF4E1314160002181600C22BD
:10393000C160C0E904128161C161FEF725FA002867
:1039400003D0BDE81040FDF72ABE10BD003801408D
:1039500074060020FEE7FEE7012000F091FFFBE780
:10396000364FDFF8DC80374C374E384D4FF07C59FE
:103970002068C00408D400F0D1FD02E00A2000F065
:103980007FFF2068C004F9D5206880040AD4387805
:1039900040B100F0B9FD02E00A2000F071FF20689C
:1039A0008004F9D5206840040FD4387868B1B8F89D
:1039B00000100A2906D2491CA8F8001002E00A20CB
:1039C00000F05EFF20684004F9D5206800040ED4A2
:1039D000387860B1B8F8001031B1491EA8F800106D
:1039E00002E00A2000F04CFF20680004F9D52868A6
:1039F000C0050ED416493068884207DA494601F0FE
:103A0000D9FD306002E00A2000F03AFF2868C005C6
:103A1000F9D5286880050DD430684946884206DB10
:103A200001F0C0FF306002E00A2000F029FF2868A2
:103A30008005F9D5642000F023FF99E727000020D6
:103A40002A000020080C014038000020080801402E
:103A50000000A042044C0025207800B125700A2007
:103A600000F00EFFF8E7000026000020012000F023
:103A700007FFFBE70B4E0C4C00274FF001084FF4FB
:103A80007A75307850B184F80080284600F0F8FE4E
:103A90002770284600F0F4FE00F0F6FD012000F04B
:103AA000EFFEEEE72700002040000020294E2A4CC0
:103AB0002A4F2B4DDFF8AC800021084600F034F986
:103AC0003078D8B1606801F049FD0B46024626A166
:103AD0002948FCF7D7FB01222849274800F02EFA95
:103AE0001221002000F020F93878002828680CD036
:103AF00001F034FD0B46024621A10BE0206801F0E5
:103B00002DFD0B46024622A1E2E701F027FD0B4600
:103B1000024623A11848FCF7B5FB012217491648B5
:103B200000F00CFA2421002000F0FEF8B8F8002084
:103B30001FA11148FCF7A6FB012210490E4800F016
:103B4000FDF900F00FFA7D2000F09AFE012000F050
:103B500097FEB1E740000020100000202800002060
:103B6000380000202A000020543220202025342E46
:103B7000316620432000000040050020180000208E
:103B8000545520412025342E31662043200000006A
:103B9000543120202025342E31662043200000009F
:103BA0005455204D2025342E31662043200000003E
:103BB00046616E312020202534640000012000F091
:103BC0005FFEFBE7194FDFF868801A4E1A4D1B4C59
:103BD000387838B330882988884208D00A2814D029
:103BE00000EBC00101EB0012C8F800202880144847
:103BF0000078B8B1134814494068096801F0A1FE83
:103C0000207804D250B1401E04E0FF22ECE7B42833
:103C100004D2401CC0B2207001F08AF940F6B830DE
:103C200000F02EFE642000F02BFED1E727000020DC
:103C3000340400402A000020340000203C00002012
:103C400028000020100000203800002010B50020BF
:103C500000F05EF8BDE8104000F084B92DE9FF4F98
:103C600083468946D81DC11700EB517000271D46B9
:103C70004FEAE00A3E46DDF8348024E000241AE0F2
:103C8000600702D07806070E08E0E01704EB5071D9
:103C9000029800EBE10106FB0A100778380608D508
:103CA0000E981FFA89F1C2B20BEB040080B200F04B
:103CB0000FF8641C24B2AC42E2DB761C09F101006F
:103CC00036B20FFA80F94645D8DBBDE8FF8F000019
:103CD00070B5802813D2402911D20B4B012401F07A
:103CE00007051E79AC40094BC90800EBC1100EB1A5
:103CF00032B101E0012A03D0195CA143195470BD0F
:103D0000195C2143FAE70000200000202401002074
:103D100028B1FF224FF480610248FCF725BC002245
:103D2000F8E7000024010020014A1080518070470C
:103D30002000002010B501F009F944F620630122AB
:103D400078215448FEF71CF908B1002010BD40F658
:103D5000C210401EFDD1AE220021782001F0FCF8F7
:103D600020220021782001F0F7F81022002178208D
:103D700001F0F2F8B0220021782001F0EDF8C8221D
:103D80000021782001F0E8F800221146782001F0A7
:103D9000E3F810220021782001F0DEF84022002113
:103DA000782001F0D9F881220021782001F0D4F8A0
:103DB000FF220021782001F0CFF8A12200217820F5
:103DC00001F0CAF8A6220021782001F0C5F8A82247
:103DD0000021782001F0C0F83F220021782001F076
:103DE000BBF8A4220021782001F0B6F8D3220021EC
:103DF000782001F0B1F800221146782001F0ACF8EB
:103E0000D5220021782001F0A7F8F02200217820A7
:103E100001F0A2F8D9220021782001F09DF8222299
:103E20000021782001F098F8DA220021782001F0B2
:103E300093F812220021782001F08EF8DB22002175
:103E4000782001F089F820220021782001F084F800
:103E50008D220021782001F07FF8142200217820A3
:103E600001F07AF8AF220021782001F075F82E22B7
:103E70000021782001F070F80020FFF749FF00F0E2
:103E800071F80548002101804180012141710846F7
:103E900010BD000090050020200000202DE9F04713
:103EA000814625480D46924601882A78114480298A
:103EB00005D28046408869780844402802D3002013
:103EC000BDE8F08700262AE0A9F1200101FB00608F
:103ED0006A68002432F810701DE000BF07FA04F091
:103EE000000409D5B8F80210B8F8000031442044A5
:103EF00089B280B252460BE0BAF1000F1AD000220C
:103F0000B8F80210B8F800003144204489B280B2F9
:103F1000FFF7DEFE641C2878A042DFD8761C6878A4
:103F2000B042D1D8B8F800102A7848461144A8F811
:103F30000010C5E70122E3E72000002070B5154618
:103F40000E46044609E02A463146FFF7A7FF2178CE
:103F5000884201D0C8B270BD641C20780028F2D11C
:103F6000C0B270BD70B5104D002400BF04F1B000A8
:103F7000C2B20021782000F0EFFF00221146782025
:103F800000F0EAFF10220021782000F0E5FF05EBA9
:103F9000C41280234021782000F0EEFF641CE4B2BC
:103FA000082CE3D370BD00002401002010B5502080
:103FB00080F31188BFF34F8FBFF36F8F01F0ECF9DF
:103FC00018B104494FF080500860002080F3118838
:103FD00010BD000004ED00E030B58FB02821684628
:103FE000FCF7CAFA14210AA8FCF7C6FA0121080452
:103FF000CDE900100024029402250491CDE9075078
:104000004FF4E01009906846FEF7FCFA08B172B66A
:10401000FEE70F20CDE90A054FF48060CDE90C40A2
:1040200002210AA80E94FEF7F1F9002801D072B619
:10403000FEE70FB030BD70470148FEF790BD0000AD
:10404000E40500200148FEF78ABD00002C06002090
:104050000148FEF784BD0000BC060020F0B50268F0
:10406000164B174C174D4FF08047984205D0B84279
:1040700003D0A04201D0A84203D122F070064A68C2
:104080003243984205D0B84203D0A04201D0A842A2
:1040900003D122F44074CA6822434C6922F08002A2
:1040A000224302608A68C2620A688262984201D131
:1040B0000969016301214161F0BD0000002C01404C
:1040C000000400400008004010B501F01F0301216A
:1040D000046A99408C430462016A9A401143016268
:1040E00010BD10B5846842EA032224F47F440A43D9
:1040F0002243826010BD826822F070020A4342F0BF
:10410000070181607047000030B5036A026A22F03F
:10411000010202624268846924F073050C682C4332
:1041200023F002058B682B430A4DA8420BD123F0E4
:104130000805CB6822F440722B434D6923F0040339
:1041400015438A692A434260846149684163036276
:1041500030BD0000002C014030B5026A036A23F034
:1041600010030362436884690D6824F4E64444EA5A
:1041700005248D6822F0200242EA05120B4DA84268
:104180000ED1CD6822F0800242EA05124D6923F477
:10419000406343EA85038D6922F0400243EA8503C8
:1041A0004360846149688163026230BD002C014034
:1041B00030B5036A026A22F4807202624268C469FE
:1041C00023F4007324F073050C682C438D6843EAD4
:1041D00005230C4DA8420ED1CD6823F4006343EAB9
:1041E00005234D6922F4405242EA05128D6923F4F9
:1041F000806342EA05124260C4614968C163036298
:1042000030BD0000002C014030B5046A026A22F47F
:10421000805202624268C3690D6823F4E64343EAB0
:1042200005238D6824F4005444EA0534064DA84261
:1042300004D14D6922F4804242EA85124260C36192
:1042400049680164046230BD002C014010B5036A66
:10425000046A24F001040462846924F0F00444EA4E
:10426000021423F00A020A438461026210BD10B5F1
:10427000036A046A24F010040462846923F0A00332
:1042800024F4704444EA023243EA0111826101627B
:1042900010BD10B5406A0021C185C184FEF7CAFE79
:1042A00010BD01680C3151E8002F22F4907241E8F2
:1042B0000023002BF5D10168143151E8002F22F0C2
:1042C000010241E80023002BF5D1016B012909D13E
:1042D00001680C3151E8002F22F0100241E8002360
:1042E000002BF5D1202180F8421000210163704796
:1042F00008B590F84210222901D0022008BD82683A
:104300004FF480539A4201D1016921B1816A9A42E6
:104310001BD04AB10AE00268816A5268C2F30802FF
:104320000A80816A891C08E0026972B102685268D9
:1043300002F07F020A70816A491C8162C18D491EA8
:104340000904090CC18503D01BE002685268F1E73B
:104350000168CA6822F02002CA600168CA6822F4B3
:104360008072CA6001684A6922F001024A61202114
:1043700080F8421000214163026B012A03D0FEF74E
:10438000D1FF002008BD016301680C3151E8002F06
:1043900022F0100241E80023002BF5D101680A68E1
:1043A000D20602D50A6849680091818DFEF741FE68
:1043B000E7E7000070B5044600680169E26821F48F
:1043C0004051114301612169A068084361690843B4
:1043D0002168CA6841F20C639A430243CA602068AC
:1043E0004169A26921F44071114341611E4920686D
:1043F000884202D1FEF7D0F801E0FEF7BDF800EBED
:10440000C00101EB0012606864218000B2FBF0F390
:10441000B3FBF1F36FF018067343B2FBF0F5B2FB98
:10442000F0F605EB8305322303EB0515B5FBF1F53B
:10443000B6FBF1F605F0F00505EB0615B2FBF0F65C
:10444000B2FBF0F0B0FBF1F06FF01802504306EB56
:10445000800003EB0010B0FBF1F0216800F00F00CA
:104460002844886070BD00000038014010B500F09D
:104470008DFABDE810400148FEF7DEBD740600204D
:104480000148FDF70CB9000068050020FEE749006F
:1044900050EAC12018BF04204A0D18BF40F00100A7
:1044A00040F2FF72B2EB515F08BF40F002000128FA
:1044B00008BF052070470907090E002804DB00F13A
:1044C000E02080F80014704700F00F0000F1E020B9
:1044D00080F8141D704730380A2801D20120704737
:1044E0000020704730B502460020FF240346D50760
:1044F00001D00C7000E00B70401C5208C0B2491C87
:104500000828F4D3084630BD0348817811B1002152
:10451000817070470121FBE726000020064807490B
:1045200042781AB1002242700A607047012242703C
:104530008088086070470000260000203404004096
:1045400070470020704700002DE9F04387B000F06D
:104550007AFADFF8CC800027324DF0284CD0324870
:1045600000F082FA10F0FF00687006D0DFF8B89013
:104570003846A9F12409AF603BE04046C5E9010790
:1045800000BFA968491CA9608142F9D3F6E7264912
:1045900001EBC004204600F0B0F9E1790646B142D3
:1045A00001D122A000E023A0E860A868C9F80000BB
:1045B000E0780DF1080EE3796278A1788EE80F00BB
:1045C00021796079CDE90001A37922781CA109F154
:1045D0000400FBF757FEE079B04207D0A968C9F89C
:1045E000001021A109F10400FBF74CFEA868401C53
:1045F000A86069788842CAD3C5E90187404600BFF0
:10460000A968491CA9608142F9D308A1E868FBF7B1
:10461000DBFF002801D04FF0FF3007B0BDE8F0838A
:1046200040420F00000000200801002043524320B8
:104630004F4B0000435243204552524F522100003D
:10464000534E3A20253032582F25303258253032FB
:1046500058253032582530325825303258253032DE
:10466000582F2530325800000A2063616E277420CD
:104670007265616420636175736520434E432065F4
:1046800072726F72000000002DE9F843184C002090
:10469000184EA51CDFF8608004F11007A06022E02E
:1046A00016F83010E1B1102901D0282918D106EBF5
:1046B000C00101220F4800F001FC0090BDF800008D
:1046C000608095F90010687801EB810100EB4100F2
:1046D00001F0A0F8414600F0DBFFA16847F8210097
:1046E000A068401CA06061788842D9D3BDE8F883F7
:1046F0000000002008010020000020412DE9F05FAB
:104700000025894607464FF0FF3B2E4600F09BF9F7
:10471000F02857D0F02000F0D5F900BF4FEAD508B7
:1047200009EB080AFF2000F0B7F900F0F3F800F0F9
:1047300084F90446FF2000F0AFF900F0EBF800F038
:104740007CF9844201D1012C03D0844205D0ACB95C
:1047500036E04FF0FF30BDE8F09F3869A84202D143
:104760004FF001040AE02ADB07EB080005F007011F
:10477000007D20FA01F010F0010420D09AF800002A
:1047800005F007020121914008438AF80000BCB1FE
:104790005FF0FF0000F080F96D1CEDB2402DBDD33D
:1047A000C7F810B019F80600B919761CF6B20875EA
:1047B000072EF7D33869002804DD0120CBE7AB468C
:1047C0000020E7E70020C6E71CB5FDF75DFDFFF719
:1047D00003FCFEF78FFFFFF753F8FEF7E1FFFEF74C
:1047E00007FFFEF7FDFFFFF799F8FFF7ADFE1D4944
:1047F000002008604FF0804041F64C5141638163D6
:10480000C163016400211848FEF756FB00211748D8
:10481000FEF7A0FB04211548FEF79CFB0821134876
:10482000FEF798FB0C211148FEF794FBFFF782FA84
:1048300001214020CDE90001002180230C4A0846D7
:10484000FFF70CFAFFF78EFB4FF47A70FDF78EF945
:10485000FFF7FCF9FFF786FBFEF7ECFE00F017F818
:10486000FEE70000340400402C060020E405002090
:10487000925A000801460020842900D0C81C7047C5
:1048800010B500B9012000F069FC002010BD10B582
:1048900000F08AFC002010BD3EB504460D46B0F97C
:1048A0000800FFF7E7FF02A9CDE90001208A2B46A7
:1048B00082B2D4E9001000F043FD012801D00020AD
:1048C0003EBD02983EBD70B5064600221046B45C5F
:1048D000002380EA040515F0010F4FEA50004FEA6B
:1048E000540401D080F08C005B1CDBB2082BF0D3A9
:1048F000521CD2B28A42EAD370BD0721FFF7E3BF50
:1049000010B5084600F033F8BDE81040442000F030
:10491000D9B8000010B500210120074B4FF47A727E
:1049200088401C78204202D0521E92B2F9D203482D
:1049300030F8110010BD000000000020D800002059
:1049400010B500224FEA020300EBC20400216354B9
:10495000491C0829FBDB521C022AF5DB0021421806
:10496000491C13750829FADB4021016110BD70B59F
:104970000546002400F067F8552000F0A3F8285DF4
:1049800000F0A0F8641C082CF9DB70BD0C48002175
:104990000068800613D50A480C38026892060ED5C6
:1049A00002689206FCD54068064AC0F3080022F867
:1049B0001100054801228A40017891430170704737
:1049C0000C380140D8000020000000202DE9F047FD
:1049D0000846097800241546102904D0282902D059
:1049E0001046BDE8F0874827FFF7C1FFBE2000F062
:1049F00069F8A7F10806F01706EB50704FEAE008D7
:104A00004FF00109A8EBD400C6B2FF2000F044F833
:104A1000FFF780FF00F011F80128A95D04F00702FC
:104A200009FA02F007D08143641CA4B2A955BC4224
:104A3000E8D32846D5E70143F6E7FF2801D0002058
:104A400070470120704710B54FF4165000F0B0FACF
:104A5000F02000F021F8FFF75DFF04464FF4E1304D
:104A600000F0A6FA204610BD70B505460024FFF7F9
:104A700067FF00BF05EBC4012846FFF73FFE002893
:104A800002DA4FF0FF3070BD04F1010401D0022CB6
:104A9000F0DB204670BD000007490A7842F00102B1
:104AA0000A700649C0F308004860054800680168BC
:104AB000C9434906FBD4704700000020003801407C
:104AC000740600201CB56946FFF70CFD00236C46F8
:104AD000E05CFFF7E1FF5B1C082BF9DB1CBD00006D
:104AE0002DE9F041184C0F46054626692068001D47
:104AF00000F07AFA38B9206890F82C10012088402C
:104B0000616981436161681C07D137B12168BDE8E3
:104B1000F0410E48091D00F0A1BA20683544B542A5
:104B20004560216805D2A068BDE8F041091D00F08C
:104B30007DBA6068091D00F079FAE06A854200D20A
:104B4000E562BDE8F081000074000020CC07002081
:104B50002DE9F041054600F08DFA2C4CE068401C30
:104B6000E06020682A4F10B1A06920B329E02560D9
:104B7000E068012825D1002606EB860007EB8000BF
:104B800000F046FA761C072EF6D321488C3000F050
:104B90003FFA1F48A03000F03BFA1D48B43000F047
:104BA00037FA1B48C83000F033FA19488C3060607F
:104BB0001430A06005E02068E96AC06A884200D825
:104BC0002560A06A401CA0626864E96A01206269ED
:104BD00088401043606101EB810007EB8000291DD4
:104BE00000F03CFA00F066FAA06900280CD02068BA
:104BF000E96AC06A884207D206494FF080500860CF
:104C0000BFF34F8FBFF36F8FBDE8F08174000020BA
:104C10000407002004ED00E010484FF42051420743
:104C200006D0C01D0D4920F00700411AC1F52051E2
:104C30000B4A00230144C2E900030839103A21F06D
:104C4000070111604B600B600B1AC0E90013936001
:104C50004FF000405360D06070470000E007002034
:104C6000C4000020074C084D4FF0805620680128F2
:104C700004D92E60BFF34F8FBFF36F8F00F0C7F9D9
:104C8000F4E700000407002004ED00E02DE9F04700
:104C90000E46DDE909841746824691009946089D33
:104CA000A522206BFBF760FC6FF00301206B01EB8A
:104CB0008701084420F00707780707D0502080F3C9
:104CC0001188BFF34F8FBFF36F8FFEE72218315C5F
:104CD00082F83410315C11B1401C1028F6D3002644
:104CE00084F84360072D00D30625E562C4E9135616
:104CF000201D00F098F904F1180000F094F92461E7
:104D0000C5F107006462A0616665A66584F85C6011
:104D10004A465146384600F0BFF82060B8F1000F0F
:104D200001D0C8F80040BDE8F087000030B5114957
:104D300000E011460A688242FBD34B685C1884424B
:104D400003D1406818444860084643681C189442E0
:104D500009D1084C103C2468A24209D052681A4478
:104D600042600A6812680260814200D0086030BD6B
:104D70000460F9E7C400002006484168096829B1C9
:104D80004168C968C9684968C16270474FF0FF311E
:104D9000FAE700007400002008484068401C4FF00B
:104DA000500080F3118804D0BFF34F8FBFF36F8F93
:104DB000FEE7BFF34F8FBFF36F8FFEE7CC000020FD
:104DC0002DE9F0410546002700F024FA314E306805
:104DD00008B9FFF721FFF06805424BD1C5B308358C
:104DE00068070ED005F00700C0F108000544680709
:104DF00007D0502080F31188BFF34F8FBFF36F8F20
:104E0000FEE72DB37068854234D822481030014641
:104E10000C6801E020460C466168A94202D2216874
:104E20000029F7D131688C4224D0076821680160DD
:104E300060680837411B10290FD96019420708D054
:104E4000502080F31188BFF34F8FBFF36F8FFEE7C1
:104E500010E041606560FFF769FF61687068401AA3
:104E60007060B268904200D2B060F06801430020E8
:104E7000C4E9000100F0F4FA780707D0502080F36D
:104E80001188BFF34F8FBFF36F8FFEE73846BDE841
:104E9000F0810000B400002010B5031F4FF08074B3
:104EA0001C601B1F21F001011960191F024B0B60D0
:104EB000143940380A6010BD994D00087FB50023B1
:104EC0008DF8003006468DF80130087814460D46FE
:104ED000102815D0282827D101AA3046FFF776FDE3
:104EE0009DF80B0001019DF80C0041EA101100F043
:104EF0000F0000EB80008DF80010C0F3DB000CE029
:104F000001AA3046FFF762FD9DF80C00410800F051
:104F100001008DF8001000EB80008DF801001CB13D
:104F200029463046FFF7ECFCBDF8000004B070BD28
:104F3000B42800D3B420A0EBC00000EB800041F601
:104F40004C5108444FF08041886370470148401E2F
:104F5000FDD1704790D003001CB502238DF80410DA
:104F60000A2100918DF80520014601AA0148FDF7AC
:104F7000BDF81CBD9005002070B5C2B000248DF8AE
:104F8000041001A904E0155D0E19641C7570E4B2EB
:104F90009C42F8D30A2100915B1C01469BB201AAF6
:104FA0000248FDF7A3F842B070BD00009005002054
:104FB00010B50C4C0A49C4E900100020A0600C2177
:104FC000E060C4E90401A061E0612046FCF7DCFE7A
:104FD00000B100BF2068C16841F02001C16010BD70
:104FE0000038014074060020D0E9013201699A605E
:104FF000D0E901235A604A68824201D182684A603E
:10500000002202610868401E086008687047704707
:1050100000F108014FF0FF32C0E90112C1600161E7
:1050200000210160704700210161704730B50B68B5
:105030005A1C02D000F1080202E0026904E0224694
:10504000546825689D42FAD953684B6099608A601C
:10505000516008610168491C016030BD42684A60C6
:1050600093688B6093685960916008610168491C7E
:1050700001607047502080F31188BFF34F8FBFF35A
:105080006F8F0A494868401C486001280CD10848C5
:10509000006810F0FF0F07D0502080F31188BFF395
:1050A0004F8FBFF36F8FFEE770470000CC000020EA
:1050B00004ED00E00849486828B1401E486001D16D
:1050C00080F311887047502080F31188BFF34F8F11
:1050D000BFF36F8FFEE70000CC00002070B5002802
:1050E00027D0144DA0F108046168E868014207D197
:1050F000502080F31188BFF34F8FBFF36F8FFEE70F
:1051000022683AB1502080F31188BFF34F8FBFF36C
:105110006F8FFEE78143616000F07CF8606869682A
:10512000084468602046FFF701FEBDE8704000F0CB
:1051300097B970BDB40000204FF0E020002101615C
:10514000816105494FF47A720968B1FBF2F1491E99
:1051500041610721016170477000002010B5020015
:1051600014D00F48406B38B1502080F31188BFF342
:105170004F8FBFF36F8FFEE700F04CF80021104611
:10518000FFF7AEFC00F06CF9002807D105494FF09D
:1051900080500860BFF34F8FBFF36F8F10BD0000CA
:1051A0007400002004ED00E01CB516480024CDE991
:1051B00000402346402214A1154800F0C1F8012800
:1051C00009D0401C1CD1502080F31188BFF34F8FB1
:1051D000BFF36F8FFEE7502080F31188BFF34F8F2E
:1051E000BFF36F8F07484FF0FF313038C1620121A4
:1051F00081610461FFF7A4F9BDE81C4000F04CB8E0
:105200001CBD0000A400002049444C4500000000E3
:10521000654C00080248416B491C4163704700001F
:105220007400002010B51A4C606B10B10120206290
:1052300010BD00202062FFF784F9E063A26B90426A
:1052400004D92168821A4B6D1A444A65A0636069CB
:105250001049B0FA80F0C0F11F0000EB800051F857
:1052600020206AB101EB800000F108024168496822
:105270004160914201D149684160C868206010BD19
:10528000502080F31188BFF34F8FBFF36F8FFEE77D
:1052900074000020040700201CB5264908780190FE
:1052A000FF20087008788DF800009DF800009DF838
:1052B000002000F0F000904207D0502080F31188C9
:1052C000BFF34F8FBFF36F8FFEE79DF800001A4BBF
:1052D00000F0500018700720986005E09DF800204D
:1052E00052008DF80020401E9DF800201206F5D4D3
:1052F0009860032807D0502080F31188BFF34F8FA8
:10530000BFF36F8FFEE74FF440709860019808700C
:105310000A48016841F470010160016841F0704180
:105320000160FFF709FF00205860FAF751FF0020E5
:105330001CBD000000E400E0CC00002020ED00E0F7
:105340002DE9FF5F8346DDE90E87994616468A46BA
:105350009000FFF735FD05001AD06020FFF730FD03
:10536000040012D025630021CDE90241CDE9008778
:105370004B46324651465846FFF788FC2046FFF719
:10538000E7FB012004B0BDE8F09F2846FFF7A6FE2A
:105390004FF0FF30F6E700002DE9F0412E4C0027DA
:1053A000606B40B1E069401CE061206A00B10127F8
:1053B0003846BDE8F0812669761C266113D1606805
:1053C000006838B1502080F31188BFF34F8FBFF3CE
:1053D0006F8FFEE76068A1686160A060606A401C32
:1053E0006062FFF7C9FCE06ADFF87080864209D38B
:1053F0006068006880B16068C068C5686868864297
:105400000DD2E0622068C06A00EB800158F82100EC
:105410000128CAD90127C8E74FF0FF30F1E7281D5E
:10542000FFF7E2FDA86A18B105F11800FFF7DCFDEF
:10543000E86A0121626981401143616100EB8001EA
:1054400008EB8100291DFFF709FEE86A2168C96A97
:105450008842CDD30127CBE7740000200407002049
:105460002DE9F0472C4D00242746686B38B1FFF733
:1054700001FE686B401E6863686B40B146E05020D7
:1054800080F31188BFF34F8FBFF36F8FFEE7E9689A
:10549000224E0120D1B3A6F1B40980463068E8B1AC
:1054A000F068C46804F11800FFF79EFD201DFFF7A7
:1054B0009BFDE06A6A6908FA00F11143696100EB3B
:1054C000800109EB8100211DFFF7C8FDE06A296812
:1054D000C96A8842E2D3C5F82080DFE70CB1FFF744
:1054E0004BFCEC6944B14646FFF756FF00B12E6213
:1054F000641EF9D10020E861286A38B10849012703
:1055000038070860BFF34F8FBFF36F8FFFF7D2FDEF
:105510003846BDE8F087000074000020B80700207E
:1055200004ED00E010B500290AD00878002807D063
:1055300005487844FBF748F8002801D0002010BD4A
:105540000248784410BD0000C6180000BE180000D4
:105550000808A0F500114FEA3101704743004FEAF7
:10556000D30C4FEA3C0C43401FBF40070CF1605185
:1055700013F0FE4F70471CF0006F03D100200CF0B9
:10558000004170470CF0004343EA507010B540EA08
:10559000CC0000F08BF900BF000000924FEA000140
:1055A000FFF7D6BF4FF000414FF00000A1F50021FA
:1055B0007047000090EA010F48BF81F0004100F100
:1055C000F881421A3CBF801A89184FEAD0524FF036
:1055D0007F4C1CEA410FA2EBD15318BF9CEA026F2B
:1055E00000F03B804FF0004C4CEA00204CEA0121D7
:1055F00021FA03FC10EB0C0C1ED202F1FF325FEA21
:105600001C2040EBC25038BF70471CF07F0F4FEAA0
:10561000400C18BFBCF17F4F38BF7047C3F1200367
:10562000994008BF20F00100BCF17F4F38BF7047A0
:10563000A0F1C04000F080B94FEA3C00000A40EB06
:10564000C25028BF1CF0FF0F4FEA400CE6D018BF35
:10565000BCF17F4F38BF7047EAE79CEA026F05D084
:1056600010EA5C0F08BF00F00040704710B500F072
:105670001DF900BF64FBBE3E401058BFC0F1404062
:10568000491058BFC1F140418142EFF3008070479B
:105690004FF47F0C1CEAD0121EBF1CEAD11392EA11
:1056A0000C0F93EA0C0F00F0858090EA010F48BFC1
:1056B00042F4807240F4000C41F400002CF07F4171
:1056C00020F07F4000B58142A2EB03020FF2081CDC
:1056D000ACEB504EC0F100009EF800E04FEA4E0ED9
:1056E00000FB0EFC38BF49004FEA2C1C02F5FA0201
:1056F0000CFB0EF34FEACE1E4FEA112C4FEAC121EC
:105700000EEB635E42EB22420EFB0CFC4FEA1C5395
:1057100000FB03114FEA112C4FEA01310EFB0CFC88
:105720004FEADC4C00FB0C11C14228BF09184CEBBE
:1057300003335DF804EB10EB410143EBC250B2F5CB
:105740007C0F38BF704729D512F0F00F1CBF00F155
:10575000C04000F0004070470081828384858687C6
:1057600088898B8C8D8E8F919293959697999A9C20
:105770009D9FA0A2A3A5A7A8AAACAEB0B2B3B5B78F
:10578000B9BCBEC0C2C5C7C9CCCED1D4D7D9DCDF65
:10579000E2E6E9ECF0F3F7FAFE0000004FEA400C15
:1057A0000CF1807CBCF17E4F28BF7047B0F1C04047
:1057B00000F0C2B890EA010F0CEAD11348BF42F4DE
:1057C0008072624538BF634507D213F47F0F16D04D
:1057D00080EA010000F00040704710B500F066F864
:1057E000097EFC3E00F005B880EA010000F00040B0
:1057F000704780EA010000F0004000F09DB812F40C
:105800007F0F04BF0248704780EA010000F094B89F
:105810000000C07F10F0004148BF4042B0FA80F362
:1058200010FA03F2C3F19D030BD051EAC35101EB0F
:105830001220530638BF704700F1010008BF20F066
:105840000100704750EA010C00F113801CF5000FB5
:1058500058BFBCF5000F01D48842704707D710F538
:10586000000F58BF11F5000F15D4884270478942C8
:1058700070471CF5000F04D5BCF5000FF7D5814229
:1058800070474FF0807C1CEB400F38BF1CEB410F82
:1058900001D28142704710B500F008F89224490007
:1058A0004FF000504FF08051FFF7E6BE0EF1020EB0
:1058B0002EF0030E5EF8044B244204D44FEA41025A
:1058C000B2F17F4F11D84FEA4003B3F17F4F0CD8AC
:1058D0000ED14FEAD07CB2F17F4F0CEB4C0C0CF1A7
:1058E000020C08BF4CEBD17C04E04FF0080C01E047
:1058F0004FEAD17C0CEB4C0324FA03F404F00704C8
:10590000B4F1040C06D20EEB840CBDE810404CF050
:10591000010C6047DFE80CF0070802024FF000407E
:10592000A0F5800010BD0846420018BFD2F1807279
:1059300088BF00F0004010BDFF2141EAD050C005F3
:10594000704751EA000C00F113801CF5000F58BF9E
:10595000BCF5000F01D48142704707D711F5000F45
:1059600058BF10F5000F15D4814270478942704727
:105970001CF5000F04D5BCF5000FF7D58842704721
:105980004FF0807C1CEB410F38BF1CEB400F01D265
:105990008842704780EA010081EA000180EA010044
:1059A000FFF779BF90EA010F48BF81F000413FF552
:1059B00008AE421A04D882F00042A0EB0200114463
:1059C0004FEAD0524FF07F4C1CEA410FA2EBD1536B
:1059D00018BF9CEA026F4AD04FF0004C4CEA0020FE
:1059E0004CEA012121FA03FCB0EB0C0C0FD412F0AD
:1059F000FE0F36D05FEA4C001DD5001240EBC250BE
:105A000038BF70471CF03F0F18BF70470BE0A2F182
:105A100001025FEA1C2040EBC25038BF70471CF007
:105A20007F0F18BF7047C3F12003994014BF401E79
:105A300020F00100704780084FEA122308BF70472A
:105A4000B0FA80FCA2EB0C02CCF1280C60FA0CF04E
:105A500093EA122F04BF00EBC25070474FEAC370A5
:105A60007047130A5FEADC1008BF7047F6E79CEA4C
:105A7000026F04D010EA5C0F08BF0020704710B519
:105A8000FFF714FF40DFF63E81F000407047FAF761
:105A900010BFFFFFFFFFFFFFFFFFFFFFFFFFFFFF45
:105AA000FFFFFFFFFFFFFFFF8000000FFFFFFFFF73
:105AB000FFFFFFFFFFFFFF80000000000FFFFFFF61
:105AC000FFFFFFFFFFFFF000000F8000007FFFFFE0
:105AD000FFFFFFFFFFFF0001FF0FFFFC0003FFFFC1
