:020000040800F2
:1000000088330020210200086F2200089F2000088A
:100010006D220008C10400080D2700080000000040
:10002000000000000000000000000000890100083E
:10003000C304000800000000CD010008E12500080D
:100040003B0200083B0200083B0200083B0200089C
:100050003B0200083B0200083B0200083B0200088C
:100060003B0200083B0200083B0200083B0200087C
:100070003B0200083B0200083B0200083B0200086C
:100080003B0200083B020008E10300083B020008B5
:10009000012700083B0200083B0200083B02000861
:1000A0003B0200083B0200083B0200083B0200083C
:1000B0003B0200083B020008892600083B020008BA
:1000C0003B0200083B0200083B0200083B0200081C
:1000D0003B0200083B0200083B0200083B0200080C
:1000E0003B0200083B0200083B02000800F002F857
:1000F00000F03AF80AA090E8000C82448344AAF188
:100100000107DA4501D100F02FF8AFF2090EBAE885
:100110000F0013F0010F18BFFB1A43F0010318473B
:100120002039000040390000103A24BF78C878C157
:10013000FAD8520724BF30C830C144BF04680C60ED
:10014000704700000023002400250026103A28BF35
:1001500078C1FBD8520728BF30C148BF0B60704739
:100160001FB51FBD10B510BD00F000F91146FFF717
:10017000F7FF02F00FFC00F01EF903B4FFF7F2FFE7
:1001800003BC00F025F90000224B19680868B0E8AC
:10019000F00F80F30988BFF36F8F4FF0000080F3FA
:1001A00011884EF00D0E70470000000006480068F0
:1001B000006880F3088862B661B6BFF34F8FBFF363
:1001C0006F8F00DF00BF00BF08ED00E0EFF3098094
:1001D000BFF36F8F0F4B1A6820E9F00F106008B55E
:1001E0004FF0500080F31188BFF34F8FBFF36F8F34
:1001F00003F02EF84FF0000080F31188BDE80840AE
:1002000019680868B0E8F00F80F30988BFF36F8FB2
:10021000704700BF60000020EFF3058070470000CA
:100220000948804709480047FEE7FEE7FEE7FEE78A
:10023000FEE7FEE7FEE7FEE7FEE7FEE704480549C6
:10024000054A064B7047000085260008ED000008AF
:10025000882D002088330020882F0020882F002040
:1002600010B5203AC0F00B80B1E81850203AA0E851
:100270001850B1E81850A0E81850BFF4F5AF5FEA85
:10028000027C24BFB1E81850A0E8185044BF18C938
:1002900018C0BDE810405FEA827C24BF51F8043BDF
:1002A00040F8043B08BF7047D20728BF31F8023B33
:1002B00048BF11F8012B28BF20F8023B48BF00F8C7
:1002C000012B704702F0FF0343EA032242EA024295
:1002D00000F02CB84FF0000200B513469446964645
:1002E000203922BFA0E80C50A0E80C50B1F1200149
:1002F000BFF4F7AF090728BFA0E80C5048BF0CC0F7
:100300005DF804EB890028BF40F8042B08BF704754
:1003100048BF20F8022B11F0804F18BF00F8012BC6
:1003200070477047704770474FF000020429C0F0D3
:10033000128010F0030C3FF4CFAFCCF1040CBCF1F1
:10034000020F18BF00F8012BA8BF20F8022BA1EB69
:100350000C01FFF7C1BF5FEAC17C24BF00F8012B8D
:1003600000F8012B48BF00F8012B7047754600F0DC
:100370002BF8AE4605006946534620F00700854637
:1003800018B020B5FFF75AFFBDE820404FF0000637
:100390004FF000074FF000084FF0000B21F007016D
:1003A000AC46ACE8C009ACE8C009ACE8C009ACE8B0
:1003B000C0098D46704710B50446AFF30080204653
:1003C000BDE81040FFF7D9BE00487047282D002037
:1003D00001491820ABBEFEE726000200704700006E
:1003E000014800F056BA0000C400002070B5044671
:1003F00000688168C943C90717D1816821F00101EC
:10040000816001F017F805460AE000BF01F012F81C
:10041000401B022804D920688068C043C00706D06A
:1004200020688068C043C007F0D0002070BDA06A7B
:1004300040F01000A062E06A40F00100E06201209C
:1004400070BD0000F8B5002604460096006881687B
:10045000C943C9072DD0816841F001018160164868
:1004600016490068B0FBF1F000E0401E0090002843
:10047000FBD100F0DFFF054616E000BF00F0DAFF19
:10048000401B022810D920688068C043C0070BD0E9
:10049000A06A40F01000A062E06A40F00100E06253
:1004A00084F824600120F8BD20688068C043C0073C
:1004B000E4D10020F8BD00005C00002040420F00A5
:1004C000FEE77047F8B500250446009590F8240033
:1004D00001280BD0012084F824002046FFF786FF76
:1004E0002046FFF7AFFF060002D050E00220F8BD23
:1004F000A06A20F4885040F00200A062022001F0BF
:100500005DF925490968B1FBF0F0400000E0401EAC
:1005100000900028FBD12068816841F008018160CB
:1005200000F088FF074608E000F084FFC01B0A289F
:1005300003D920688068000715D420688068000708
:10054000F2D42068816841F00401816000F072FFFC
:10055000074612E000F06EFFC01B0A280DD9206884
:100560008068400709D5A06A20F0020040F0100022
:10057000A06284F824500120F8BD206880684007FC
:10058000E8D4A06A20F0020040F00100A06284F8E4
:1005900024503046F8BD00005C000020F8B5002271
:1005A000009290F8244083681646012C1CD0012448
:1005B00080F82440D3B14D680B691F249D4226D892
:1005C0001F055B1BC3F103030D6803EB83039D4011
:1005D000A7F580172F439C40036844F440159C6B9B
:1005E000AC4327439F631EE00220F8BD4B68012BFC
:1005F00005D0826A42F020028262012213E0036881
:100600009C6B0D686FF3150444EAC5340AE05B1B6C
:10061000C3F1030303EB83039C40036844F44015D8
:100620009C6BAC439C6303689C68E443E40706D07E
:100630009C6847F20105AC438D692C439C604B7D5F
:10064000012B08D18B69B3F5E04F08D0826A42F0E4
:100650002002826201220B7D012B06D00CE0036890
:100660005C6844F480645C60F5E74B7DA3B1826A0A
:1006700042F02002826201220B68072405680A2BDF
:1006800010D3EF680A3B03EB43039C40A7438C68FD
:100690009C402743EF600EE003685C6844F480549C
:1006A0005C60E9E72F6903EB43039C40A7438C6838
:1006B0009C4027432F610B68102B01D0112B04D1D4
:1006C00003689C6844F400049C604B68012B10D0C4
:1006D000022B16D0032B03681BD01C6ACD686FF366
:1006E0000B042C431C620B68102B19D0112B17D054
:1006F00037E003685C69CD686FF30B042C435C61E1
:10070000F1E703689C69CD686FF30B042C439C618F
:10071000E9E7DC69CD686FF30B042C43DC61E2E7A9
:10072000124C0368A34217D19C68240219D49C6818
:1007300044F400049C600968102912D10C490D4B47
:100740000968B1FBF3F101EB8101490000E0491EAA
:1007500000910029FBD104E0816A41F0200181620F
:10076000012280F824601046F8BD000000240140FA
:100770005C00002040420F0010B500680A49884222
:1007800010D10121094800F019F802F0CFFF084C00
:100790000849E06102F0DEFF074902F005FF206230
:1007A0000120A07010BD000000240140C400002002
:1007B000000000200000204200F07F450068022970
:1007C00009D0032905D0042901D0C06B7047806C83
:1007D0007047406C7047006C7047000070B504466D
:1007E00090F8240001280DD0012084F82400204630
:1007F000FFF728FE01004FF0000005D084F8240028
:10080000084670BD022070BDA26A42F201039A43FD
:1008100042F48052A2621C4A25681C4B95421FD1AB
:100820001E6816F4702F1BD0A66A46F48016A662C6
:10083000A66AF60500D4E06284F824006FF0040094
:1008400028602068456845F0800545602068446858
:100850006405D5D48468C4F30234072C04D009E0BD
:10086000A66A26F48016E2E7904208D11A6812F4CC
:10087000702F04D0826842F400428260C0E7826830
:1008800042F40212F9E7000000280140042401406C
:10089000704770B50446006806684568A90625D506
:1008A000B10723D5A16AC90603D4A16A41F4007136
:1008B000A1628168C1F34241072910D1217B71B93E
:1008C000416821F020014160A06A20F48070A0629C
:1008D000A06AC00403D4A06A40F00100A0622046D0
:1008E000FFF7D6FF21686FF01200086028062ED5AA
:1008F00070072CD5A06AC00603D4A06A40F400504B
:10090000A06220688168C1F30231072909D04168DB
:10091000490515D48168C1F34241072910D1217BD3
:1009200071B9416821F080014160A06A20F48050D3
:10093000A062A06AC00503D4A06A40F00100A062D2
:100940002046FFF719FF21686FF00C000860680669
:100950000CD5F0070AD0A06A40F48030A06220468F
:1009600000F094F821686FF00100086070BD00008D
:100970002DE9F0414FF0000704003D467ED0A06A0B
:10098000002628B9E66284F82460204600F080F84A
:100990002046FFF72BFDA16AC90600D420B1A06A4A
:1009A00040F01000A06269E0A16A21F4885141F092
:1009B0000201A1626268E169237B0A4347EA4301BD
:1009C0000A43A1684FF48077B94209D0012907D0C2
:1009D0005FF0000194F814C0BCF1010F02D00AE0EE
:1009E0003946F7E7F3B1A36A43F02003A362E36A51
:1009F00043F00103E3622368D3F804C02CF4694C8C
:100A00004CEA010CC3F804C021688B68DFF870C0A1
:100A100003EA0C0313438B60A168B9420BD0012990
:100A200009D00CE0DFF85CC0A3690CEB43330B4347
:100A300043F40061DFE7218A0D05A5F580152168E3
:100A4000CB6A23F470032B43CB62216889680E4B79
:100A50001940914208D1E662A16A21F0020141F0F9
:100A60000101A162BDE8F081A06A20F0020040F01F
:100A70001000A062E06A40F00100E0620120F1E7AE
:100A8000FDF7E1FF00E0FFFFFE0E1FFF70470000D3
:100A900000B585B000210091019102910391006899
:100AA0001249884220D11248816941F40071816164
:100AB000816901F400710491816941F0040181614F
:100AC0008069694600F0040004900420009003202F
:100AD0000190084800F0B8FB00220521122000F028
:100AE0003BFE122000F02AFE05B000BD00240140AC
:100AF000001002400008014090F82020012A07D091
:100B0000022A05D0416A41F48021416201207047E8
:100B1000006842690A43426100207047F0B590F8CE
:100B200020500468A468012D05D0022D03D0416A2D
:100B300041F4802157E014F0406F01D1E5004FD51A
:100B4000C4F301640125A5401D608D684FF4C07396
:100B50009DB1CE6835434E6845EAC605066803EB8D
:100B60000417F5514FF4C275076805EB04150E69BB
:100B70007E51097D012905D009E00E88CD6845EA3E
:100B80004655EBE701684E5946F480764E5111798F
:100B9000D579567941EA056195792D0445EA06250E
:100BA00029434FF4C676056806EB0416A95111785F
:100BB000D57841EA0561957852782D0445EA0222FC
:100BC00011434FF4C475026805EB041551510068D8
:100BD00003EB0411425842F0010242500020F0BDE4
:100BE000416A41F4001141620120F0BD10B590F856
:100BF00020300268012B07D0022B05D0416A41F456
:100C000080214162012010BDD2F8000240F00100B5
:100C1000C2F80002087D00F01F0301209840D2F8BE
:100C20001C328343C2F81C32CB69B3B9D2F80C3200
:100C30008343C2F80C328C894B6864F31F434C69C0
:100C400002EBC404C4F840320C890B6864F31F4300
:100C50004C6902EBC404C4F84432CB69012B16D1B1
:100C6000D2F80C320343C2F80C320C884B6864F3A0
:100C70001F434C6902EBC404C4F840320C89CB68B2
:100C800064F31F434C6902EBC404C4F844328B691B
:100C9000002BD2F804320FD053EA0003C2F804321A
:100CA0000B69002BD2F8143208D00343C2F8143277
:100CB000096A012904D008E08343EFE78343F5E79D
:100CC000D2F81C120143C2F81C12D2F8000220F024
:100CD0000100C2F80002002010BDAFF30080406A9E
:100CE000704770B590F82040012C05D0022C03D03D
:100CF000416A41F4802128E0046809B32469A4070B
:100D000020D04FF4D874056804EB01142D5915F068
:100D10000405956005682D591AD0ED0855600568E1
:100D20002C5904F00204D4604FF4DA74056804EB23
:100D300001142E5906F00F06082E0CD308250DE0DD
:100D4000E468DCE7416A41F400114162012070BDB2
:100D50006D0D1560E3E72D5905F00F051561056868
:100D60002D59C5F30725956105682C59240C54614C
:100D70004FF4DC72046802EB0112A4581C70046882
:100D8000A458240A5C700468A458240C9C7004685D
:100D9000A258120EDA704FF4DE72046802EB0112F0
:100DA000A4581C710468A458240A5C710468A458EF
:100DB000240C9C710468A258120EDA71006829B1E3
:100DC000016941F020010161002070BDC16841F05E
:100DD0002001C160F8E70246002092F820100129A6
:100DE00001D002290CD111688A68520100D5012076
:100DF0008A68120100D5401C8968C90000D5401CD2
:100E000070472DE9F05F0546006800244669D0F878
:100E100004908768D0F80CB0D0F810A0D0F81880F3
:100E2000F10748D0F90714D001218160B80703D534
:100E3000284600F002FA0CE0780702D54FF400646F
:100E400007E0380702D54FF4805402E0284600F04E
:100E5000F3F9F80516D529684FF480708860B80555
:100E600003D5284600F0EBF90CE0780502D544F4F0
:100E7000005407E0380502D544F4804402E02846D7
:100E800000F0DCF9F80316D529684FF4803088604B
:100E9000B80303D5284600F0D4F90CE0780302D556
:100EA00044F4004407E0380302D544F4803402E0FF
:100EB000284600F0C5F9300707D55FEACB6004D5B6
:100EC0002968102044F40074C86070074FF00807C8
:100ED00007D55FEA0B7004D52868C760284600F084
:100EE00065F9B00706D52868C068800702D0284693
:100EF00000F05EF9700607D55FEACA6004D529687C
:100F0000102044F480640861B00607D55FEA0A70D7
:100F100004D528680761284600F05EF9F00606D57A
:100F200028680069800702D0284600F056F9B0030F
:100F300008D55FEAC96005D52968102048602846B1
:100F400000F04CF9F00307D55FEA097004D5286872
:100F50004760284600F076F9300446D55FEA4970CC
:100F600040D5F00504D55FEAC87001D044F0010413
:100F7000B00504D55FEA887001D544F0020470051D
:100F800004D55FEA487001D544F00404300529D542
:100F900018F0700F26D008F07000402815D006DC3D
:100FA000102809D020280AD0302816D10AE050286D
:100FB0000ED0602811D10EE044F008040DE044F09A
:100FC00010040AE044F0200407E044F0400404E088
:100FD00044F0800401E044F480742868816921F0C1
:100FE00070018161296804204860002C05D0686A7E
:100FF000204368622846FFF770FEBDE8F09F70B599
:10100000040003D094F8200010B104E0012070BD6A
:10101000204600F081F82068016841F0010101607C
:1010200000F008FA0546052604E000F003FA401B2C
:101030000A2811D820684068C007F6D020680168E7
:1010400021F00201016000F0F5F905460BE000F027
:10105000F1F9401B0A2806D9606A40F4003060624A
:1010600084F82060D2E7206840688007EFD4207EB3
:101070000128206801683DD021F080010160607E78
:1010800001282068016838D021F040010160A07E6D
:1010900001282068016833D021F020010160E07E42
:1010A0000128206801682ED041F010010160207FE6
:1010B00001282068016829D021F008010160607FC3
:1010C00001282068016824D021F004010160D4E9DE
:1010D00002010843D4E90412114308436168491E20
:1010E00008432168C86100206062012084F8200064
:1010F000002070BD41F08001C0E741F04001C5E72C
:1011000041F02001CAE721F01001CFE741F00801CA
:10111000D4E741F00401D9E710B586B00021009171
:1011200001910291039100681C49884233D11C4807
:10113000C16941F00071C161C16901F000710491A0
:10114000816941F0080181618069164C00F0080056
:1011500004904FF4807000906946204600F074F8C7
:1011600060150090022001900320039069462046FC
:1011700000F06AF80C48416821F4C04141F0E06198
:1011800041F48041416000220521142000F0E4FA7E
:10119000142000F0D3FA06B010BD00000064004037
:1011A00000100240000C01400000014070470000A8
:1011B00010B5074B074A0021FFF793FD002806D121
:1011C00004480068012802D101494839087010BD5F
:1011D00048000020880100207047704770470000D9
:1011E00070B5044690F82000012804D0606A40F4ED
:1011F0000020606218E0022084F820002068016866
:1012000021F00101016000F015F905460EE000BF74
:1012100000F010F9401B0A2808D9606A40F4003039
:101220006062052084F82000012070BD20684068BD
:10123000C007EDD1606270BD70477047704770475E
:1012400070477047704700002DE9F84FDFF8B891FC
:101250000024A9F1040B23460F2709F1040AABF17E
:10126000040EC9E00125A5402A40AA427DD1674E5F
:10127000D1F804C0ACEB0608B44532D014DCBCF1A4
:10128000030F3AD009DCBCF1000F2AD0BCF1010FEA
:101290001CD0BCF1020F31D11DE0BCF1110F17D0F1
:1012A000BCF1120F2AD119E0B8F5881F19D006DC5D
:1012B000B8F5803F15D0B8F5801F1FD111E0B8F503
:1012C000001F0ED0B8F5041F18D10AE0CB6815E056
:1012D000CB681B1D12E0CB6808330FE0CB680C33E2
:1012E0000CE08B682BB1012B4FF0080303D0456154
:1012F00004E0042302E0056100E00023FF2A01D896
:10130000064601E000F104064FEA840501D9A5F183
:101310002005D6F8008007FA05FC28EA0C0803FA35
:1013200005F548EA0508C6F800804D68ED0062D56D
:10133000374DAE6946F00106AE61AD6924F0030693
:1013400005F001050095334D06EB050CDCF808505F
:10135000A607360F07FA06F825EA0805DFF8B88071
:10136000404503D14FF0000817E044E0DFF8AC80BF
:10137000404502D14FF001080FE0DFF8A48040455E
:1013800002D14FF0020808E0DFF89880404502D112
:101390004FF0030801E04FF0040808FA06F848EAA5
:1013A0000508CCF808804D68D9F80060ED024D467C
:1013B00001D5164300E096432E604D68DAF80060D0
:1013C000AD02554601D5164300E096432E604D68A8
:1013D000DBF80060AD035D4601D5164300E096439F
:1013E0002E604D68DEF80060ED03754601D51643AA
:1013F00000E096432E60641C0D682A46E5407FF4A9
:1014000031AFBDE8F88F0000080401400000111062
:10141000001002400000014000080140000C0140A3
:1014200000100140001401400AB101617047090435
:10143000FBE7000001488068704700005000002072
:1014400070B5040025D094F83D00002520B984F83B
:101450003C50204600F0B8F8242084F83D00206875
:10146000016821F0010101602068016841F4004138
:1014700001602068016821F40041016000F01CFB5C
:101480004D4A6168914201D84C4900E04C4988427C
:1014900001D2012070BD4B492368B0FBF1F15E68B9
:1014A00026F03F060E435E606368934206D94FF410
:1014B000967359434FF47A73B1FBF3F12368491CD7
:1014C0001E6A26F03F06314319626168914210D8C6
:1014D0004900401EB0FBF1F2521CC2F30B02042A79
:1014E00001D2042022E0B0FBF1F0401CC0F30B005D
:1014F0001CE0A268F2B301EBC10303EB0116431E2B
:10150000B3FBF6F35B1C43F480431B0549D092B355
:1015100001EBC10202EB0111401EB0FBF1F0401CD7
:10152000C0F30B0040F4804040F400402168CA69D9
:101530004CF6FF739A431043C861D4E90710014386
:101540002068026822F0C00211430160D4E903015F
:1015500001432068826848F2FF339A431143816057
:10156000D4E9050108432168CA6822F0FF0210434C
:10157000C86001E00EE016E02068016841F001015A
:1015800001602564202084F83D00256384F83E50E6
:10159000002070BD01EB4106431EB3FBF6F35B1C5C
:1015A000B3E70120C2E701EB4101401EB0FBF1F0BF
:1015B000401CC0F30B00B7E7A086010080841E002A
:1015C00000093D0040420F0010B586B00021009197
:1015D0000191029103910068104988421BD1104C7F
:1015E000A06940F00800A061A069694600F0080009
:1015F00004904FF44060009012200190032003906B
:101600000848FFF721FEE06940F48000E061E069EE
:1016100000F48000049006B010BD000000580040A7
:1016200000100240000C0140024881680278114419
:101630008160704750000020074810B5016841F0F4
:1016400010010160032000F0A7F80F2000F006F859
:1016500000F050F8002010BD0020024030B50546D3
:101660001F4887B0C16941F00401C161C06906A982
:1016700000F00400009001A800F0FEF90498B0B159
:1016800000F01AFA40001749174AB0FBF1F1174869
:10169000491E0260416040F2E7320021C0E90321A7
:1016A0008160816100F0E0FB040003D015E000F0F0
:1016B00003FAE8E70D4800F005FC04000DD11E20F8
:1016C00000F03CF8102D07D2002229461E2000F021
:1016D00043F80748056000E0012407B0204630BD0C
:1016E0000010024040420F000008004004040020A7
:1016F000540000200F4808B5816941F00101816163
:10170000816901F001010091C16941F08051C1611D
:10171000C069002200F0805000900F21901E00F060
:101720001BF80548416821F0E06141F0007141601B
:1017300008BD00000010024000000140002809DB45
:1017400000F01F02012191404009800000F1E020DB
:10175000C0F8001170470000F0B40E4B1B680C4637
:10176000C3F30223C3F10705042D00D90425191D75
:10177000072901D2002300E0DB1E012606FA05F14D
:10178000491E214099409E40761E16403143F0BCD0
:1017900000F0BDBF0CED00E0064900F0070208684C
:1017A0004FF6FF03184040EA0220034A1043086046
:1017B000704700000CED00E00000FA0510B501468E
:1017C0000020234C012922D0022939D010291DD113
:1017D00061682268D20119D51E48C1F38342C9034A
:1017E000805C0AD561681B4AC1F34041921E515C7E
:1017F000194AB2FBF1F1484301E0184948436168D6
:10180000490203D440000321B0FBF1F010BD226A6D
:10181000C2F30121012903D1920701D5C80310BDEC
:10182000022905D1626A920702D549F6404010BDEF
:101830000329FCD121688903F9D54FF2244010BD5A
:1018400000F04AF96168C1F38131491C4900DBE7C6
:1018500000100240C439000800127A0000093D005F
:101860002DE9F84305460078354CC00754D0E069AF
:101870000026C00008D4E06940F08050E061E069D3
:10188000012600F0805000902E480168C90512D44E
:101890000168804641F480710160FFF7CBFD074687
:1018A00005E000BFFFF7C6FDC01B642823D8D8F8A9
:1018B0000000C005F6D5206A10F4407021D0A98838
:1018C00001F4407181421CD0206A1F49012220F49A
:1018D00040700A6000220A602062C00711D0FFF742
:1018E000A9FD074641F2883808E000BFFFF7A2FDD6
:1018F000C11B414502D90320BDE8F883206A800757
:10190000F4D5206A696820F44070084320621EB153
:10191000E06920F08050E0612878800705D5606894
:10192000A96820F44040084360602878C00605D5C7
:101930006068E96820F48000084360600020DBE70D
:101940000010024000700040400442422DE9F04780
:101950000F46050061D0434E306800F00700B842E2
:1019600009D2306820F0070038433060306800F05A
:101970000700B84251D128683B4C810712D5400777
:1019800003D5606840F4E06060602878000703D504
:10199000606840F4605060606068A96820F0F00002
:1019A000084360602878C00728D06868012810D0F4
:1019B0002168022810D0890700292EDA616821F0F9
:1019C000030101436160FFF735FD804641F288392C
:1019D0000DE021688903EFE78901EDE7FFF72AFDB4
:1019E000A0EB0801494502D90320BDE8F0876068F3
:1019F000696800F00C00B0EB810FEFD1306800F0A7
:101A00000700B8420BD9306820F007003843306037
:101A1000306800F00700B84201D00120E5E72878DF
:101A2000400705D56068E96820F4E060084360601D
:101A30002878000706D56068296920F4605040EADC
:101A4000C100606000F058F86168084AC1F30311F2
:101A5000515CC8400649086006480068FFF7FEFD73
:101A60000020C2E70020024000100240D4390008E4
:101A70005C000020540000200F2202600C4A5368D2
:101A800003F003034360536803F0F003836053687B
:101A900003F4E063C36052684FF4E06303EAD202E8
:101AA00002610448006800F0070008607047000009
:101AB00000100240002002400448054900684968BF
:101AC000044AC1F30221515CC84070475C00002009
:101AD00000100240E43900080448054900684968DC
:101AE000044AC1F3C221515CC84070475C00002029
:101AF00000100240E43900080E4A51680E4801F017
:101B00000C03042B11D0082B0FD10C48C1F38343D5
:101B1000C903C05C0AD55168084AC1F34041921E0E
:101B2000515C054A5043B0FBF1F07047044948430B
:101B3000704700000010024000127A00B23900081D
:101B400000093D002DE9F84F040070D02078C04D09
:101B5000C00749D06868C0F38100012807D06868D1
:101B6000C0F38100022809D16868C00306D528683F
:101B7000800339D560680028E7D035E06068B0F5AB
:101B8000803F0BD010B1B0F5A02F11D0286820F401
:101B900080302860286820F4802002E0286840F423
:101BA00080302860606890B1FFF744FC06460AE088
:101BB000286840F480202860F0E700BFFFF73AFC77
:101BC000801B642873D828688003F7D50CE0FFF7E2
:101BD00031FC064605E000BFFFF72CFC801B6428A3
:101BE000F0D828688003F7D420789A4E80074FF009
:101BF00001094FF0000839D5686810F00C0F07D0C4
:101C00006868C0F38100022809D16868C00306D45F
:101C10002868800714D52069012808D110E02069C0
:101C2000B0B1C6F80090FFF705FC074605E00AE1F1
:101C3000FFF700FCC01B0228C4D828688007F7D52E
:101C40002868616920F0F80040EAC10028600DE0D2
:101C5000C6F80080FFF7EEFB074604E0FFF7EAFB5B
:101C6000C01B022823D828688007F7D420780007F3
:101C70002CD57948A169D9B1C0F80090FFF7DAFBFB
:101C8000074604E0FFF7D6FBC01B02280FD8686A9E
:101C90008007F7D571484FF4FA510068B0FBF1F0B6
:101CA000009000BF0098411E0091FAD20EE080E043
:101CB000C0F80080FFF7BEFB074604E0FFF7BAFB61
:101CC000C01B022875D8686A8007F7D420784007BF
:101CD00060D5E8690027C00008D4E86940F080506A
:101CE000E861E869012700F0805000905C480168D5
:101CF000C90513D40168834641F480710160FFF780
:101D000099FB824606E000BFFFF794FBA0EB0A00B8
:101D100064284ED8DBF80000C005F5D5E06801283E
:101D20000AD008B1052813D0286A20F001002862E3
:101D3000286A20F0040002E0286A40F001002862CE
:101D4000E06841F2883B98B1FFF774FB82460BE0F4
:101D5000286A40F004002862EEE700BFFFF76AFB44
:101D6000A0EB0A0159455AD8286A8007F6D50CE03D
:101D7000FFF760FB824605E0FFF75CFBA0EB0A0182
:101D800059454CD8286A8007F6D41FB1E86920F07D
:101D90008050E861E06988B36968C1F38101022974
:101DA00044D00228C6F8608004D0FFF743FB044605
:101DB00038E034E0FFF73EFB074604E0FFF73AFB6C
:101DC000C01B02282BD828688001F7D4206AB0F500
:101DD000803F05D16868A16820F40030084368603E
:101DE000D4E908010843696821F474110843686064
:101DF000C6F86090FFF71EFB044606E025E000BF32
:101E0000FFF718FB001B022809D828688001F7D5C6
:101E10001BE000BFFFF70EFB001B022802D90320C6
:101E2000BDE8F88F28688001F4D40EE00128F7D0CF
:101E30006868226A00F48031914204D1616A00F43A
:101E40007010884201D00120EAE70020E8E7000096
:101E50000010024000004242800442425C00002028
:101E6000007000407047704710B5040003D094F82C
:101E70003D0010B107E0012010BD002084F83C00B7
:101E8000204600F01EF8022084F83D00211D206845
:101E900000F000FC012084F8460084F83E0084F83D
:101EA0003F0084F8400084F8410084F8420084F840
:101EB000430084F8440084F8450084F83D00002085
:101EC00010BD704790F83D10012901D001207047E6
:101ED000022180F83D100168CA6842F00102CA6020
:101EE00000680B49884208D0B0F1804F05D00949FD
:101EF000884202D00849884204D1816801F0070174
:101F0000062903D0016841F00101016000207047FB
:101F1000002C01400004004000080040704770B5EC
:101F20000446006801694FF00005C943890715D4CC
:101F3000C168C943890711D4E91E016101202077D6
:101F4000206880698007204602D0FFF7E7FF04E0A1
:101F500000F098F8204600F096F82577206801698F
:101F6000C943490717D4C168C943490713D46FF05F
:101F700004010161022020772068806910F4407F0D
:101F8000204602D0FFF7CAFF04E000F07BF82046AD
:101F900000F079F8257720680169C943090716D44C
:101FA000C168C943090712D46FF008010161042018
:101FB00020772068C0698007204602D0FFF7AEFF77
:101FC00004E000F05FF8204600F05DF82577206817
:101FD0000169C943C90617D4C168C943C90613D4E6
:101FE0006FF010010161082020772068C06910F4AB
:101FF000407F204602D0FFF791FF04E000F042F856
:10200000204600F040F8257720680169C943C907D8
:1020100008D1C168C943C90704D1891E016120469E
:1020200000F032F820680169C943090609D4C16883
:10203000C943090605D46FF0800101612046FFF70E
:1020400011FF20680169C943490609D4C168C94321
:10205000490605D46FF040010161204600F01EF8EA
:1020600020680169C94389060BD4C168C943890640
:1020700007D46FF0200101612046BDE87040FFF7F2
:10208000F2BE70BD7047704700680349884201D1B5
:10209000FFF7CABA70470000000800407047FEE72B
:1020A00030B587B01C216846FEF714F915480024A6
:1020B00013498460016004730475012505614FF4C0
:1020C00060214460C161FEF753FC08B172B6FEE7BF
:1020D0000220CDE9000507200290000306908DF84C
:1020E000154004958DF81440694606480394FEF7A0
:1020F00055FA002801D072B6FEE707B030BD0000E7
:1021000000240140C400002010B518488AB01649C8
:10211000016002210024C0E901144FF46021C0E9EC
:1021200003414FF480114161047644768476C4768D
:1021300004774477FEF763FF08B172B6FEE701202B
:10214000CDE906400394059408900094019402940C
:10215000694604940548FEF749FD002801D072B68F
:10216000FEE70AB010BD000000640040F40000204B
:102170002DE9F04385B00026384800960196029676
:102180000396816941F010018161816901F01001BC
:102190000491816941F020018161816901F0200190
:1021A0000491816941F004018161816901F00401B8
:1021B0000491816941F0080181618069012200F088
:1021C0000800274F5403049021463846FFF72CF9A6
:1021D000DFF890900022FA214846FFF725F9DFF852
:1021E0008880002203214046FFF71EF90094012455
:1021F0000225694638460194CDE90245FFF724F8E7
:10220000CDE9005469464846CDE90245FFF71CF880
:10221000F8208DE83100694648460395FFF714F829
:1022200003208DE83100694640460395FFF70CF81E
:102230004FF2F800CDE90006694602944046FFF7E8
:1022400003F84FF40F40CDE9000669460294484672
:10225000FEF7FAFF05B0BDE8F08300000010024071
:102260000010014000080140000C0140FEE7FEE7BD
:10227000134F134E0837134C4FF0100907F10408A1
:1022800002254FF47A7A2068000730684FEAC06070
:1022900004D4002806DBC7F8009003E0002801DA28
:1022A000C8F800902068800605D43D60504600F0D4
:1022B0007FFCC8F80050642000F07AFCE3E70000DF
:1022C00008080140080C0140414F424E424D434C2A
:1022D0004FF000082078E178084315D12868C00441
:1022E000E07909D420B9A4F80E80012000F020FB89
:1022F000E089401CE08107E0012805D1E0899628AB
:1023000002D9012000F0E4FA28688004E07909D4B9
:1023100020B9A4F80E80012000F0A8FAE089401C42
:10232000E08107E0022805D1E089962802D9012042
:1023300000F0CEFA3868000602D43868400616D598
:10234000206AB04213DD642000F032FC206AB04203
:1023500002DC608A32280AD9012000F0B9FAE0785C
:1023600008B10120A0724FF4967000F021FC28689B
:102370004004207A09D420B9A4F81080022000F08B
:10238000D7FA208A401C208207E0012805D1208A44
:10239000962802D9022000F09BFA28680004207ACF
:1023A00009D420B9A4F81080022000F05FFA208A36
:1023B000401C208207E0022805D1208A962802D9F5
:1023C000022000F085FA012000F0F2FB82E7000015
:1023D0000808014000007041080C01400000002086
:1023E000012000F0E5FBFBE7194D1A4C0026286898
:1023F000C0061BD4607910B9A68201206071A08A42
:10240000401C80B2A082B0F5AF7F19D92868C00700
:1024100002D000F097FB05E000F0A8FB02E00120ED
:1024200000F0C6FB2868C006F9D509E0A08A28B1EB
:10243000FA2803D2607A38B100F058FB6671A682A0
:10244000012000F0B5FBD2E700F066FBF6E70000E4
:10245000080C0140000000201A4E1B4C002530687B
:1024600000041AD4A07910B9E5820120A071E08A95
:10247000401C80B2E082B0F5AF7F1ED9207910B148
:1024800000F058F901E000F077F9104F38680004C7
:1024900013D40A2000F08CFBF8E7E08A58B1FA2840
:1024A00009D20848082708300760642000F080FB44
:1024B00004480C300760A571E582012000F078FB2C
:1024C000CDE700000808014000000020080C014092
:1024D000394C0027A4F14806FF25307890B33770B7
:1024E000A078FF280BD00A2802D00B2807D103E0E0
:1024F000A57000F027FB02E0A57000F037FB6078C4
:10250000FF280BD00A2802D00B2807D103E0657002
:1025100000F002FB02E0657000F0E8FA2078FF2886
:102520002FD00D281ED006DC0A280CD00B280FD087
:102530000C2826D111E00F2818D010281AD01828FE
:102540001FD11BE01DE02570012000F0C1F918E04B
:102550002570012000F0ECF913E02570012000F057
:1025600085F90EE0257000F029F90AE0257000F0E9
:1025700003F906E0257000F0DDF802E02570012087
:10258000F072707898B10D48FEF725FC0028FAD05B
:10259000094B0A49303B03F128027C310748FEF71A
:1025A000BDFA0548083805704570857077700A20B7
:1025B00000F0FEFA91E7000048000020F40000203F
:1025C000054C0025A07818B1A5700448FEF706F95F
:1025D0000A2000F0EDFAF5E700000020C40000201A
:1025E00010B5502080F31188BFF34F8FBFF36F8F6A
:1025F00000F014FF18B104494FF08050086000202B
:1026000080F3118810BD000004ED00E030B593B0F8
:1026100028216846FDF75EFE14210AA8FDF75AFE40
:10262000002501200F9510951195010412958DE854
:10263000230004904FF4E010CDE908100224079421
:102640006846FFF77FFA08B172B6FEE70AA90F20C5
:1026500081E831004FF48060CDE90D0502210AA820
:10266000FFF774F908B172B6FEE74FF4004011901D
:102670000F940FA8FFF7F4F8002801D072B6FEE718
:1026800013B030BD704700000148FFF748BC0000A0
:1026900004040020F0B50268164B174C174D4FF09C
:1026A0008047984205D0B84203D0A04201D0A8424A
:1026B00003D122F070064A683243984205D0B842EE
:1026C00003D0A04201D0A84203D122F44074CA68CA
:1026D00022434C6922F08002224302608A68C2626F
:1026E0000A688262984201D109690163012141614E
:1026F000F0BD0000002C0140000400400008004034
:102700000148FEF77EBB0000F4000020FEE7090749
:10271000090E002804DB00F1E02080F80014704767
:1027200000F00F0000F1E02080F8141D70477047A2
:10273000002070470E4910B5002008710D49022095
:102740000B4C08601A20403420700A487C38FEF791
:1027500042FB0028F9D0064B0649183303F1280242
:10276000A1F17C00FEF7DAF9FF20207010BD000017
:1027700000000020700100200E4910B501200871F2
:102780000D4902200B4C08601920403420700A4883
:102790007C38FEF720FB0028F9D0064B0649183399
:1027A00003F12802A1F17C00FEF7B8F9FF202070A8
:1027B00010BD000000000020700100202DE9F04154
:1027C000274C28494FF0010884F8038080200860D6
:1027D0004020091D086002E00A2000F0E9F9A07A13
:1027E0000028F9D04FF47A7000F0E2F91E4F022071
:1027F0001B4D38601720403528701B487C38FEF789
:10280000EAFA0028F9D0164B1749183303F12802C9
:10281000A1F17C00FEF782F9FF262E7041F288308C
:1028200000F0C6F984F80C80092038600E2028706A
:102830000D487C38FEF7CFFA0028F9D0084B0A493A
:10284000183303F12802A1F17C00FEF767F92E701E
:102850000020E070A072E0722073BDE8F0810000FB
:1028600000000020100801407001002010B515493B
:10287000022201F14004012802D002280FD109E010
:1028800000204882CA711049802008604020091F3A
:10289000086004E00D480A720260162020700B48A0
:1028A0007C38FEF798FA0028F9D0064B0749183310
:1028B00003F12802A1F17C00FEF730F9FF2020701F
:1028C00010BD00000000002014080140700100202D
:1028D00010B5144A002102F14004012802D0022858
:1028E0000ED107E051821048D17180210160402152
:1028F000016005E011720D4902200860142020706B
:102900000A487C38FEF767FA0028F9D0054B0749DA
:10291000183303F12802A1F17C00FEF7FFF8FF2035
:10292000207010BD0000002014080140700100203C
:1029300010B51549012201F14004012802D00228F6
:1029400010D109E000204882CA7110498020086037
:102950004020091D086005E00A720D490220086048
:10296000152020700A487C38FEF735FA0028F9D087
:10297000054B0749183303F12802A1F17C00FEF74B
:10298000CDF8FF20207010BD00000020100801408D
:1029900070010020B2B0FEF74FFEFFF737FEFFF7E1
:1029A000E7FB49484749002401604849C0E9011450
:1029B0004FF48041C0E9034144618461C461046211
:1029C000FEF73EFD08B172B6FEE7FFF769FBFFF7C1
:1029D0009BFB3D485838FDF775FD3B485838FDF7DF
:1029E000FDFE3948012554300821C0E90054C46077
:1029F0008460016104757C38FEF7F2FB324848F6CA
:102A000002412838FEF778F831480221016005605C
:102A10003048802202604022026001602021016073
:102A2000102101601C222C496846FDF719FC002189
:102A3000684600F0C9F8294C27491C2260621C3105
:102A400007A8FDF70DFC002107A800F0BDF82249FA
:102A5000A0621C2238310EA8FDF702FC00210EA84E
:102A600000F0B2F81C49E0621C22543115A8FDF7B1
:102A7000F7FB002115A800F0A7F8174920631C22D6
:102A800070311CA8FDF7ECFB00211CA800F09CF89D
:102A9000114960631C228C3123A8FDF7E1FB002162
:102AA00023A800F091F80C49A0631C22A8312AA8A1
:102AB000FDF7D6FB00212AA800F086F8E06300F0BD
:102AC0007EF8FEE7005800401C010020801A060036
:102AD000140C014014080140EC38000800000020EC
:102AE00001460020842900D0C81C704710B5084852
:102AF0002024046041F2883000F05AF80448001D98
:102B00000460044900204872FF204031487010BD25
:102B1000100801400000002010B50848022404609D
:102B200041F2883000F044F80448001D0460044974
:102B300001204872FF204031487010BD100801404C
:102B400000000020064901200860064A02211160A9
:102B5000054A14219170A2F14001487070470000AD
:102B6000140C014070010020400000200D4910B5F8
:102B7000012008600C4902200C4C08601520A07050
:102B800009487C38FEF727F90028F9D0074B064999
:102B9000283B064AA1F17C00FDF7C0FFFF20A07092
:102BA00010BD0000100C014070010020400000200A
:102BB00010B500B9012000F0E5FA002010BD10B5F5
:102BC00000F006FB002010BD7FB50D4604464169AC
:102BD000B0F9080081B1A16971B1FFF781FFD4E9B3
:102BE00005128DE80700D4E900102B46226900F099
:102BF000EAFB039004B070BDFFF772FF03A9CDE9B3
:102C00000001208A2B4682B2D4E9001000F0AEFB0E
:102C1000012801D00020EDE70398EBE72DE9F04112
:102C2000184C0F46054626692068001D00F0E4F99F
:102C300038B9206890F82C100120884061698143E0
:102C40006161681C07D137B12168BDE8F0410E48C9
:102C5000091D00F016BA20683544B5424560216868
:102C600005D2A068BDE8F041091D00F0F2B9606826
:102C7000091D00F0EEF9E06A854200D2E562BDE888
:102C8000F081000060000020140500202DE9F041D3
:102C9000054600F003FA2C4CE068401CE060206818
:102CA0002A4F10B1A06920B329E02560E06801280F
:102CB00025D1002606EB860007EB800000F0BBF96B
:102CC000761C072EF6D321488C3000F0B4F91F484B
:102CD000A03000F0B0F91D48B43000F0ACF91B484A
:102CE000C83000F0A8F919488C3060601430A0603A
:102CF00005E02068E96AC06A884200D82560A06AB9
:102D0000401CA0626864E96A01206269884010433F
:102D1000606101EB810007EB8000291D00F0B1F933
:102D200000F0DCF9A06900280CD02068E96AC06ACC
:102D3000884207D206494FF080500860BFF34F8F9A
:102D4000BFF36F8FBDE8F081600000204C040020CD
:102D500004ED00E010484FF42051420706D0C01D9A
:102D60000D4920F00700411AC1F520510B4A0023FC
:102D70000144C2E900030839103A21F0070111604B
:102D80004B600B600B1AC0E9001393604FF00040DA
:102D90005360D0607047000028050020B00000207C
:102DA000074C084D4FF080562068012804D92E604A
:102DB000BFF34F8FBFF36F8F00F03CF9F4E70000D3
:102DC0004C04002004ED00E02DE9F0470E46DDE95B
:102DD00009841746824691009946089DA522206BDA
:102DE000FDF770FA6FF00301206B01EB87010844D7
:102DF00020F00707780707D0502080F31188BFF331
:102E00004F8FBFF36F8FFEE72218315C82F83410CA
:102E1000315C11B1401C1028F6D3002684F84360C1
:102E2000072D00D30625E562C4E91356201D00F0E6
:102E30000DF904F1180000F009F92461C5F107004B
:102E40006462A0616665A66584F85C604A46514686
:102E5000384600F0BFF82060B8F1000F01D0C8F884
:102E60000040BDE8F087000030B5114900E0114690
:102E70000A688242FBD34B685C18844203D14068E5
:102E800018444860084643681C18944209D1084C0D
:102E9000103C2468A24209D052681A4442600A6871
:102EA00012680260814200D0086030BD0460F9E71A
:102EB000B000002006484168096829B14168C96826
:102EC000C9684968C16270474FF0FF31FAE70000F6
:102ED0006000002008484068401C4FF0500080F31C
:102EE000118804D0BFF34F8FBFF36F8FFEE7BFF39E
:102EF0004F8FBFF36F8FFEE7B80000202DE9F04140
:102F00000546002700F09CF9314E306808B9FFF7FC
:102F100021FFF06805424BD1C5B3083568070ED0D4
:102F200005F00700C0F108000544680707D05020ED
:102F300080F31188BFF34F8FBFF36F8FFEE72DB380
:102F40007068854234D82248103001460C6801E090
:102F500020460C466168A94202D221680029F7D1B7
:102F600031688C4224D007682168016060680837A6
:102F7000411B10290FD96019420708D0502080F357
:102F80001188BFF34F8FBFF36F8FFEE710E04160F2
:102F90006560FFF769FF61687068401A7060B26829
:102FA000904200D2B060F06801430020C4E9000103
:102FB00000F098FA780707D0502080F31188BFF30B
:102FC0004F8FBFF36F8FFEE73846BDE8F0810000FA
:102FD000A000002010B5031F4FF080741C601B1F61
:102FE00021F001011960191F024B0B6014394038A0
:102FF0000A6010BDD52E0008D0E9013201699A603F
:10300000D0E901235A604A68824201D182684A604D
:10301000002202610868401E0860086870470000CE
:10302000034B036003F1600008608020106070476C
:10303000A4010020704700F108014FF0FF32C0E901
:103040000112C1600161002101607047002101612E
:10305000704730B50B685A1C02D000F1080202E03C
:10306000026904E02246546825689D42FAD95368F3
:103070004B6099608A60516008610168491C016079
:1030800030BD42684A6093688B6093685960916074
:1030900008610168491C016070470000502080F3FE
:1030A0001188BFF34F8FBFF36F8F0A494868401CE8
:1030B000486001280CD10848006810F0FF0F07D0C5
:1030C000502080F31188BFF34F8FBFF36F8FFEE75F
:1030D00070470000B800002004ED00E0084948688F
:1030E00028B1401E486001D180F3118870475020FC
:1030F00080F31188BFF34F8FBFF36F8FFEE700009F
:10310000B800002070B5002827D0144DA0F10804A5
:103110006168E868014207D1502080F31188BFF34D
:103120004F8FBFF36F8FFEE722683AB1502080F3D4
:103130001188BFF34F8FBFF36F8FFEE7814361604C
:1031400000F07EF860686968084468602046FFF710
:103150008BFEBDE8704000F0C5B970BDA000002036
:103160004FF0E02000210161816105494FF47A723E
:103170000968B1FBF2F1491E416107210161704705
:103180005C00002010B5020014D00F48406B38B12D
:10319000502080F31188BFF34F8FBFF36F8FFEE78E
:1031A00000F04EF800211046FFF738FD00F09AF9C4
:1031B000002807D105494FF080500860BFF34F8FBA
:1031C000BFF36F8F10BD00006000002004ED00E031
:1031D00010B586B00024039405AA04A903A804949A
:1031E000FFF71EFFDDE903010094CDE90110002384
:1031F0000FA11148059A00F0E6F81049002808636D
:1032000013D0502080F31188BFF34F8FBFF36F8F1F
:103210004FF0FF30C862012088610C61FFF787FA28
:1032200006B0BDE8104000F04DB806B010BD00007B
:1032300049444C4500000000A12D0008600000201A
:103240000248416B491C4163704700006000002048
:1032500010B51A4C606B10B10120206210BD002027
:103260002062FFF765FAE063A26B904204D92168FF
:10327000821A4B6D1A444A65A06360691049B0FA1E
:1032800080F0C0F11F0000EB800051F820206AB1EF
:1032900001EB800000F108024168496841609142F9
:1032A00001D149684160C868206010BD502080F39A
:1032B0001188BFF34F8FBFF36F8FFEE760000020D0
:1032C0004C0400201CB5264908780190FF200870A6
:1032D00008788DF800009DF800009DF8002000F0AF
:1032E000F000904207D0502080F31188BFF34F8F39
:1032F000BFF36F8FFEE79DF800001A4B00F05000FF
:1033000018700720986005E09DF8002052008DF8A5
:103310000020401E9DF800201206F5D49860032876
:1033200007D0502080F31188BFF34F8FBFF36F8F0A
:10333000FEE74FF440709860019808700A480168F1
:1033400041F470010160016841F070410160FFF7D4
:1033500007FF00205860FCF729FF00201CBD00007B
:1033600000E400E0B800002020ED00E02DE9FF5F60
:103370008346DDE90E87994616468A469000FFF798
:10338000BDFD05001CD06020FFF7B8FD040014D07F
:103390000020256384F85D00CDE90240CDE9008777
:1033A0004B46324651465846FFF70EFD2046FFF782
:1033B0006DFC012004B0BDE8F09F2846FFF7A2FE97
:1033C0004FF0FF30F6E7F0B585B0DDE90B640A9DFC
:1033D000A6B1DCB1602700972663022684F85D6001
:1033E000002604AFCDE90246CDE90057FFF7ECFC1B
:1033F0002046FFF74BFC049805B0F0BD502080F349
:103400001188BFF34F8FBFF36F8FFEE7502080F31B
:103410001188BFF34F8FBFF36F8FFEE72DE9F041A7
:103420002E4C0027606B40B1E069401CE061206ACF
:1034300000B101273846BDE8F0812669761C266177
:1034400013D16068006838B1502080F31188BFF351
:103450004F8FBFF36F8FFEE76068A1686160A06067
:10346000606A401C6062FFF725FDE06ADFF870804B
:10347000864209D36068006880B16068C068C5682A
:10348000686886420DD2E0622068C06A00EB800165
:1034900058F821000128CAD90127C8E74FF0FF30AA
:1034A000F1E7281DFFF7A8FDA86A18B105F118007B
:1034B000FFF7A2FDE86A0121626981401143616161
:1034C00000EB800108EB8100291DFFF7DAFDE86AB7
:1034D0002168C96A8842CDD30127CBE7600000206C
:1034E0004C0400202DE9F0472C4D00242746686B42
:1034F00038B1FFF7D3FD686B401E6863686B40B15D
:1035000046E0502080F31188BFF34F8FBFF36F8FD9
:10351000FEE7E968224E0120D1B3A6F1B409804646
:103520003068E8B1F068C46804F11800FFF764FD82
:10353000201DFFF761FDE06A6A6908FA00F1114396
:10354000696100EB800109EB8100211DFFF799FD06
:10355000E06A2968C96A8842E2D3C5F82080DFE7BB
:103560000CB1FFF7A7FCEC6944B14646FFF756FFE4
:1035700000B12E62641EF9D10020E861286A38B1DA
:103580000849012738070860BFF34F8FBFF36F8FDB
:10359000FFF7A4FD3846BDE8F0870000600000207A
:1035A0000005002004ED00E04FF47F0C1CEAD0126F
:1035B0001EBF1CEAD11392EA0C0F93EA0C0F00F025
:1035C000858090EA010F48BF42F4807240F4000CFD
:1035D00041F400002CF07F4120F07F4000B5814293
:1035E000A2EB03020FF2081CACEB504EC0F100003E
:1035F0009EF800E04FEA4E0E00FB0EFC38BF49007B
:103600004FEA2C1C02F5FA020CFB0EF34FEACE1E19
:103610004FEA112C4FEAC1210EEB635E42EB2242CE
:103620000EFB0CFC4FEA1C5300FB03114FEA112C5C
:103630004FEA01310EFB0CFC4FEADC4C00FB0C1195
:10364000C14228BF09184CEB03335DF804EB10EBC3
:10365000410143EBC250B2F57C0F38BF704729D50A
:1036600012F0F00F1CBF00F1C04000F000407047A6
:10367000008182838485868788898B8C8D8E8F914B
:103680009293959697999A9C9D9FA0A2A3A5A7A86F
:10369000AAACAEB0B2B3B5B7B9BCBEC0C2C5C7C99B
:1036A000CCCED1D4D7D9DCDFE2E6E9ECF0F3F7FAFF
:1036B000FE0000004FEA400C0CF1807CBCF17E4F14
:1036C00028BF7047B0F1C04000F00BB990EA010F7D
:1036D0000CEAD11348BF42F48072624538BF63459B
:1036E00007D213F47F0F16D080EA010000F00040EB
:1036F000704710B500F0AFF8097EFC3E00F005B849
:1037000080EA010000F00040704780EA010000F00C
:10371000004000F0E6B812F47F0F04BF0248704783
:1037200080EA010000F0DDB80000C07FB0FA80F34D
:1037300010FA03F2C3F19D030AD0D90501EB122060
:10374000530638BF704700F1010008BF20F00100A8
:10375000704700004FF47F0C1CEAD0121EBF1CEA19
:10376000D11392EA0C0F93EA0C0F00F0478090EA15
:10377000010F48BF42F480724FF0004C4CEA002029
:103780004CEA012102EB0302A0FB0113A2F50002A7
:10379000002918BF43F001035B0028BF4FEA330341
:1037A00042EB22425FEA132C4CEBC2502EBFBCEB23
:1037B000436FB2F57C0F70474FEA036CBCF1004FCA
:1037C00008BF20F00100B2F57C0F38BF70470BD561
:1037D00082F0FF0212F5803FC8BF704700F1C04081
:1037E000D8BF00F00040704700F5000C5FEA4C0CB9
:1037F00048BF7047B0F1C04000F073B890EA010FC5
:103800000CEAD11348BF42F48072624538BF634569
:1038100004D280EA010000F00040704710B500F0CB
:103820001AF800BF8900013E00F007B800F009B89F
:103830005FEA410C5FEA1C6C08D080EA010000F0EE
:1038400050B85FEA400C5FEA1C6CF6D14FF00040C4
:10385000A0F5800070470EF1020E2EF0030E5EF808
:10386000044B244204D44FEA4102B2F17F4F11D8F5
:103870004FEA4003B3F17F4F0CD80ED14FEAD07C12
:10388000B2F17F4F0CEB4C0C0CF1020C08BF4CEB6F
:10389000D17C04E04FF0080C01E04FEAD17C0CEB46
:1038A0004C0324FA03F404F00704B4F1040C06D228
:1038B0000EEB840CBDE810404CF0010C6047DFE8D3
:1038C0000CF0070802024FF00040A0F5800010BD88
:1038D0000846420018BFD2F1807288BF00F0004055
:1038E00010BDFF2141EAD050C0057047083A0008DA
:1038F000C12500080000000000000000800000005A
:103900000000000000000000383A0008E123000831
:1039100000000000000000000001000000000000A6
:1039200000000000EC390008C92200080000000077
:103930000000000080000000000000000000000007
:10394000243A0008D1240008FDFF00000000000018
:103950008000000000000000000000002C3A000879
:10396000712200080000000000000000800000003C
:103970000000000000000000143A0008E9230008DD
:1039800000000000000000008000000000000000B7
:1039900000000000F8390008592400080000000069
:1039A0000000000080000000000000000000000097
:1039B000010202030405060708090A0B0C0D0E0F8D
:1039C0001010010202030405060708090A0B0C0D7A
:1039D0000E0F1010000000000000000001020304A0
:1039E0000607080900000000010203044275747410
:1039F0006F6E526561640000476C6173734C696659
:103A0000744C6F636B00000064656661756C745480
:103A100061736B00466F6C64696E674D6972726F9B
:103A2000727300004F757470757473004261636B3C
:103A30006C69676874000000446973706C61790098
:103A4000603A000800000020C400000028010008BF
:103A5000243B0008C4000020C432000044010008D8
:103A60000000000000000000000000000000000056
:103A70000000000000000000000000000000000046
:103A80000000000000000000000000000000000036
:103A90000000000000000000000000000000000026
:103AA000FFFFFF0000000000FFFFFF00000000001C
:103AB0000100000010000000000000000024F400DD
:103AC00000000000000000000000000000000000F6
:103AD00000000000000000000000000000000000E6
:103AE00000000000000000000000000000000000D6
:103AF00000000000000000000000000000000000C6
:103B000000000000000000000000000000000000B5
:103B1000000000000000000000000000AAAAAAAAFD
:043B200000000000A1
:04000005080000ED02
:00000001FF
