:020000040800F2
:10000000F836002041020008574200081D3B000856
:1000100055420008051600087D4F0008000000004A
:10002000000000000000000000000000A90100081E
:100030000716000800000000ED010008D54B00087D
:100040005B0200085B0200085B0200085B0200081C
:100050005B0200085B0200085B0200085B0200080C
:100060005B020008051700085B0200085B0200083D
:100070005B0200085B0200085B0200085B020008EC
:100080005B0200085B020008151500085B0200080F
:10009000714F00085B0200085B0200085B02000869
:1000A0005B0200087D4C00085B0200085B02000850
:1000B000994C0008B54C0008494D00085B02000847
:1000C0005B0200085B0200085B0200085B0200089C
:1000D0005B0200085B0200085B0200085B0200088C
:1000E000091600085B0200085B02000800F002F835
:1000F00000F04AF80AA090E8000C82448344AAF178
:100100000107DA4501D100F03FF8AFF2090EBAE875
:100110000F0013F0010F18BFFB1A43F0010318473B
:100120001C7A00003C7A0000103A24BF78C878C1DD
:10013000FAD8520724BF30C830C144BF04680C60ED
:10014000704700000023002400250026103A28BF35
:1001500078C1FBD8520728BF30C148BF0B60704739
:10016000662906F0A682642900F0C6800020704748
:100170001FB500F091FC04000020002105F06AFD8D
:10018000E0601FBD10B510BD00F086FD1146FFF701
:10019000EFFF04F023FF00F0A4FD03B4FFF7F2FF2C
:1001A00003BC00F0E7FD0000224B19680868B0E8C6
:1001B000F00F80F30988BFF36F8F4FF0000080F3DA
:1001C00011884EF00D0E70470000000006480068D0
:1001D000006880F3088862B661B6BFF34F8FBFF343
:1001E0006F8F00DF00BF00BF08ED00E0EFF3098074
:1001F000BFF36F8F0F4B1A6820E9F00F106008B53E
:100200004FF0500080F31188BFF34F8FBFF36F8F13
:1002100005F0A0FB4FF0000080F31188BDE8084016
:1002200019680868B0E8F00F80F30988BFF36F8F92
:10023000704700BFB8000020EFF305807047000052
:100240000948804709480047FEE7FEE7FEE7FEE76A
:10025000FEE7FEE7FEE7FEE7FEE7FEE704480549A6
:10026000054A064B70470000794C0008ED00000875
:10027000F8300020F8360020F8320020F832002054
:100280000FB41CB5074B06AA7B446946009005983D
:1002900000F0C7FB0020694600F0D6FB1CBC5DF8EF
:1002A00014FB0000BD07000070B5044685690068B6
:1002B000C10601D5302600E02026C00707D070BD5A
:1002C000D4E9012130469047206A401C20626D1E0F
:1002D000F6D570BD70B5044685690078C00707D1B2
:1002E00070BDD4E9012120209047206A401C206283
:1002F0006D1EF6D570BD00002DE9F04106460024C4
:1003000010687529314616A510D0AFF3008000287B
:1003100002DA404213A507E031688A0701D512A529
:1003200002E0490704D511A5012401E0AFF30080E4
:1003300000210A2206F1240709E0B0FBF2FCB0FB21
:10034000F2F302FB1C00303078541846491C002898
:10035000F3D123462A463046BDE8F04100F0F3B819
:10036000000000002D0000002B0000002000000015
:100370002DE9F0474FF0000A89460446C0F820A056
:100380002046E1688847002876D0252806D0D4E9A1
:1003900001219047206A401C2062F1E7E168204675
:1003A00000258847C4F81CA006460027C4F818A0FA
:1003B0002A2E09D0304604F006FE38B304EB870835
:1003C000303EC8F8186019E059F8041B204604EBC9
:1003D00087029161E1688847012F064618D1E069DC
:1003E000002820DA25F020051DE0D8F8180000EBE1
:1003F000800006EB40003038C8F818002046E1685D
:100400008847064604F0DFFD0028EED1012F0AD010
:100410002E2E08D12046E16888477F1C0646022F11
:1004200045F02005C4DBA069002803DA404245F00E
:100430000105A061E80701D025F01005B6B1A6F1CD
:100440004100192802D8203645F400654A46314655
:10045000204625604D46FFF783FE58B1012806D09F
:10046000ED1D25F0070000F1080989E704E005F11A
:10047000040985E730468AE7206ABDE8F08710B5B1
:10048000203AC0F00B80B1E81850203AA0E818508C
:10049000B1E81850A0E81850BFF4F5AF5FEA027C4D
:1004A00024BFB1E81850A0E8185044BF18C918C0BC
:1004B000BDE810405FEA827C24BF51F8043B40F85D
:1004C000043B08BF7047D20728BF31F8023B48BF42
:1004D00011F8012B28BF20F8023B48BF00F8012B80
:1004E000704702F0FF0343EA032242EA024200F0AF
:1004F000B2BA4FF0000200B5134694469646203932
:1005000022BFA0E80C50A0E80C50B1F12001BFF4CC
:10051000F7AF090728BFA0E80C5048BF0CC05DF832
:1005200004EB890028BF40F8042B08BF704748BF80
:1005300020F8022B11F0804F18BF00F8012B7047F4
:100540007047704770472DE9F0470D46994692462F
:10055000044600F124080168880604D5E06921F00A
:100560001001216000E00120A84201DD471B00E0EE
:100570000027A1697A1902EB0900081AA061207806
:10058000C00602D42046FFF78FFE002608E0D4E91B
:1005900001211AF806009047206A401C761C206250
:1005A0004E45F4DB2078C0060AD52046FFF77CFED6
:1005B00006E0D4E9012130209047206A401C2062E7
:1005C000381EA7F10107F4DC07E0D4E9012118F88F
:1005D00005009047206A401C2062281EA5F10105F5
:1005E000F3DC2046FFF776FE2078000602D50220D5
:1005F000BDE8F0870120FBE770472DE9FF4F0C466F
:100600001E464FF0FF378BB0D2E90001DDF8608065
:100610000A908A46C1F30A5505B93D4600210846AD
:100620004FF00000BAF1000F00F4400005DA00EBD3
:1006300080004FF4400101EA50004FEA9059B9F1AF
:10064000010F00DDB9460A9850EA4A000ED044F680
:100650001050A5F2FF3545432F14B8F1000F1ED0FE
:100660007542291E1EDDC9F100021CE0B8F1010F20
:100670004FF0000001D0302103E0F24305E02154A7
:10068000401CB042FBDB30460022002121540B9974
:10069000C1F80880C1E900200FB0BDE8F08FBD1B94
:1006A0006D1CDEE74A4600DA694206A800F07EFAD1
:1006B00006AB93E8070003AB83E8070050460A99AE
:1006C00000F05FFB8DE80700A0F500501F38009098
:1006D0000398002D0ADD42F21F014A460844002318
:1006E00003A90390684600F0C8FD09E0A0F500509A
:1006F0004A461F38002303A90390684600F0D2FD44
:100700008DE807000004000C03D04FF0FF304108D3
:1007100000E01046B8F1000F03D000220092154609
:100720001EE0751E05D400F0BBF9303262556D1E17
:10073000F9D5B3460122084302D000227F1C04E011
:100740002078302801D100227F1E002A099784D00A
:100750001DE0112D07DA00F0A3F9303262556D1C4F
:1007600050EA0102F5D1084302D00098C8B10EE06A
:100770000021681E05E0235C625C63542254401E25
:10078000491C8142F7DBAB46A81B401E09900020A4
:1007900004F80B000B98099AC0F80880C0E9002BF8
:1007A0007AE711264FF0000857E72DE9F04F884609
:1007B0000446D21D22F0070191B0D1E90001CDE934
:1007C0000A0104F0DCFB02460B98C00F01D02D207B
:1007D00007E02068810701D52B2002E0202101EAF3
:1007E000C000032A099001D0072A05DB03464146D1
:1007F000204600F09BF90BE12078800601D5E069E6
:1008000000E00620B8F1650F814606D0B8F1660F0A
:1008100018D0B8F1670F70D131E00020B9F1110F95
:10082000009001DB112301E009F101030AAA01A9EB
:100830000CA8FFF7E2FEDDE90C70002609F10105C6
:10084000834647E001204B4600904FF000470AAA3C
:1008500001A90CA8FFF7D1FEDDE90DB00C995D46AA
:10086000002610B909F101000D18B9EB050003D4F9
:10087000C0F1FF3609F10105A5EB09002BE0B9F144
:10088000010F01DA4FF001090020B9F1110F0090BA
:10089000484601DD112300E003460AAA01A90CA87D
:1008A000FFF7ABFEDDE90C704D460026834620784D
:1008B00000070AD4AB4500DA5D4601A8012D04DD2E
:1008C000411911F8011C302907D04F4502DA17F100
:1008D000040F04DA012082460FE06D1EEEE7002FC0
:1008E00002DCED1B3E4403E0781CA84200DD7D1CC9
:1008F000B81B00F1010A4FF000472078000703D42D
:10090000AA4501DB4FF0FF3A0021B7F1004F0DF18E
:1009100043088DF8431024D002202B23002F01DA46
:100920007F422D230A21021EA0F1010000DC5FB1ED
:1009300097FBF1FC97FBF1F201FB1C7C17460CF1D5
:10094000300C08F801CDEEE7A8F101000370218812
:10095000090501D5452100E06521A0F1010800F855
:10096000011C09980FA9A1EB0807FF1D00B1012088
:10097000411901EBEA70A1693844081A401EA061D0
:100980002078C00602D42046FFF78EFC099828B1D3
:10099000D4E901219047206A401C20622078C006DB
:1009A00022D52046FFF780FC1EE0002E04DBB34575
:1009B00002DD01A8805D00E03020D4E901219047EC
:1009C000206A401C2062761CAAF101005FEA000A3E
:1009D0000AD100F061F8C0680168405CD4E90121E7
:1009E0009047206A401C2062281EA5F10105DCDC2E
:1009F00007E0D4E9012118F8010B9047206A401C58
:100A00002062381EA7F10107F3DC2046FFF762FCE5
:100A1000032011B041E6000001694A1C0261087818
:100A2000704700B58FB0CDE901310021059105492E
:100A30007944CDE9031011466846FFF799FC0FB0E1
:100A400000BD0000E5FFFFFF0A6802F8010B0A6025
:100A500070474FF000020429C0F0128010F0030C20
:100A60003FF449ADCCF1040CBCF1020F18BF00F803
:100A7000012BA8BF20F8022BA1EB0C01FFF73BBD17
:100A80005FEAC17C24BF00F8012B00F8012B48BFAE
:100A900000F8012B7047000000487047B830002074
:100AA00030B5B0F10A024FEA900E71F100034EEA40
:100AB000817EB0EB0E0061EB91014FEA101E4EEA11
:100AC000017E10EB0E0041EB11114FEA102E4EEAA1
:100AD000016E10EB0E0041EB11214FEA104E4EEA71
:100AE000014E10EB0E0041EB1141401841F10001A5
:100AF0004FEAD00040EA41704FEAD10110EB800587
:100B00004FEA810444EA907444EB01046D1944EB0C
:100B10000404521BA3414FF0000348BF0A3200D522
:100B200030BD401C41F1000130BD00002DE9F04115
:100B30001F46044603260168072A01F4006004DB0F
:100B400008B116A505E016A503E008B115A500E05B
:100B500015A521F010002060A069C01EA0610FB192
:100B6000401EA0612046FFF79FFB4FB1D4E9012151
:100B700038469047206A401C2062C01C206206E074
:100B8000206AFAE7D4E9012115F8010B9047761E97
:100B9000F8D22046FFF79EFBBDE8F0814E414E00A3
:100BA0006E616E00494E4600696E66002DE9F047A1
:100BB000814616468AB0354878440DC88DE80D0048
:100BC00032487844801C03AC0DC884E80D0041F61F
:100BD0009B300844372190FBF1F290FBF1F5A5F131
:100BE000800501FB12041B3C02D56442012000E099
:100BF0000020DFF898A080460027FA44AAF1BE0A38
:100C00000EE0E0070AD03246684607EB47010123B1
:100C10000AEB810100F046FB8DE8070064107F1CA1
:100C2000002CEED1194F7F44AE3F19E0E80715D0F4
:100C300007EB04100DF1180A90E80E008AE80E0088
:100C4000C068F04201D1981908903246012306A9E4
:100C500003A800F027FB03AB83E807006D10641CBA
:100C6000002DE3D14FF0010332466946B8F1000F81
:100C700003A802D000F001FB01E000F013FBC9E97A
:100C80000001C9F808200AB0BDE8F087E06E000056
:100C900000487047983000207546FFF7F9FFAE46D0
:100CA00005006946534620F00700854618B020B578
:100CB000FFF7D4FABDE820404FF000064FF00007E0
:100CC0004FF000084FF0000B21F00701AC46ACE8F4
:100CD000C009ACE8C009ACE8C009ACE8C0098D4661
:100CE000704710B50446AFF300802046BDE81040C1
:100CF000FFF753BA4FF0013C50F8042B51F8043B76
:100D00009A4221D1A2EB0C03934313EACC1317D1DF
:100D100050F8042B51F8043B9A4215D1A2EB0C0376
:100D2000934313EACC130BD150F8042B51F8043B36
:100D30009A4209D1A2EB0C03934313EACC13DBD004
:100D40004FF00000704700BFD01A01BAB1FA81F12C
:100D500001F0180122FA01F0CB40C1F12001DBB211
:100D6000C0B2C01A2CFA01F3D11A914311EAC3118F
:100D7000E6D1704701491820ABBEFEE7260002000D
:100D800070475FEA400C08BF91F0000F4FEA8C23D8
:100D90004FEAC12243EA51514FEA1C5018BF00F5F7
:100DA000F0404FEA300018BF41F000415FEA6C5C50
:100DB00000F02980BCF1FF3F08BF40F08040704741
:100DC000130C06BF12044FF0100C4FF0000C130E62
:100DD00004BF12020CF1080C130F04BF12010CF136
:100DE000040C930F04BF92000CF1020CD30F04BF4C
:100DF00052000CF1010C11464FF00002A0F11F004F
:100E0000A0EB0C00704711F0004F08BF704731F0A5
:100E100000413FF4D5AF0B0C06BF09044FF0100C96
:100E20004FF0000C0B0E04BF09020CF1080C0B0F65
:100E300004BF09010CF1040C8B0F04BF89000CF1F5
:100E4000020CCB0F04BF49000CF1010CCCF12003C4
:100E5000A0EB0C0022FA03F302FA0CF241EA0301C0
:100E600000F10100704720F07F4C80EA030023F07E
:100E70007F47ACEB070303F57C5300F0004003F120
:100E8000FF032DE980494FEA154B09B44FEA14439B
:100E900025EA0B4E24EA03480FF2042606EB13273B
:100EA00049083E785FEA320203FB0667C7F5000790
:100EB00007FB06F64FEA54374FEAD64606F102061C
:100EC00007FB066CCCF1005C4FEA1C472CEA074C90
:100ED00007FB06F40CFB06F504EB15464FEA9616E5
:100EE00034BF00204FF000404FEAD13706FB07FC2B
:100EF0004FEA1C4C0CFB0BF7D21B03FB0CF761EB0E
:100F000007010CFB0EF7B0EB074072EB17420CFB2E
:100F100008F734BFA2EB0742B2EB074261EB17417F
:100F20004FEA0C444FEA910706FB07FC4FEA1C4CC2
:100F30000CFB0BF7B0EBC74072EB573203FB0CF71F
:100F400034BFA2EBC742B2EBC74261EB57310CFB97
:100F50000EF7B0EBC70072EB57720CFB08F734BF0B
:100F6000A2EBC702B2EBC70261EB5771039F4FEAD6
:100F7000816141EA921104EBCC044FEAD1374FEA88
:100F8000826206FB07FC42EA90124FEA80604FEA59
:100F90001C4C0CFB0BF7D21B03FB0CF761EB07019E
:100FA0000CFB0EF7B0EB074072EB17420CFB08F797
:100FB00034BFA2EB0742B2EB074261EB17414FEAA5
:100FC0008C554FEA910704EB9C2406FB07FC4FEA83
:100FD0001C4C0CFB0BF7B0EBC74072EB573203FB1A
:100FE0000CF734BFA2EBC742B2EBC74261EB5731FB
:100FF0000CFB0EF7B0EBC70072EB57720CFB08F757
:1010000034BFA2EBC702B2EBC70261EB577115EB1D
:101010004C254FEA816141EA92114FEA82624FEA20
:10102000D13742EA901206FB07FC44F100044FEA74
:1010300080604FEA1C4C0CFB0BF7D21B03FB0CF738
:1010400061EB07010CFB0EF7B0EB074072EB1742A8
:101050000CFB08F734BFA2EB0742B2EB074261EB8F
:10106000174115EB1C154FEA813141EA92414FEAD5
:10107000823242EA90424FEA80304FEA0C7644F1E5
:10108000000448EA03434EEA0B484FF0000EB2EB6F
:10109000080C71EB030724BF624639464EEB0E0E77
:1010A0004FF0000B0018524149414BEB0B0BB2EBD8
:1010B000080C71EB03077BF1000B24BF6246394635
:1010C0004EEB0E0E4FF0000B0018524149414BEB16
:1010D0000B0BB2EB080C71EB03077BF1000B24BF89
:1010E000624639464EEB0E0E51EA020718BF46F033
:1010F000010616EB0E7655F1000254F1000103D5FE
:10110000BDE88901BDE80088BDE88901BDE8004867
:10111000B619524141EB0101A3F1010370478080F0
:101120007F7E7D7C7B7A7978777676757473727141
:1011300071706F6E6E6D6C6C6B6A6A6968686766F9
:1011400066656464636362616160605F5F5E5E5D8B
:101150005D5C5C5B5B5A5A595958585757565655FF
:1011600055555454535352525251515050504F4F61
:101170004F4E4E4D4D4D4C4C4C4B4B4B4A4A4A49B1
:1011800049494848484747474746464645454544F4
:101190004444444343434342424242414141002B81
:1011A0009C4630D477002BD01CB54FEA370703B4E8
:1011B0004FF010004FF01001BAF1000F06D0BCF153
:1011C000000FDCBF40F0080040F008014FF00000C5
:1011D0000FBCBDE810400BF1010BBBF1010F08BFC4
:1011E0005FEA170722BF12F1010211F101014FF06E
:1011F000004143F1000300F0004043EA0000704763
:10120000F9D35708D0E746EA064613F1400F4FEAF4
:1012100016461FDD13F1200FDFBF16430A460021DB
:1012200020335B42BED0C3F1200746EA064602FAED
:1012300007F74FEA164646EA0706C3F1200722FAE7
:1012400003F201FA07F721FA03F14FF0000342EA33
:101250000702A7E746EA020646EA06464FEA1646AE
:1012600046EA0106BCBF46EA0646360C4FF00003CC
:101270004FF000024FF0000194E72DE9804C9A46B0
:10128000934670B491E8380007C831EA400C48BF73
:1012900034EA430C03D5FFF7E6FDFFF780FFF0BC0F
:1012A000BDE8008C2DE9804C9A46934670B491E8D5
:1012B000380007C810F0804F08BF13F0804F03D1EB
:1012C00000F005F8FFF76BFFF0BCBDE8008C20F0E4
:1012D0007F4780EA030023F07F4C07EB0C03A3F564
:1012E0007C5300F00040A3F1FE0392F0000F00F0E9
:1012F000B38095F0000F00F077802DE901494FEAA7
:1013000011404FEA144621EA004800FB06FC24EA9B
:10131000064708FB06F607FB08F800FB07F718EB83
:1013200006484CEB164C4FEA124B18EB07484FEAB5
:1013300015464CEB174022EA0B4E0BFB06FC25EA48
:1013400006470EFB06F607FB0EFE0BFB07F71EEB30
:10135000064E4CEB164C4FF000061EEB074E4CEBC6
:10136000174B18EB0B0840F1000018EB0E0B58EB75
:10137000000840F100008F1A4FF000013CBFC94344
:10138000661B14BFB5EB040C00213CBFC943F61B20
:101390004FEA17444EEA8E0E27EA04454FEA1C47EF
:1013A00004FB07622CEA074C05FB07F70CFB05F66C
:1013B00004FB0CFC16EB074642EB174216EB0C46FF
:1013C00042EB1C421BEB060658EB0202414146EA87
:1013D0009E0601D5BDE80189B619524141EB0101D4
:1013E000A3F10103BDE801894FEA14454FEA114713
:1013F00024EA054621EA074C05FB07F406FB07F73C
:101400000CFB06F105FB0CFC11EB074144EB174408
:101410004FEA124711EB0C4144EB1C4422EA074C03
:1014200005FB07F206FB07F70CFB06F605FB0CFCB9
:1014300016EB074642EB174216EB0C4642EB1C45F7
:101440006A1854F1000148BF7047B619524141EB88
:101450000101A3F10103704795F0000F37D04FEA67
:1014600011424FEA144721EA024624EA074C02FBE4
:1014700007F106FB07F70CFB06F402FB0CFC14EB70
:10148000074441EB17414FEA154714EB0C4441EB7D
:101490001C4125EA074C02FB07F506FB07F70CFB8E
:1014A00006F602FB0CFC16EB074645EB174516EB60
:1014B0000C4645EB1C42121951F1000148BF704720
:1014C000B619524141EB0101A3F1010370474FEA04
:1014D00014454FEA114724EA054621EA074C05FB6B
:1014E00007F106FB07F70CFB06F24FF0000605FBC1
:1014F0000CFC12EB074241EB174112EB0C4251EB93
:101500001C4148BF7047921841EB0101A3F1010350
:101510007047000010B5044800F079FBBDE81040AA
:10152000024800F074BB00001C0500204C050020A0
:1015300070B5044600688168C943C90717D181683E
:1015400021F00101816001F07FF905460AE000BF4A
:1015500001F07AF9401B022804D920688068C04352
:10156000C00706D020688068C043C007F0D00020C4
:1015700070BDA06A40F01000A062E06A40F0010077
:10158000E062012070BD0000F8B500260446009618
:1015900000688168C943C9072DD0816841F0010105
:1015A0008160164816490068B0FBF1F000E0401E6B
:1015B00000900028FBD101F047F9054616E000BF76
:1015C00001F042F9401B022810D920688068C0430E
:1015D000C0070BD0A06A40F01000A062E06A40F0A3
:1015E0000100E06284F824600120F8BD2068806872
:1015F000C043C007E4D10020F8BD0000B4000020C3
:1016000040420F00FEE770472DE9F041384A10686C
:101610003849030438484FF0000C4FF0100E4FF0DB
:10162000010605D40B681B0702D480F801C018E03E
:1016300013681B0405D50B681B0702D480F801E072
:101640000FE013681B0405D50B681B0702D5112199
:10165000417006E013681B0403D40968090700D52C
:101660004670264985780C78631EDFB2631CDBB2B6
:10167000102D09D0012D0DD0112D13D0C5B1102D75
:1016800005D0012D08D019E04478112C08D04478F9
:101690009CB113E044781CB14478112C0DD00DE0BE
:1016A0000F700BE04178102908D180F802E005E0C6
:1016B0004178012902D1867000E00B704178817079
:1016C000106801050E4802D4018801B9068011682E
:1016D000090503D5018809B1A0F800C04FF40060E6
:1016E00000F0B0FFBDE8F0414FF4004000F0AABFA9
:1016F00008080140080C0140A40000202A00002036
:1017000029000020F0B42C4908682C4A03042C4816
:101710004FF010044FF0010504D413681B0701D4E7
:1017200000210EE00B681B0404D513681B0701D4CD
:1017300044700FE00B681B0405D513681B0702D526
:101740001121417006E00968090403D411680907F2
:1017500000D545701B4982780F787B1CDEB27B1E5A
:10176000DBB2102A09D0012A0DD0112A13D0BAB148
:10177000102A05D0012A08D018E04278112A08D092
:10178000427892B112E042781AB14278112A0CD014
:101790000CE00E700AE04178102907D1847005E052
:1017A0004178012902D1857000E00B704178817089
:1017B000F0BC082000F046BF08080140080C0140BA
:1017C000A40000202A000020F8B50025044600955A
:1017D00090F8240001280BD0012084F82400204632
:1017E000FFF7A6FE2046FFF7CFFE060002D050E02E
:1017F0000220F8BDA06A20F4885040F00200A062E8
:10180000022001F031FB25490968B1FBF0F04000EE
:1018100000E0401E00900028FBD12068816841F064
:101820000801816001F010F8074608E001F00CF8AB
:10183000C01B0A2803D920688068000715D42068D7
:1018400080680007F2D42068816841F0040181605B
:1018500000F0FAFF074612E000F0F6FFC01B0A286E
:101860000DD920688068400709D5A06A20F00200E1
:1018700040F01000A06284F824500120F8BD2068D8
:1018800080684007E8D4A06A20F0020040F0010020
:10189000A06284F824503046F8BD0000B400002057
:1018A000F8B50022009290F8244083681646012C77
:1018B0001CD0012480F82440D3B14D680B691F244B
:1018C0009D4226D81F055B1BC3F103030D6803EB84
:1018D00083039D40A7F580172F439C40036844F481
:1018E00040159C6BAC4327439F631EE00220F8BD6C
:1018F0004B68012B05D0826A42F0200282620122ED
:1019000013E003689C6B0D686FF3150444EAC5345B
:101910000AE05B1BC3F1030303EB83039C400368F2
:1019200044F440159C6BAC439C6303689C68E4439F
:10193000E40706D09C6847F20105AC438D692C434F
:101940009C604B7D012B08D18B69B3F5E04F08D02B
:10195000826A42F02002826201220B7D012B06D0B6
:101960000CE003685C6844F480645C60F5E74B7DE0
:10197000A3B1826A42F02002826201220B6807242E
:1019800005680A2B10D3EF680A3B03EB43039C4026
:10199000A7438C689C402743EF600EE003685C68B7
:1019A00044F480545C60E9E72F6903EB43039C40F7
:1019B000A7438C689C4027432F610B68102B01D0F4
:1019C000112B04D103689C6844F400049C604B68AC
:1019D000012B10D0022B16D0032B03681BD01C6ADE
:1019E000CD686FF30B042C431C620B68102B19D0CD
:1019F000112B17D037E003685C69CD686FF30B04D7
:101A00002C435C61F1E703689C69CD686FF30B04BC
:101A10002C439C61E9E7DC69CD686FF30B042C4330
:101A2000DC61E2E7124C0368A34217D19C682402F0
:101A300019D49C6844F400049C600968102912D1F0
:101A40000C490D4B0968B1FBF3F101EB8101490031
:101A500000E0491E00910029FBD104E0816A41F0B9
:101A600020018162012280F824601046F8BD000048
:101A700000240140B400002040420F002DE9F04155
:101A80000546006823490126234C88420ED10121D6
:101A9000224800F051F804F0ADFC2149A06204F0A6
:101AA000BDFC204904F0E4FBE062A6751E492868ED
:101AB00088422DD119480121303000F03DF804F062
:101AC00099FC1A4D6063294604F0A8FCA16A04F051
:101AD000CFFB294604F06EFDA06310480221303090
:101AE00000F02AF804F086FC0746E0636FF001017D
:101AF000A06A04F012FE05460D49384604F08EFC3B
:101B0000294604F0B5FB0B4904F054FD2064E6754A
:101B1000BDE8F08100240140100000201C050020D9
:101B200066666E4100F07F450028014000000243D8
:101B30000000484200005C420068022909D00329E5
:101B400005D0042901D0C06B7047806C7047406C91
:101B50007047006C7047000070B5044690F8240090
:101B600001280DD0012084F824002046FFF70CFD49
:101B700001004FF0000005D084F82400084670BD35
:101B8000022070BDA26A42F201039A4342F48052DD
:101B9000A2621C4A25681C4B95421FD11E6816F490
:101BA000702F1BD0A66A46F48016A662A66AF605B8
:101BB00000D4E06284F824006FF0040028602068FC
:101BC000456845F080054560206844686405D5D4C3
:101BD0008468C4F30234072C04D009E0A66A26F412
:101BE0008016E2E7904208D11A6812F4702F04D0F0
:101BF000826842F400428260C0E7826842F40212C6
:101C0000F9E700000028014004240140704770B546
:101C10000446006806684568A90625D5B10723D59E
:101C2000A16AC90603D4A16A41F40071A162816866
:101C3000C1F34241072910D1217B71B9416821F0DC
:101C400020014160A06A20F48070A062A06AC004F4
:101C500003D4A06A40F00100A0622046FFF7D6FF3F
:101C600021686FF01200086028062ED570072CD569
:101C7000A06AC00603D4A06A40F40050A0622068A5
:101C80008168C1F30231072909D04168490515D49B
:101C90008168C1F34241072910D1217B71B94168A4
:101CA00021F080014160A06A20F48050A062A06A07
:101CB000C00503D4A06A40F00100A0622046FFF7EF
:101CC000DDFE21686FF00C00086068060CD5F00797
:101CD0000AD0A06A40F48030A062204600F094F858
:101CE00021686FF00100086070BD00002DE9F0412F
:101CF0004FF0000704003D467ED0A06A002628B9B8
:101D0000E66284F82460204600F080F82046FFF761
:101D10000FFCA16AC90600D420B1A06A40F01000EF
:101D2000A06269E0A16A21F4885141F00201A16238
:101D30006268E169237B0A4347EA43010A43A168D9
:101D40004FF48077B94209D0012907D05FF0000134
:101D500094F814C0BCF1010F02D00AE03946F7E74D
:101D6000F3B1A36A43F02003A362E36A43F00103E3
:101D7000E3622368D3F804C02CF4694C4CEA010CEC
:101D8000C3F804C021688B68DFF870C003EA0C0355
:101D900013438B60A168B9420BD0012909D00CE034
:101DA000DFF85CC0A3690CEB43330B4343F40061E1
:101DB000DFE7218A0D05A5F580152168CB6A23F49C
:101DC00070032B43CB62216889680E4B1940914206
:101DD00008D1E662A16A21F0020141F00101A1628D
:101DE000BDE8F081A06A20F0020040F01000A0627F
:101DF000E06A40F00100E0620120F1E7FDF7E1FF59
:101E000000E0FFFFFE0E1FFF7047000030B585B0F9
:101E1000002100910191029103910068254A264911
:101E20000324264D904211D1886940F400708861E6
:101E3000886900F400700490886940F008008861A7
:101E4000886900F008000490022022E01C4A9042B9
:101E50002DD1886940F480608861886900F48060D1
:101E60000490886940F004008861886900F00400EB
:101E70000490886940F0080088618869694600F02C
:101E8000080004908020CDE900040E4800F0E6FB35
:101E90000120CDE900046946284600F0DFFB00225E
:101EA0000521122000F0AEFF122000F09DFF05B0CA
:101EB00030BD00000024014000100240000C014031
:101EC000002801400008014090F82020012A07D096
:101ED000022A05D0416A41F4802141620120704705
:101EE000006842690A43426100207047F0B590F8EB
:101EF00020500468A468012D05D0022D03D0416A4A
:101F000041F4802157E014F0406F01D1E5004FD536
:101F1000C4F301640125A5401D608D684FF4C073B2
:101F20009DB1CE6835434E6845EAC605066803EBA9
:101F30000417F5514FF4C275076805EB04150E69D7
:101F40007E51097D012905D009E00E88CD6845EA5A
:101F50004655EBE701684E5946F480764E511179AB
:101F6000D579567941EA056195792D0445EA06252A
:101F700029434FF4C676056806EB0416A95111787B
:101F8000D57841EA0561957852782D0445EA022218
:101F900011434FF4C475026805EB041551510068F4
:101FA00003EB0411425842F0010242500020F0BD00
:101FB000416A41F4001141620120F0BD10B590F872
:101FC00020300268012B07D0022B05D0416A41F472
:101FD00080214162012010BDD2F8000240F00100D2
:101FE000C2F80002087D00F01F0301209840D2F8DB
:101FF0001C328343C2F81C32CB69B3B9D2F80C321D
:102000008343C2F80C328C894B6864F31F434C69DC
:1020100002EBC404C4F840320C890B6864F31F431C
:102020004C6902EBC404C4F84432CB69012B16D1CD
:10203000D2F80C320343C2F80C320C884B6864F3BC
:102040001F434C6902EBC404C4F840320C89CB68CE
:1020500064F31F434C6902EBC404C4F844328B6937
:10206000002BD2F804320FD053EA0003C2F8043236
:102070000B69002BD2F8143208D00343C2F8143293
:10208000096A012904D008E08343EFE78343F5E7B9
:10209000D2F81C120143C2F81C12D2F8000220F040
:1020A0000100C2F80002002010BDAFF30080406ABA
:1020B000704770B590F82040012C05D0022C03D059
:1020C000416A41F4802128E0046809B32469A40727
:1020D00020D04FF4D874056804EB01142D5915F085
:1020E0000405956005682D591AD0ED0855600568FE
:1020F0002C5904F00204D4604FF4DA74056804EB40
:1021000001142E5906F00F06082E0CD308250DE0F9
:10211000E468DCE7416A41F400114162012070BDCE
:102120006D0D1560E3E72D5905F00F051561056884
:102130002D59C5F30725956105682C59240C546168
:102140004FF4DC72046802EB0112A4581C7004689E
:10215000A458240A5C700468A458240C9C70046879
:10216000A258120EDA704FF4DE72046802EB01120C
:10217000A4581C710468A458240A5C710468A4580B
:10218000240C9C710468A258120EDA71006829B1FF
:10219000016941F020010161002070BDC16841F07A
:1021A0002001C160F8E70246002092F820100129C2
:1021B00001D002290CD111688A68520100D5012092
:1021C0008A68120100D5401C8968C90000D5401CEE
:1021D00070472DE9F05F0546006800244669D0F895
:1021E00004908768D0F80CB0D0F810A0D0F8188010
:1021F000F10748D0F90714D001218160B80703D551
:10220000284600F004FA0CE0780702D54FF4006489
:1022100007E0380702D54FF4805402E0284600F06A
:10222000F5F9F80516D529684FF480708860B8056F
:1022300003D5284600F0EDF90CE0780502D544F40A
:10224000005407E0380502D544F4804402E02846F3
:1022500000F0DEF9F80316D529684FF48030886065
:10226000B80303D5284600F0D6F90CE0780302D570
:1022700044F4004407E0380302D544F4803402E01B
:10228000284600F0C7F9300707D55FEACB6004D5D0
:102290002968102044F40074C86070074FF00807E4
:1022A00007D55FEA0B7004D52868C760284600F0A0
:1022B00065F9B00706D52868C068800702D02846AF
:1022C00000F05EF9700607D55FEACA6004D5296898
:1022D000102044F480640861B00607D55FEA0A70F4
:1022E00004D528680761284600F060F9F00606D595
:1022F00028680069800702D0284600F058F9B0032A
:1023000008D55FEAC96005D52968102048602846CD
:1023100000F04EF9F00307D55FEA097004D528688C
:102320004760284600F078F9300446D55FEA4970E6
:1023300040D5F00504D55FEAC87001D044F001042F
:10234000B00504D55FEA887001D544F00204700539
:1023500004D55FEA487001D544F00404300529D55E
:1023600018F0700F26D008F07000402815D006DC59
:10237000102809D020280AD0302816D10AE0502889
:102380000ED0602811D10EE044F008040DE044F0B6
:1023900010040AE044F0200407E044F0400404E0A4
:1023A00044F0800401E044F480742868816921F0DD
:1023B00070018161296804204860002C05D0686A9A
:1023C000204368622846FFF770FEBDE8F09F70B5B5
:1023D000040003D094F8200010B104E0012070BD87
:1023E000204600F081F82068016841F00101016099
:1023F00000F02AFA0546052604E000F025FA401B05
:102400000A2811D820684068C007F6D02068016803
:1024100021F00201016000F017FA05460BE000F020
:1024200013FA401B0A2806D9606A40F40030606243
:1024300084F82060D2E7206840688007EFD4207ECF
:102440000128206801683DD021F080010160607E94
:1024500001282068016838D021F040010160A07E89
:1024600001282068016833D021F020010160E07E5E
:102470000128206801682ED041F010010160207F02
:1024800001282068016829D021F008010160607FDF
:1024900001282068016824D021F004010160D4E9FA
:1024A00002010843D4E90412114308436168491E3C
:1024B00008432168C86100206062012084F8200080
:1024C000002070BD41F08001C0E741F04001C5E748
:1024D00041F02001CAE721F01001CFE741F00801E7
:1024E000D4E741F00401D9E710B586B0002100918E
:1024F00001910291039100681C49884233D11C4824
:10250000C16941F00071C161C16901F000710491BC
:10251000816941F0080181618069164C00F0080072
:1025200004904FF4807000906946204600F096F8C1
:102530006015009002200190032003906946204618
:1025400000F08CF80C48416821F4C04141F0E06192
:1025500041F48041416000220521142000F052FC2A
:10256000142000F041FC06B010BD000000640040E3
:1025700000100240000C01400000014070470000C4
:1025800010B5084B084A0021FFF793FD002807D13A
:1025900005480068062803D1024901208039887067
:1025A00010BD0000900000203007002070477047E9
:1025B0007047000070B5044690F82000012804D050
:1025C000606A40F40020606218E0022084F8200075
:1025D0002068016821F00101016000F035F905462D
:1025E0000EE000BF00F030F9401B0A2808D9606AED
:1025F00040F400306062052084F82000012070BDA6
:1026000020684068C007EDD1606270BD70477047B8
:1026100070477047704770477047000070B50446B8
:1026200000F012F90546601C02D00448007804440A
:1026300000F00AF9401BA042FAD370BDA8000020A8
:1026400070470000044910B50A68024202D00860D1
:10265000FFF7F6FF10BD0000140401402DE9F84F0C
:10266000DFF8B8910024A9F1040B23460F2709F1E4
:10267000040AABF1040EC9E00125A5402A40AA4294
:102680007DD1674ED1F804C0ACEB0608B44532D01A
:1026900014DCBCF1030F3AD009DCBCF1000F2AD0E6
:1026A000BCF1010F1CD0BCF1020F31D11DE0BCF117
:1026B000110F17D0BCF1120F2AD119E0B8F5881FFD
:1026C00019D006DCB8F5803F15D0B8F5801F1FD1B2
:1026D00011E0B8F5001F0ED0B8F5041F18D10AE0BC
:1026E000CB6815E0CB681B1D12E0CB6808330FE008
:1026F000CB680C330CE08B682BB1012B4FF0080337
:1027000003D0456104E0042302E0056100E00023FA
:10271000FF2A01D8064601E000F104064FEA8405CD
:1027200001D9A5F12005D6F8008007FA05FC28EAB2
:102730000C0803FA05F548EA0508C6F800804D685C
:10274000ED0062D5374DAE6946F00106AE61AD6968
:1027500024F0030605F001050095334D06EB050C4A
:10276000DCF80850A607360F07FA06F825EA080530
:10277000DFF8B880404503D14FF0000817E044E08F
:10278000DFF8AC80404502D14FF001080FE0DFF8E0
:10279000A480404502D14FF0020808E0DFF898809D
:1027A000404502D14FF0030801E04FF0040808FA59
:1027B00006F848EA0508CCF808804D68D9F80060AA
:1027C000ED024D4601D5164300E096432E604D685C
:1027D000DAF80060AD02554601D5164300E0964395
:1027E0002E604D68DBF80060AD035D4601D51643F1
:1027F00000E096432E604D68DEF80060ED037546FC
:1028000001D5164300E096432E60641C0D682A46ED
:10281000E5407FF431AFBDE8F88F000008040140C7
:1028200000001110001002400000014000080140AB
:10283000000C014000100140001401400AB1016188
:1028400070470904FBE700000148806870470000FA
:10285000A800002070B5040025D094F83D000025A4
:1028600020B984F83C50204600F004FA242084F873
:102870003D002068016821F00101016020680168C5
:1028800041F4004101602068016821F400410160C9
:1028900000F068FC4D4A6168914201D84C4900E063
:1028A0004C49884201D2012070BD4B492368B0FBDE
:1028B000F1F15E6826F03F060E435E606368934266
:1028C00006D94FF4967359434FF47A73B1FBF3F181
:1028D0002368491C1E6A26F03F063143196261686D
:1028E000914210D84900401EB0FBF1F2521CC2F3D5
:1028F0000B02042A01D2042022E0B0FBF1F0401CBC
:10290000C0F30B001CE0A268F2B301EBC10303EBC0
:102910000116431EB3FBF6F35B1C43F480431B0517
:1029200049D092B301EBC10202EB0111401EB0FB92
:10293000F1F0401CC0F30B0040F4804040F4004034
:102940002168CA694CF6FF739A431043C861D4E901
:10295000071001432068026822F0C00211430160A1
:10296000D4E9030101432068826848F2FF339A43A7
:1029700011438160D4E9050108432168CA6822F047
:10298000FF021043C86001E00EE016E02068016815
:1029900041F0010101602564202084F83D00256399
:1029A00084F83E50002070BD01EB4106431EB3FB8E
:1029B000F6F35B1CB3E70120C2E701EB4101401EC7
:1029C000B0FBF1F0401CC0F30B00B7E7A08601009C
:1029D00080841E0000093D0040420F002DE9FF4F9A
:1029E00081B089460446FFF72FFF054694F83D0065
:1029F0004FF0000820287DD119230122504920469C
:102A0000009501F01DF9002874D194F83C000128CC
:102A100070D0012084F83C0020680168C90703D108
:102A2000016841F0010101602068016821F4006142
:102A30000160242084F83D00002626644148E062BD
:102A40004FF0011B20272068016841F4807101606C
:102A50000095002259462046049B01F0F1F850B140
:102A600020680068C00502D54FF400702064032080
:102A700005B0BDE8F08F216809F0FE000861FFF79E
:102A8000E3FE2168054648694969C0F34000C1F387
:102A900080214FF0A00A0FE0FFF7D6FE411B0498FB
:102AA000814200D808B984F83DA021684869496985
:102AB000C0F34000C1F3802194F83D20A02A02D049
:102AC00008B90029E8D084F83D7020684169C943FD
:102AD000890716D4016841F40071016020684169DA
:102AE00080691923012216492046009501F0A8F8B3
:102AF000B8B900E021E084F83D7084F83C60002023
:102B0000B6E7016841F40071016021686FF48060EC
:102B10004861192301220A492046009501F090F8E6
:102B200008B10120A4E7039808F1010880458AD381
:102B300084F83D7084F83C60F3E7022098E70000D9
:102B4000020010000000FFFF2DE9F84F1F469046DD
:102B50008A460446DDF82890FFF776FE054694F88D
:102B60003D0020287FD119230122404920460095AD
:102B700001F066F8002876D194F83C00012872D064
:102B8000012084F83C0020680168C90703D101686E
:102B900041F0010101602068016821F400610160D9
:102BA000212084F83D00102084F83E000026266491
:102BB000C4F824806785608D20852D48E0622B460F
:102BC0004A465146204600F0C1FF90B9206841694D
:102BD0008069009036E02A464946204601F0D6F842
:102BE00050B1206C042804D12068016841F40071C0
:102BF00001600120BDE8F88F606A216800780861F3
:102C0000606A401C6062618D491E6185218D491E8C
:102C100089B2218522685369DB435B070BD451B12C
:102C200000781061606A401C6062608D401E6085A3
:102C3000208D401E20852A464946204600F0D4FFBC
:102C40000028CED1208D0028C5D154F83D0B016855
:102C500041F400710160202004F81E09E6776677D0
:102C60000020C7E7FFE70220C4E7000002001000D1
:102C70000000FFFF10B586B0002100910191029184
:102C800003910068104988421BD1104CA06940F0A4
:102C90000800A061A069694600F0080004904FF4A4
:102CA0004060009012200190032003900848FFF735
:102CB000D5FCE06940F48000E061E06900F4800048
:102CC000049006B010BD0000005800400010024003
:102CD000000C01400248816802781144816070470D
:102CE000A8000020074810B5016841F010010160FC
:102CF000032000F0A7F80F2000F006F800F050F8CD
:102D0000002010BD0020024030B505461F4887B0A6
:102D1000C16941F00401C161C06906A900F0040065
:102D2000009001A800F0FEF90498B0B100F01AFA82
:102D300040001749174AB0FBF1F11748491E0260DD
:102D4000416040F2E7320021C0E9032181608161E6
:102D500000F014FC040003D015E000F003FAE8E7EB
:102D60000D4800F09FFC04000DD11E2000F03CF83F
:102D7000102D07D2002229461E2000F043F80748F4
:102D8000056000E0012407B0204630BD001002407D
:102D900040420F000008004074070020AC000020F3
:102DA0000F4808B5816941F001018161816901F035
:102DB00001010091C16941F08051C161C0690022E7
:102DC00000F0805000900F21901E00F01BF8054885
:102DD000416821F0E06141F00071416008BD0000F0
:102DE0000010024000000140002809DB00F01F0233
:102DF000012191404009800000F1E020C0F800115D
:102E000070470000F0B40E4B1B680C46C3F302235E
:102E1000C3F10705042D00D90425191D072901D286
:102E2000002300E0DB1E012606FA05F1491E2140C1
:102E300099409E40761E16403143F0BC02F0B3B874
:102E40000CED00E0064900F0070208684FF6FF03AA
:102E5000184040EA0220034A10430860704700000F
:102E60000CED00E00000FA0510B501460020234CEF
:102E7000012922D0022939D010291DD16168226888
:102E8000D20119D51E48C1F38342C903805C0AD51B
:102E900061681B4AC1F34041921E515C194AB2FB62
:102EA000F1F1484301E0184948436168490203D4FD
:102EB00040000321B0FBF1F010BD226AC2F30121F2
:102EC000012903D1920701D5C80310BD022905D1FC
:102ED000626A920702D549F6404010BD0329FCD131
:102EE00021688903F9D54FF2244010BD00F04AF95A
:102EF0006168C1F38131491C4900DBE700100240E1
:102F0000F879000800127A0000093D002DE9F84325
:102F100005460078354CC00754D0E0690026C00053
:102F200008D4E06940F08050E061E069012600F0DB
:102F3000805000902E480168C90512D4016880466F
:102F400041F480710160FFF77FFC074605E000BF98
:102F5000FFF77AFCC01B642823D8D8F80000C0050E
:102F6000F6D5206A10F4407021D0A98801F4407190
:102F700081421CD0206A1F49012220F440700A605F
:102F800000220A602062C00711D0FFF75DFC0746EF
:102F900041F2883808E000BFFFF756FCC11B4145ED
:102FA00002D90320BDE8F883206A8007F4D5206A9F
:102FB000696820F44070084320621EB1E06920F087
:102FC0008050E0612878800705D56068A96820F402
:102FD0004040084360602878C00605D56068E9680D
:102FE00020F48000084360600020DBE7001002400E
:102FF00000700040400442422DE9F0470F460500B2
:1030000061D0434E306800F00700B84209D2306802
:1030100020F0070038433060306800F00700B84205
:1030200051D128683B4C810712D5400703D5606811
:1030300040F4E06060602878000703D5606840F4E1
:10304000605060606068A96820F0F000084360602C
:103050002878C00728D06868012810D02168022885
:1030600010D0890700292EDA616821F0030101439D
:103070006160FFF7E9FB804641F288390DE0216885
:103080008903EFE78901EDE7FFF7DEFBA0EB08011D
:10309000494502D90320BDE8F0876068696800F0FF
:1030A0000C00B0EB810FEFD1306800F00700B842A0
:1030B0000BD9306820F0070038433060306800F0EA
:1030C0000700B84201D00120E5E72878400705D580
:1030D0006068E96820F4E0600843606028780007D1
:1030E00006D56068296920F4605040EAC10060603C
:1030F00000F058F86168084AC1F30311515CC840F8
:103100000649086006480068FFF7FEFD0020C2E798
:103110000020024000100240087A0008B40000209D
:10312000AC0000200F2202600C4A536803F0030336
:103130004360536803F0F0038360536803F4E06373
:10314000C36052684FF4E06303EAD20202610448AC
:10315000006800F00700086070470000001002409F
:10316000002002400448054900684968044AC1F348
:103170000221515CC8407047B4000020001002409A
:10318000187A00080448054900684968044AC1F3F0
:10319000C221515CC8407047B400002000100240BA
:1031A000187A00080E4A51680E4801F00C03042BEF
:1031B00011D0082B0FD10C48C1F38343C903C05C65
:1031C0000AD55168084AC1F34041921E515C054A34
:1031D0005043B0FBF1F0704704494843704700008A
:1031E0000010024000127A00E679000800093D0054
:1031F0002DE9F84F040070D02078C04DC00749D0A9
:103200006868C0F38100012807D06868C0F38100B6
:10321000022809D16868C00306D52868800339D51B
:1032200060680028E7D035E06068B0F5803F0BD0DB
:1032300010B1B0F5A02F11D0286820F4803028609C
:10324000286820F4802002E0286840F4803028605C
:10325000606890B1FFF7F8FA06460AE0286840F483
:1032600080202860F0E700BFFFF7EEFA801B64289B
:1032700073D828688003F7D50CE0FFF7E5FA064617
:1032800005E000BFFFF7E0FA801B6428F0D828684B
:103290008003F7D420789A4E80074FF001094FF051
:1032A000000839D5686810F00C0F07D06868C0F3C3
:1032B0008100022809D16868C00306D42868800705
:1032C00014D52069012808D110E02069B0B1C6F8F2
:1032D0000090FFF7B9FA074605E00AE1FFF7B4FAF4
:1032E000C01B0228C4D828688007F7D52868616900
:1032F00020F0F80040EAC10028600DE0C6F8008028
:10330000FFF7A2FA074604E0FFF79EFAC01B022867
:1033100023D828688007F7D4207800072CD579486F
:10332000A169D9B1C0F80090FFF78EFA074604E012
:10333000FFF78AFAC01B02280FD8686A8007F7D502
:1033400071484FF4FA510068B0FBF1F0009000BFF3
:103350000098411E0091FAD20EE080E0C0F8008093
:10336000FFF772FA074604E0FFF76EFAC01B022867
:1033700075D8686A8007F7D42078400760D5E86977
:103380000027C00008D4E86940F08050E861E8698F
:10339000012700F0805000905C480168C90513D4F3
:1033A0000168834641F480710160FFF74DFA82465F
:1033B00006E000BFFFF748FAA0EB0A0064284ED8E9
:1033C000DBF80000C005F5D5E06801280AD008B197
:1033D000052813D0286A20F001002862286A20F00E
:1033E000040002E0286A40F001002862E06841F22F
:1033F000883B98B1FFF728FA82460BE0286A40F034
:1034000004002862EEE700BFFFF71EFAA0EB0A01F6
:1034100059455AD8286A8007F6D50CE0FFF714FA08
:10342000824605E0FFF710FAA0EB0A0159454CD897
:10343000286A8007F6D41FB1E86920F08050E8615F
:10344000E06988B36968C1F38101022944D0022888
:10345000C6F8608004D0FFF7F7F9044638E034E09E
:10346000FFF7F2F9074604E0FFF7EEF9C01B022868
:103470002BD828688001F7D4206AB0F5803F05D1A9
:103480006868A16820F4003008436860D4E9080146
:103490000843696821F4741108436860C6F86090B5
:1034A000FFF7D2F9044606E025E000BFFFF7CCF9AC
:1034B000001B022809D828688001F7D51BE000BF4F
:1034C000FFF7C2F9001B022802D90320BDE8F88FDC
:1034D00028688001F4D40EE00128F7D06868226AD9
:1034E00000F48031914204D1616A00F47010884286
:1034F00001D00120EAE70020E8E7000000100240C8
:103500000000424280044242B400002000700040AB
:103510007047704770B590F83C20012A26D00124EE
:1035200080F83C40022280F83D2003685A689D687C
:1035300022F070060A6832435A600D4B02689A42C4
:1035400008D0B2F1804F05D00A4B9A4202D00A4B04
:103550009A4204D1496825F080031943916080F8AC
:103560003D40002180F83C10084670BD022070BD2F
:10357000002C0140000400400008004010B5040089
:1035800003D094F83D0010B107E0012010BD0020E9
:1035900084F83C00204600F01FF8022084F83D002B
:1035A000211D206801F0D6FB012084F8460084F834
:1035B0003E0084F83F0084F8400084F8410084F81D
:1035C000420084F8430084F8440084F8450084F8FD
:1035D0003D00002010BD000000B585B00021009125
:1035E0000191029103912B4B02682B492B489A427F
:1035F0001BD18A6942F400628A618A6902F400621E
:1036000004928A6942F004028A61896901F0040126
:103610000491811400916946FFF720F800220521EA
:103620001920FFF7EFFB19202FE0B2F1804F11D0E6
:103630001B4882422BD1C86940F00200C861C869AA
:10364000002200F00200049005211D20FFF7DAFBA4
:103650001D201AE0CA6942F00102CA61CA6902F07B
:10366000010204928A6942F004028A61896901F0C8
:1036700004010491012100916946FEF7EFFF002249
:1036800005211C20FFF7BEFB1C20FFF7ADFB05B09A
:1036900000BD0000002C0140001002400008014065
:1036A0000004004090F83D10012901D0012070472E
:1036B000022180F83D100168CA6842F00102CA6028
:1036C00000680B49884208D0B0F1804F05D0094905
:1036D000884202D00849884204D1816801F007017C
:1036E000062903D0016841F0010101600020704704
:1036F000002C014000040040000800400168CA6836
:1037000022F00102CA6001680A6A41F211131A42EA
:1037100007D10A6A9B101A4203D10A6822F00102FB
:103720000A60012180F83D100020704770B5044602
:1037300090F83C000025012817D0012684F83C6051
:10374000022084F83D002068826822F0770222F48B
:103750007F4282600868502838D00DDC20284FD086
:1037600005DC90B3102811D14AE0022070BD30284A
:1037700046D040280AD13BE060282FD070280DD0D9
:10378000B0F5805F03D0B0F5005F12D0012584F85A
:103790003D60002084F83C00284670BDCB68D1E92C
:1037A0000121206801F00CFB2068816841F077015D
:1037B00009E0CB68D1E90121206801F001FB206814
:1037C000816841F480418160E1E719E0CA68496895
:1037D000206801F04DFB5021206806E0CA68496866
:1037E000206801F056FB6021206801F0F3FACEE773
:1037F000CA684968206801F03BFB40212068F4E773
:10380000226801461046F0E7704770B5044600682C
:1038100001694FF00005C943890715D4C168C94340
:10382000890711D4E91E0161012020772068806991
:103830008007204602D0FFF7E7FF04E000F098F889
:10384000204600F0C2F8257720680169C94349077E
:1038500017D4C168C943490713D46FF0040101614B
:10386000022020772068806910F4407F204602D033
:10387000FFF7CAFF04E000F07BF8204600F0A5F84F
:10388000257720680169C943090716D4C168C9436F
:10389000090712D46FF00801016104202077206825
:1038A000C0698007204602D0FFF7AEFF04E000F0B9
:1038B0005FF8204600F089F8257720680169C94340
:1038C000C90617D4C168C943C90613D46FF01001E3
:1038D0000161082020772068C06910F4407F2046ED
:1038E00002D0FFF791FF04E000F042F8204600F01C
:1038F0006CF8257720680169C943C90708D1C168F8
:10390000C943C90704D1891E0161204600F05EF851
:1039100020680169C943090609D4C168C943090679
:1039200005D46FF0800101612046FFF7F1FD2068AA
:103930000169C943490609D4C168C943490605D488
:103940006FF040010161204600F075F820680169C0
:10395000C94389060BD4C168C943890607D46FF0EF
:10396000200101612046BDE87040FFF7D2BD70BD67
:10397000704770B50D46040003D094F83D0010B1B7
:1039800007E0012070BD002084F83C00204600F0D4
:103990001BF8022084F83D00211D206801F0DAF9AF
:1039A0002068016821F00801016054F8460B0168A5
:1039B00029430160012004F81F09E0752076E076B4
:1039C0002077A075002070BD7047704700680349DC
:1039D000884201D1FFF77EB970470000000800401F
:1039E00070B5044690F83C00012812D0012584F8F7
:1039F0003C50022084F83D00204601F0F3F901001C
:103A00004FF0000007D084F83D5084F83C000120BE
:103A100070BD022070BD2168CA6822F04002CA60F1
:103A20002168CA6822F48042CA6084F83D5084F854
:103A30003C00002070BD704770B5040004D094F8BD
:103A40004100002510B106E0012070BD84F840500F
:103A5000204600F023F8242084F841002068C16843
:103A600021F40051C160204601F026FA2068016966
:103A700021F4904101612068416921F02A014161EE
:103A80002068C16841F40051C1606564202084F859
:103A9000410084F842006563002070BD30B585B0F8
:103AA000002400940194029403940068174988420A
:103AB0002AD11748816941F480418161816901F40B
:103AC00080410491816941F0080181618069114D53
:103AD00000F0080004904020009002200190032094
:103AE000039069462846FEF7B9FD8020CDE9000421
:103AF000694628460294FEF7B1FD0748416841F047
:103B0000E06141F00401416005B030BD0038014082
:103B100000100240000C014000000140FEE7016877
:103B20004A69D24352050FD46FF480624A61002182
:103B300040F8301F202242738173026942F0040270
:103B4000026101730120704700207047F8B50446F8
:103B5000C06A1E460D461746082807D0012805D022
:103B600010F5803F02D0206B122804D12068016834
:103B700041F480710160134600224FF0011120468C
:103B8000009600F05DF840B120680068C00502D5DD
:103B90004FF4007020640320F8BD2069B0F5804F19
:103BA0000ED00620216800EAD51040F0F000086130
:103BB00033463A460B49204600F08AF878B902E0CD
:103BC00005F0FE0000E0E8B22168086105493346CF
:103BD0003A46891F204600F07BF80028DCD00120FF
:103BE000F8BD00000800010070B516460D460446F9
:103BF0001EE02046FFF793FF08B1012070BD681C4E
:103C000016D0FEF721FE801BA84200D885B9206897
:103C10004069C04340070BD5002044F8300F2021F5
:103C20006173A073216941F0200121612073E4E7F1
:103C300020684069C0434007DBD4002070BD00000D
:103C40002DE9F047984617460D460446C1F307464E
:103C5000DDF820902AE000BFB8F1FF3F26D0FEF744
:103C6000F3FDA0EB0901414502D8B8F1000F1DD1C9
:103C70002068012E16D0806925EA00000004000C9F
:103C800012D00020B84211D1002044F8300F20217A
:103C90006173A073216941F020012161207301202B
:103CA000BDE8F0874069E7E70120EBE72068012ED7
:103CB0000AD0806925EA00000004000C06D000202C
:103CC000B842C9D00020EBE74069F3E70120F7E7ED
:103CD0002DE9F047984616460D4604464FF0000978
:103CE0004FF0200AC1F3074723E020684069C04332
:103CF000400515D42068016841F400710160216815
:103D00006FF480604861C4F8309084F83DA084F876
:103D10003E90216C41F00401216484F83C9021E044
:103D2000701C06D0FEF790FDA0EB0800B04203D84F
:103D300016B1012F1FD021E02068012F15D0806916
:103D400025EA00000004000C18D000BF44F8309FA2
:103D500084F80DA084F80E90216941F020012161C2
:103D600084F80C900120BDE8F087406925EA000046
:103D70000004000CEAD12068406901E020688069F5
:103D800025EA00000004000CAFD1ECE770B5164640
:103D90000D4604461EE02046FFF7C1FE08B1012093
:103DA00070BD681C16D0FEF74FFD801BA84200D8DE
:103DB00085B920684069C04300060BD5002044F84F
:103DC000300F20216173A073216941F0200121612E
:103DD0002073E4E720684069C0430006DBD400207C
:103DE00070BD000030B587B01C216846FCF781FB30
:103DF000154800241349846001600473047501258B
:103E000005614FF460214460C161FDF76FFF08B1A7
:103E100072B6FEE70920CDE90005072002900003F5
:103E200006908DF8154004958DF8144069460648B3
:103E30000394FDF735FD002801D072B6FEE707B008
:103E400030BD0000002401401C05002070B588B082
:103E50001C216846FCF74DFB1B481A4900240160F1
:103E60008915816004730475012505614FF4602193
:103E70004460C161FDF73AFF08B172B6FEE7082061
:103E8000CDE9000507252803022606908DF8154088
:103E9000049602958DF8144069460B480394FDF78B
:103EA000FFFC08B172B6FEE7CDE900566946064848
:103EB0000295FDF7F5FC002801D072B6FEE708B0C8
:103EC00070BD0000002801404C0500202DE9F043A2
:103ED000224C8BB0204F022600252760C4E90165E3
:103EE00004F10C004FF460284FF4801980E820039F
:103EF00025766576A576E576257765772046FEF703
:103F000066FA08B172B6FEE72760C4E9016504F1FC
:103F10000C0080E8200325766576A576E576257782
:103F200065770E48FEF753FA08B172B6FEE7012036
:103F3000CDE90650039505950890009501950295E9
:103F4000694604950548FEF739F8002801D072B695
:103F5000FEE70BB0BDE8F083006400407C05002064
:103F60002DE9F04385B00024504800940194029458
:103F70000394816941F010018161816901F01001B0
:103F80000491816941F020018161816901F0200182
:103F90000491816941F004018161816901F00401AA
:103FA0000491816941F0080181618069012200F07A
:103FB0000800DFF8FC805503049029464046FEF7D0
:103FC0003DFCAF00002239464046FEF737FCDFF8E3
:103FD000E49000221E214846FEF730FC00950125A2
:103FE0000226CDE90256694640460195FEF736FBAA
:103FF0000097CDE90156694640460396FEF72EFB31
:104000001E208DE86100694648460396FEF726FBB0
:104010004FF490708DE8310069464846FEF71EFB6C
:104020004FF230008DE83100DFF88C806946404661
:10403000FEF714FB6802CDE9000469464846029485
:10404000FEF70CFBA8028DE8510069464846FEF7D2
:1040500005FBE80200901948CDE90105694648468C
:10406000FEF7FCFA164D0097CDE901546946484623
:10407000FEF7F4FA0820CDE90005694602944046AF
:10408000FEF7ECFA002205210920FEF7BBFE09200D
:10409000FEF7AAFE002205212820FEF7B3FE282005
:1040A000FEF7A2FE05B0BDE8F0830000001002405C
:1040B0000010014000080140000C014000003110D8
:1040C0000000111010B58CB00024009401940294EB
:1040D000142104A80394FCF70CFA1C4809941A490B
:1040E0000A94C0E900144FF6FF71C0E9024104616F
:1040F00044618461FFF742FA08B172B6FEE74FF4FB
:104100000050CDE900040294694610480394FFF77B
:104110000DFB08B172B6FEE7052004902020059043
:1041200004A90A48FFF75CFC08B172B6FEE70994DF
:1041300009A906480A94FFF7EDF9002801D072B6E4
:10414000FEE70CB010BD0000002C0140F805002077
:1041500010B58CB00024009401940294142104A89A
:104160000394FCF7C6F91B4809944FF080410A9468
:10417000C0E900144FF6FF71C0E902410461846197
:10418000FFF7FCF908B172B6FEE74FF40050CDE935
:104190000004029469460F480394FFF7C7FA08B178
:1041A00072B6FEE7052004902020059004A9094876
:1041B000FFF716FC08B172B6FEE7099409A9054895
:1041C0000A94FFF7A7F9002801D072B6FEE70CB0F9
:1041D00010BD00004006002000B587B000211C483B
:1041E00000910191029103910491184A0591026096
:1041F00041F61F42C0E9012140F2E732C0E9032144
:104200008161FFF7BBF908B172B6FEE74FF4805049
:10421000009069460E48FFF789FA08B172B6FEE7CA
:1042200008210B48FFF7A5FB08B172B6FEE7102086
:1042300004908020059004A90548FFF76BF9002839
:1042400001D072B6FEE707B000BD000000040040D8
:1042500088060020FEE7FEE7094C0025207D50B1CE
:10426000A07EE17E884206D02076052800D3257600
:10427000207EA076E076012001F00AF8EEE700004B
:1042800010000020234E244C00254FF00108207D13
:1042900058B3607EB8B1E07B217C084306D0607BD8
:1042A00000B16573E57384F8118002E0657484F8E9
:1042B0000F801A4F3868000501D5607E18B10A20BA
:1042C00000F0E6FFF6E7607BF8B1306880061CD4AA
:1042D000E07B217C084318D0657311B14FF4617005
:1042E000208484F81180E5730FE0306880060CD4D8
:1042F0004FF4FA6000F0CCFFE07B217C084304D14E
:1043000084F80D80657484F80F80322000F0C0FFBF
:10431000BDE70000080C0140100000200808014023
:104320000A4C00264FF0010804F18005FF27A07811
:1043300040B1A6702878FF2804D00E2801D184F857
:1043400003802F700A2000F0A3FFF0E71000002088
:104350002DE9FC47DFF880915F4E10275F4CA9F1F3
:1043600008090125207800284DD000F0F7FA002137
:10437000084600F0EDFA227859A15C48FBF780FF6F
:1043800001225B49594800F0EDFB1221002000F0AA
:10439000DFFAE06A01F0D8FE02460B4655A1534809
:1043A000FBF76EFF01225249504800F0DBFB12215F
:1043B0004D2000F0CDFA206B01F0C6FE02460B4600
:1043C0004FA14A48FBF75CFF01224949474800F0EA
:1043D000C9FB00F0DBFB4FF4FA68404600F058FFE1
:1043E0003760404600F054FF08203060404600F03F
:1043F0004FFF45494FF400400861404600F048FF38
:1044000004203060AEE7208CC938B0F5957F17D80E
:10441000207DA8B900F0A2FA37604020CDE9000560
:1044200000218023394A084600F02CFA00F0AEFB48
:104430004FF47A7000F02CFF00F01CFA25762575F9
:10444000208C40F2E731A0F2E93088422ED2207D64
:1044500060B300F083FA25480D21343805601F4809
:10446000783001700B2141700A2181702848FDF7D6
:104470009AFE0028FAD0194B1C49243303F1540248
:1044800034392348FDF732FD4FF0000884F81480DA
:1044900041F2707000F0FCFE84F8038000F0EAF94D
:1044A000207D002815D10C48001D0760208CA0F24B
:1044B000EF40D12809D2D9F800104846490700D565
:1044C00065750068400700D565750A2000F0E0FEBC
:1044D00048E7BDE8FC8700001008014010000020FC
:1044E000454D455247592025316420004C07002096
:1044F0000000002025342E316620562000000000E8
:1045000025342E31662056000010014096670008C1
:104510007C050020DFF88080204F0125204C0026FC
:104520003868C00401D4257100E026713868800421
:1045300001D4657100E066713868400401D42572C9
:1045400000E026723868000401D4657200E06672EB
:10455000D8F800104046C90501D4A57200E0A67243
:104560000168890501D4E57200E0E6720168490539
:1045700001D4257300E026730068800601D5E5713B
:1045800000E0E6713868C00601D4A57100E0A671AC
:10459000012000F07DFEC3E708080140080C01403F
:1045A000100000200B4E0C4C0025307800B1357007
:1045B000A07D18B1A5750948FDF7CEFAE07D20B1C0
:1045C0000648E5753030FDF7C7FA322000F060FE8E
:1045D000EBE70000A4000020100000201C050020D4
:1045E000012000F055FEFBE7624E0827624C4FF0B9
:1045F000040A00254FF0010BE07B217C88437CD02E
:10460000607B38B36078052803D240F6B83000F0FC
:104610003FFEA583E57465753760607B18B140F295
:10462000DC5000F035FE4FF4FA78404600F030FEE2
:10463000C6F800A0607B18B140F2DC5000F028FE04
:10464000404600F025FEE06A206360792179084247
:1046500006D176E084F801B0DBE70A2000F018FE0E
:10466000207B0028F9D14FF00209C6F80090A583FD
:10467000A04611E0642809D9D8F84410962905D23B
:1046800098F80110012901D13C498968401CA8F81B
:104690001C000A2000F0FCFD98F8100018B9B8F8CA
:1046A0001C009628E6D335484FF40041416131495A
:1046B000091DC1F800904FF4FA6000F0E9FD98F888
:1046C000100080B9B8F81C0096280CD3294888F847
:1046D00013B0001DC0F800A0076088F80F504FF419
:1046E0007A7000F0D5FD98F80D0048B398F81300E3
:1046F00030BBFA20A8F8200000E036E088F80EB0C1
:10470000C00000F0C5FD1E49DFF86C80C1F800B0A4
:1047100008F178080B2188F802101A48FDF743FDCC
:104720000028FAD0144B1649243303F154021548DB
:10473000FDF7DCFB1049FF208031887088F802000B
:1047400002E0E57384F811B06078401E10F0FF00BD
:104750006070207C03D000283FF452AF03E010B912
:10476000E57384F811B005206070012000F090FD21
:1047700042E7000010080140100000200010014036
:10478000180700207C05002002270F4D0F4C4FF02A
:1047900004084FF0080940F6B83B40F2DC5A002606
:1047A000607C68B12F60C5F80080C5F8009058465D
:1047B00000F06EFD2674607B08B1A4F820A066743A
:1047C0000A2000F065FDEBE714080140100000200E
:1047D000012000F05DFDFBE70A4C002640F6B835ED
:1047E000E07A217C8843E08B03D030B12084E683DB
:1047F00003E0A84201D2401CE083012000F048FD04
:10480000EEE7000010000020DFF85C80174C012765
:10481000206B01F099FC0022434601F031FA054675
:104820000E46E06A01F090FC2A46334601F06CFB2C
:1048300005D2606C962802D9207C00B92774207AB2
:1048400048B9606CB0F5487F05D90949E06A8842EB
:1048500001DD607A28B10020A0740A2000F018FD64
:10486000D6E7A774F9E700000000F03F1000002031
:104870000000504110B5002000F05EF8BDE8104087
:1048800000F084B92DE9FF4F83468946D81DC11732
:1048900000EB517000271D464FEAE00A3E46DDF866
:1048A000348024E000241AE0600702D07806070E66
:1048B00008E0E01704EB5071029800EBE10106FB01
:1048C0000A100778380608D50E981FFA89F1C2B287
:1048D0000BEB040080B200F00FF8641C24B2AC4271
:1048E000E2DB761C09F1010036B20FFA80F9464589
:1048F000D8DBBDE8FF8F000070B5802813D24029B7
:1049000011D20B4B012401F007051E79AC40094B75
:10491000C90800EBC1100EB132B101E0012A03D089
:10492000195CA143195470BD195C2143FAE70000DA
:10493000080000201C01002028B1FF224FF48061F4
:104940000248FBF7CEBD0022F8E700001C01002062
:10495000014A1080518070470800002010B500F017
:10496000A9FE44F62063012278215448FEF736F868
:1049700008B1002010BD40F6C210401EFDD1AE228D
:104980000021782000F09CFE20220021782000F0F9
:1049900097FE10220021782000F092FEB022002124
:1049A000782000F08DFEC8220021782000F088FEDB
:1049B00000221146782000F083FE1022002178208A
:1049C00000F07EFE40220021782000F079FE812256
:1049D0000021782000F074FEFF220021782000F0F2
:1049E0006FFEA1220021782000F06AFEA62200219D
:1049F000782000F065FEA8220021782000F060FEFB
:104A00003F220021782000F05BFEA42200217820C4
:104A100000F056FED3220021782000F051FE002243
:104A20001146782000F04CFED5220021782000F0BD
:104A300047FEF0220021782000F042FED92200211A
:104A4000782000F03DFE22220021782000F038FE80
:104A5000DA220021782000F033FE12220021782093
:104A600000F02EFEDB220021782000F029FE20221B
:104A70000021782000F024FE8D220021782000F013
:104A80001FFE14220021782000F01AFEAF22002120
:104A9000782000F015FE2E220021782000F010FE74
:104AA0000020FFF749FF00F071F805480021018060
:104AB000418001214171084610BD0000A40500207D
:104AC000080000202DE9F047814625480D46924612
:104AD00001882A781144802905D280464088697867
:104AE0000844402802D30020BDE8F08700262AE0D1
:104AF000A9F1200101FB00606A68002432F81070FF
:104B00001DE000BF07FA04F0000409D5B8F8021050
:104B1000B8F800003144204489B280B252460BE01C
:104B2000BAF1000F1AD00022B8F80210B8F800004D
:104B30003144204489B280B2FFF7DEFE641C28783D
:104B4000A042DFD8761C6878B042D1D8B8F80010FF
:104B50002A7848461144A8F80010C5E70122E3E787
:104B60000800002070B515460E46044609E02A46A6
:104B70003146FFF7A7FF2178884201D0C8B270BD47
:104B8000641C20780028F2D1C0B270BD70B5104D01
:104B9000002400BF04F1B000C2B20021782000F070
:104BA0008FFD00221146782000F08AFD102200219E
:104BB000782000F085FD05EBC41280234021782089
:104BC00000F08EFD641CE4B2082CE3D370BD00003D
:104BD0001C01002010B5502080F31188BFF34F8FC7
:104BE000BFF36F8F00F070FF18B104494FF0805091
:104BF0000860002080F3118810BD000004ED00E083
:104C000030B593B028216846FBF773FC14210AA83D
:104C1000FBF76FFC002501200F95109511950104FD
:104C200012958DE8230004904FF4E010CDE90810B0
:104C3000022407946846FEF7DBFA08B172B6FEE775
:104C40000AA90F2081E831004FF48060CDE90D05FD
:104C500002210AA8FEF7D0F908B172B6FEE74FF4B8
:104C6000004011900F940FA8FEF750F9002801D0D2
:104C700072B6FEE713B030BD7047000010B50448AF
:104C8000FEF7C3FD03480188491C018010BD0000E8
:104C9000F80500209A00002010B50448FEF7B5FD85
:104CA00003480188491C018010BD00004006002017
:104CB0009E00002070B51A48FEF7A7FD194801684C
:104CC000486A194A80B21080184ACC6A138818447E
:104CD00003FB04004FF496735843154B18600020F3
:104CE00048621449108009684A6A93B2124A1380D4
:104CF000124ACD6A1488234404FB05334FF496749A
:104D000063430F4C2360486210800548FEF7F6FCB1
:104D10000348FEF7C7FC0B490120087070BD000076
:104D200088060020F8050020980000209A00002046
:104D300054000020400600209C0000209E0000201F
:104D4000A0000020A40000200148FEF75EBD000086
:104D500074070020F0B50268164B174C174D4FF042
:104D60008047984205D0B84203D0A04201D0A84263
:104D700003D122F070064A683243984205D0B84207
:104D800003D0A04201D0A84203D122F44074CA68E3
:104D900022434C6922F08002224302608A68C26288
:104DA0000A688262984201D1096901630121416167
:104DB000F0BD0000002C014000040040000800404D
:104DC00010B5846842EA032224F47F440A43224354
:104DD000826010BD826822F070020A4342F007012F
:104DE0008160704770B5036800249A6822F07005EE
:104DF0004A682A4322F007050A682A439A604A68EB
:104E000012F00F0F31D11211082A2ED2DFE802F072
:104E10002E2E2E2E0B2127040B69D1E902210068CA
:104E2000FFF7CEFF22E00A68052A10D00268136A55
:104E3000156A25F00105156202689569096925F072
:104E4000F00545EA01119161006803620EE001205E
:104E500070BD0A698968006800F00AF806E00A690E
:104E60008968006800F015F800E00124204670BD54
:104E700010B5036A046A24F001040462846924F012
:104E8000F00444EA021423F00A020A438461026235
:104E900010BD10B5036A046A24F01004046284692A
:104EA00023F0A00324F4704444EA023243EA0111DF
:104EB0008261016210BD000070B50446006801699E
:104EC000E26821F44051114301612169A06808435F
:104ED000616908432168CA6841F20C639A4302433E
:104EE000CA6020684169A26921F44071114341619F
:104EF0001E492068884202D1FEF744F901E0FEF71E
:104F000031F900EBC00101EB001260686421800000
:104F1000B2FBF0F3B3FBF1F36FF018067343B2FB8F
:104F2000F0F5B2FBF0F605EB8305322303EB051534
:104F3000B5FBF1F5B6FBF1F605F0F00505EB06154E
:104F4000B2FBF0F6B2FBF0F0B0FBF1F06FF018023C
:104F5000504306EB800003EB0010B0FBF1F021683A
:104F600000F00F002844886070BD00000038014048
:104F70000148FDF72EB900007C050020FEE749003E
:104F800050EAC12018BF04204A0D18BF40F00100AC
:104F900040F2FF72B2EB515F08BF40F002000128FF
:104FA00008BF052070470907090E002804DB00F13F
:104FB000E02080F80014704700F00F0000F1E020BE
:104FC00080F8141D704730380A2801D2012070473C
:104FD000002070477047002070470000BEB0FDF70A
:104FE00081FEFFF70DFEFEF7BBFFFFF76BF8FFF743
:104FF000AFF8FFF7F1F8FEF7F5FEFEF727FF974849
:105000009549002401609649C0E901144FF480419C
:10501000C0E9034144618461C4610462FDF71AFC84
:1050200008B172B6FEE7FEF751FF8F488D49016067
:105030004FF41651C0E901140C21C460C0E90441C9
:105040008461C461FEF7F8FC08B172B6FEE78349DB
:105050006FF001005431096808618349903909688B
:10506000086181494839096808617C485430FEF775
:1050700019FB7D489038FEF715FB7B484838FEF752
:1050800011FB76488838FCF79FFB74488838FCF79A
:1050900063FD72485838FCF797FB70485838FCF7A6
:1050A0005BFD7148092148300825C0E90014C4603F
:1050B000056184600475A0F5CE70FDF77BFA674842
:1050C00048F602412838FCF7FFFE684802210160DB
:1050D000056010250560FFF741FC4FF47A70FDF77D
:1050E0009DFA01264020CDE9000600218023604A78
:1050F0000846FFF7C7FBFFF749FD40F6B830FDF75C
:105100008DFA5A490C3908685B4A0304594804D49B
:1051100013681B0701D4047017E00B681B0404D547
:1051200013681B0701D405700FE00B681B0405D53D
:1051300013681B0702D51121017006E009680904F4
:1051400003D41168090700D5067014224B4902A840
:10515000FBF795F9002102A800F0A6F8484C474952
:105160001422A064143107A8FBF789F9002107A8CD
:1051700000F09AF84149E064142228310CA8FBF7AA
:105180007EF900210CA800F08FF83C49206514221C
:105190003C3111A8FBF773F9002111A800F084F845
:1051A000364960651422503116A8FBF768F90021D2
:1051B00016A800F079F83149A065142264311BA8C3
:1051C000FBF75DF900211BA800F06EF82B49E065A4
:1051D0001422783120A8FBF752F9002120A800F012
:1051E00063F82649206614228C3125A8FBF747F97D
:1051F000002125A800F058F8204960661422A0314B
:105200002AA8FBF73CF900212AA800F04DF81B4919
:10521000A0661422B4312FA8FBF731F900212FA882
:1052200000F042F81549E0661422C83134A8FBF7B3
:1052300026F9002134A800F037F81049206714221D
:10524000DC3139A8FBF71BF9002139A800F02CF854
:10525000606700F024F8FEE700580040A405002035
:10526000801A060000380140D006002014080140D2
:1052700096670008A6000020080C0140F47800089A
:105280001000002001460020842900D0C81C70476F
:1052900010B500B9012000F0F9FA002010BD10B5DA
:1052A00000F01AFB002010BD3EB504460D46B0F9D3
:1052B0000800FFF7E7FF02A9CDE90001208A2B468D
:1052C00082B2D4E9001000F0D3FB012801D0002005
:1052D0003EBD02983EBD00002DE9F041184C0F463E
:1052E000054626692068001D00F016FA38B92068C6
:1052F00090F82C1001208840616981436161681C2D
:1053000007D137B12168BDE8F0410E48091D00F012
:105310003DBA20683544B5424560216805D2A06891
:10532000BDE8F041091D00F019BA6068091D00F0E0
:1053300015FAE06A854200D2E562BDE8F08100001E
:10534000B8000020840800202DE9F041054600F057
:1053500029FA2C4CE068401CE06020682A4F10B10C
:10536000A06920B329E02560E068012825D1002646
:1053700006EB860007EB800000F0E2F9761C072EB2
:10538000F6D321488C3000F0DBF91F48A03000F044
:10539000D7F91D48B43000F0D3F91B48C83000F0ED
:1053A000CFF919488C3060601430A06005E02068A7
:1053B000E96AC06A884200D82560A06A401CA062E1
:1053C0006864E96A0120626988401043606101EB0A
:1053D000810007EB8000291D00F0D8F900F002FAE7
:1053E000A06900280CD02068E96AC06A884207D208
:1053F00006494FF080500860BFF34F8FBFF36F8FA7
:10540000BDE8F081B8000020BC07002004ED00E0FA
:1054100010484FF42051420706D0C01D0D4920F01E
:105420000700411AC1F520510B4A00230144C2E98B
:1054300000030839103A21F0070111604B600B603E
:105440000B1AC0E9001393604FF000405360D06026
:10545000704700009808002008010020074C084D04
:105460004FF080562068012804D92E60BFF34F8F7B
:10547000BFF36F8F00F063F9F4E70000BC07002072
:1054800004ED00E02DE9F0470E46DDE909841746FA
:10549000824691009946089DA522206BFBF721F8D2
:1054A0006FF00301206B01EB8701084420F0070730
:1054B000780707D0502080F31188BFF34F8FBFF3D8
:1054C0006F8FFEE72218315C82F83410315C11B125
:1054D000401C1028F6D3002684F84360072D00D323
:1054E0000625E562C4E91356201D00F034F904F1E5
:1054F000180000F030F92461C5F107006462A06172
:105500006665A66584F85C604A465146384600F0F8
:10551000BFF82060B8F1000F01D0C8F80040BDE826
:10552000F087000030B5114900E011460A68824258
:10553000FBD34B685C18844203D140681844486030
:10554000084643681C18944209D1084C103C246852
:10555000A24209D052681A4442600A681268026086
:10556000814200D0086030BD0460F9E708010020E6
:1055700006484168096829B14168C968C96849682D
:10558000C16270474FF0FF31FAE70000B800002019
:1055900008484068401C4FF0500080F3118804D048
:1055A000BFF34F8FBFF36F8FFEE7BFF34F8FBFF394
:1055B0006F8FFEE7100100202DE9F041054600271E
:1055C00000F0C0F9314E306808B9FFF721FFF068EC
:1055D00005424BD1C5B3083568070ED005F007006A
:1055E000C0F108000544680707D0502080F31188F7
:1055F000BFF34F8FBFF36F8FFEE72DB37068854207
:1056000034D82248103001460C6801E020460C4690
:105610006168A94202D221680029F7D131688C4221
:1056200024D007682168016060680837411B102991
:105630000FD96019420708D0502080F31188BFF3BA
:105640004F8FBFF36F8FFEE710E041606560FFF79B
:1056500069FF61687068401A7060B268904200D259
:10566000B060F06801430020C4E9000100F090FA46
:10567000780707D0502080F31188BFF34F8FBFF316
:105680006F8FFEE73846BDE8F0810000F80000208B
:1056900010B5031F4FF080741C601B1F21F0010127
:1056A0001960191F024B0B60143940380A6010BD95
:1056B000915500080148401EFDD1704790D003006D
:1056C0001CB502238DF804100A2100918DF80520E5
:1056D000014601AA0148FDF737FA1CBDA4050020C8
:1056E00070B5C2B000248DF8041001A904E0155D66
:1056F0000E19641C7570E4B29C42F8D30A21009123
:105700005B1C01469BB201AA0248FDF71DFA42B09C
:1057100070BD0000A4050020D0E9013201699A6043
:10572000D0E901235A604A68824201D182684A6006
:10573000002202610868401E0860086870477047D0
:1057400000F108014FF0FF32C0E90112C1600161B0
:1057500000210160704700210161704730B50B687E
:105760005A1C02D000F1080202E0026904E022465D
:10577000546825689D42FAD953684B6099608A60E5
:10578000516008610168491C016030BD42684A608F
:1057900093688B6093685960916008610168491C47
:1057A00001607047502080F31188BFF34F8FBFF323
:1057B0006F8F0A494868401C486001280CD108488E
:1057C000006810F0FF0F07D0502080F31188BFF35E
:1057D0004F8FBFF36F8FFEE770470000100100206E
:1057E00004ED00E00849486828B1401E486001D136
:1057F00080F311887047502080F31188BFF34F8FDA
:10580000BFF36F8FFEE700001001002070B5002885
:1058100027D0144DA0F108046168E868014207D15F
:10582000502080F31188BFF34F8FBFF36F8FFEE7D7
:1058300022683AB1502080F31188BFF34F8FBFF335
:105840006F8FFEE78143616000F07CF860686968F3
:10585000084468602046FFF765FEBDE8704000F030
:1058600097B970BDF80000204FF0E02000210161E1
:10587000816105494FF47A720968B1FBF2F1491E62
:105880004161072101617047B400002010B502009A
:1058900014D00F48406B38B1502080F31188BFF30B
:1058A0004F8FBFF36F8FFEE700F04CF800211046DA
:1058B000FFF712FD00F06CF9002807D105494FF001
:1058C00080500860BFF34F8FBFF36F8F10BD000093
:1058D000B800002004ED00E01CB516480024CDE916
:1058E00000402346402214A1154800F0C1F80128C9
:1058F00009D0401C1CD1502080F31188BFF34F8F7A
:10590000BFF36F8FFEE7502080F31188BFF34F8FF6
:10591000BFF36F8F07484FF0FF313038C16201216C
:1059200081610461FFF756FBBDE81C4000F04CB8F4
:105930001CBD0000E800002049444C450000000068
:105940005D5400080248416B491C416370470000E8
:10595000B800002010B51A4C606B10B10120206215
:1059600010BD00202062FFF736FBE063A26B90427F
:1059700004D92168821A4B6D1A444A65A063606994
:105980001049B0FA80F0C0F11F0000EB800051F820
:1059900020206AB101EB800000F1080241684968EB
:1059A0004160914201D149684160C868206010BDE2
:1059B000502080F31188BFF34F8FBFF36F8FFEE746
:1059C000B8000020BC0700201CB5264908780190CB
:1059D000FF20087008788DF800009DF800009DF801
:1059E000002000F0F000904207D0502080F3118892
:1059F000BFF34F8FBFF36F8FFEE79DF800001A4B88
:105A000000F0500018700720986005E09DF8002015
:105A100052008DF80020401E9DF800201206F5D49B
:105A20009860032807D0502080F31188BFF34F8F70
:105A3000BFF36F8FFEE74FF44070986001980870D5
:105A40000A48016841F470010160016841F0704149
:105A50000160FFF709FF00205860FAF7B7FB00204C
:105A60001CBD000000E400E01001002020ED00E07B
:105A70002DE9FF5F8346DDE90E87994616468A4683
:105A80009000FFF799FD05001AD06020FFF794FD04
:105A9000040012D025630021CDE90241CDE9008741
:105AA0004B46324651465846FFF7ECFC2046FFF77E
:105AB0004BFC012004B0BDE8F09F2846FFF7A6FE8E
:105AC0004FF0FF30F6E700002DE9F0412E4C0027A3
:105AD000606B40B1E069401CE061206A00B10127C1
